:020000040000FA
:100000003806001075010000790100007B01000036
:100010007D0100007F010000810100000000000060
:10002000000000000000000000000000830100004C
:100030008501000000000000870100008901000028
:100040008B010000B51A00008B0100008B0100003D
:100050008B0100008B0100008B0100008B01000070
:100060008B0100008B0100008B0100008B01000060
:100070008B0100008B0100008B0100008B01000050
:100080008B0100008B0100008B0100008B01000040
:100090008B0100008B0100008B0100008B01000030
:1000A0008B0100008B0100008B0100008B01000020
:1000B0008B0100008B0100008B0100008B01000010
:1000C0008B0100008B0100008B01000000F002F8A2
:1000D00000F041F80AA090E8000C82448344AAF1A1
:1000E0000107DA4501D100F036F8AFF2090EBAE89F
:1000F0000F0013F0010F18BFFB1A43F0010318475C
:100100004C2400006C240000103A24BF78C878C149
:10011000FAD8520724BF30C830C144BF04680C600D
:10012000704700000023002400250026103A28BF55
:1001300078C1FBD8520728BF30C148BF0B60704759
:10014000752900F06D80002070471FB501F0E6FEB4
:100150001FBD10B510BD01F0A5FE1146FFF7F5FF5C
:1001600000F0E9FA01F0C3FE03B4FFF7F2FF03BCAD
:1001700001F0CEFE08480047FEE7FEE7FEE7FEE797
:10018000FEE7FEE7FEE7FEE7FEE7FEE70348044979
:10019000024A044B70470000CD00000038040010F4
:1001A00038060010380400100FB41CB5074B06AA1F
:1001B0007B4469460090059801F0D9FD002069460E
:1001C00001F0E8FD1CBC5DF814FB0000E11B000021
:1001D00070B50446856900683026C10600D4202623
:1001E000C00708D070BDD4E9012130469047206A8D
:1001F00000F1010020626D1EF5D570BD70B504469A
:1002000085690068C00708D170BDD4E901212020AC
:100210009047206A00F1010020626D1EF5D570BD87
:100220002DE9F0418046002610687529414615A544
:1002300012D0AFF30080002803DAC0F1000012A54D
:1002400008E0D8F800108A0701D510A502E0490798
:1002500004D50FA5012601E0AFF30080002408F1CA
:10026000240704E001F0EFFD30313955641C00280B
:10027000F8D133462A4621464046BDE8F04101F018
:1002800017BD0000000000002D0000002B00000042
:100290002000000040EA010310B59B070AD1042AA0
:1002A00008D310C808C9121F9C42F8D020BA19BA46
:1002B000401A10BD1AB1D30703D0521C07E000202A
:1002C00010BD10F8013B11F8014B1B1B07D110F8B2
:1002D000013B11F8014B1B1B01D1921EF1D11846B5
:1002E00010BD02F0FF0343EA032242EA024201F09A
:1002F0008ABD70477047704770470000FFFFFFFFDF
:1003000020208449086000BF8248006810F0400F38
:10031000FAD00320804908604FF000007F49C1F8FF
:10032000A8017F4908604FF001007E4908604FF046
:100330000B007D4908604FF00100A1F10401086045
:100340004FF0AA00794908604FF055007349C1F891
:100350008C0000BF7648006810F0806FFAD0032050
:10036000744908604FF0AA006C49C1F88C004FF046
:1003700055006E4908604FF023006F4908604FF048
:100380000100A1F1040108604FF0AA006B49086068
:100390004FF05500086000BF6948006810F4806F96
:1003A000FAD00320674908604FF0AA005B49C1F802
:1003B000AC004FF05500614908606348634908602C
:1003C0004FF000005549C1F8C8010846D0F8880030
:1003D000C0F30160032868D15248006810F00300A0
:1003E00006D0012823D002283FD003285CD100E0AA
:1003F00000BF4F480068C0F30E0000F101004FEA53
:1004000040014648D0F88800C0F3074000F10100E1
:10041000B1FBF0F04E4900FB01F03F490968C9B259
:1004200001F10101B0FBF1F04A4908603CE04048AD
:100430000068C0F30E0000F101004FEA40013748A8
:10044000D0F88800C0F3074000F10100B1FBF0F0E4
:10045000414900FB01F030490968C9B201F10101CD
:10046000B0FBF1F03B4908601EE031480068C0F382
:100470000E0000F101004FEA40012848D0F8880042
:10048000C0F3074000F10100B1FBF0F04FF4FA4176
:1004900000FB01F020490968C9B201F10101B0FB7C
:1004A000F1F02C49086000BF2FE01E48006810F0F2
:1004B000030006D0012810D0022819D0032823D128
:1004C00000E000BF14480068C0B200F101002049FC
:1004D000B1FBF0F01F49086016E00F480068C0B299
:1004E00000F101001C49B1FBF0F01A4908600BE073
:1004F00009480068C0B200F101004FF4FA41B1FBB5
:10050000F0F01449086000BF00BF43F23A0003490D
:1005100008607047A0C10F4004C10F4000C00F40E9
:10052000ACC10F400CC10F4084C00F408CC00F40C5
:1005300088C00F4080C00F40A4C00F40ACC00F4027
:10054000A8C00F40A0C00F40DE872804C4C00F40E1
:1005500000093D0000000010001BB7008148824ADE
:10056000106000BF8048416811F0004FFAD0006869
:100570007E4A10407C4A1060C1F389110A20B1FB09
:10058000F0F070477748784A106000BF76484168BD
:1005900011F0004FFAD00068744A521C1040724AA1
:1005A0001060C1F389110A20B1FBF0F070477CB5EF
:1005B0006F480088042800DA7CBD6E4C00252FE0CF
:1005C000207841282AD16078442827D1E07825284E
:1005D00024D1A078372802D041281ED10EE0FFF7A1
:1005E000D1FF0646024664A16846FFF7DDFDBDF86F
:1005F000000020809DF80200A0700EE0FFF7AEFF23
:10060000064602465CA16846FFF7CEFDBDF8000035
:1006100020809DF80200A07000BF00BF641C6D1C0C
:1006200053480088C01EA842CAD800BFC4E710B50E
:100630005248007810F0020F76D05048007810F041
:10064000040F01D000F0CBFB4C48007810F0080FED
:1006500070D04B48007810F0010F06D140F2DE5008
:100660004849086048484949086046480068B0F56C
:10067000007F3AD94248007810F0010F19D12C229E
:1006800043493C4801F0CFFA3A482C304FF4EA7223
:100690003E49096801F0C7FA3A480068A0F5EA70D7
:1006A000384908603948006800F5EA703749086041
:1006B00012E04FF40072354801682E4801F0B3FA99
:1006C00030480068A0F500702E4908602F48006887
:1006D00000F500702D4908604FF40070244908802F
:1006E000FFF765FF00F082FB16E02648006898B12E
:1006F00024480268254801681E4801F094FA214800
:1007000000681B490880FFF752FF00F06FFB00F004
:1007100048FB00201B4908601948007840F00100A0
:100720001749087006E0FFE71548007820F001003F
:100730001349087010BDFFF7E3FD00F067FA0020D1
:100740000F4908705020134908800AE00B480078D0
:1007500010F0010F01D100F095FA01F092F8FFF7C7
:1007600066FFF3E70431200100400340FDFFFFFE78
:10077000380000108A000010253375004800001072
:100780000C00001008000010641F0000040000109E
:100790002A1F00003A00001010B540F480734FF09B
:1007A000A044A3622346D962002207E04FF0A04391
:1007B0005B6B13F0010F00D103E0521CB2F5A02FC8
:1007C000F4D300BF10BD10B5014641F480704FF066
:1007D000A044A06201206062002307E04FF0A04027
:1007E000406B10F0010F00D103E05B1CB3F5A02FAC
:1007F000F4D300BF00204FF0A04460622046026B9B
:1008000090B210BD00201CE0EA494FF4C06202FB28
:100810000011E84A643A082303FB00221160E6490C
:10082000E44A643A03FB002251600021E14A643A41
:1008300003FB00221162DF4A643A03FB002251628B
:10084000401C0428E0D3DB496439DC4A1160DC49F0
:100850004FF0A042C2F80C114FF00301D94A1160C9
:100860004FF000014FF0A042C2F81811704700206D
:1008700017E0D5494FF4C06202FB0011D04A203A7C
:10088000082303FB002211640021CD4A203A03FB18
:1008900000225164CA4A203A042303FB00229165D6
:1008A000401C0328E5D3C6492031C84A1160C84915
:1008B0004FF0A042C2F820114FF00201C54A11606A
:1008C0004FF000014FF0A042C2F8281170472DE907
:1008D000F041C148006840F08040C049C1F8C40000
:1008E000BF48C04988600846C06820F00F00C86053
:1008F0000846C06840F00500C8604FF44F404FF014
:10090000A04108604FF03800B74908604FF0640418
:1009100000E0641E002CFCD102204FF0A0410860D2
:10092000302048604001486143F20F700861122096
:10093000C8604001AC4908604FF400604FF0A0412E
:1009400088614FF0640400E0641E002CFCD100209C
:100950004FF0A04188614FF40041FFF71DFF00BF39
:1009600008E00020FFF72FFF054615F4004F00D1E7
:1009700003E0641CB4F5801FF3D300BF0220FFF72F
:1009800022FF07460320FFF71EFF06464FF6F070D2
:10099000304040EA07409549884213D14FF4405116
:1009A0000020FFF7F9FE002408E00120FFF70BFF0D
:1009B000054615F0200F00D003E0641CB4F5801F3D
:1009C000F3D300BF002408E01020FFF7FCFE05462B
:1009D00015F0010F00D003E0641CB4F5803FF3D3A1
:1009E00000BF15F0040F11D04FF0A040406840F058
:1009F00001004FF0A04148607B48006840F48060EF
:100A0000C1F800014FF01500886003E012204FF09C
:100A1000A041886015F0020F04D000204FF0A041E3
:100A2000886104E04FF480704FF0A041886145F682
:100A30004560010708644AF26C20486443F21E00D6
:100A40008864FFF7DFFEFFF712FF22206849086085
:100A50004FF088004FF0A041C1F8E40F4FF6FF704F
:100A6000C1F8E80F0846D0F8000140F00300C1F8D3
:100A700000010846006840F001000860BDE8F08110
:100A80005C48006800885B490968891C594A116004
:100A9000704710B557490968088856490968891C84
:100AA000544B196000F0F8F90446204610BD30B5EB
:100AB00005460B462C4605E0FFF7E2FF24F8020B43
:100AC000981E83B2012BF7DC13B1FFF7D9FF20701A
:100AD00030BD00B5034603E0FFF7D2FF981E83B296
:100AE000012BF9DC00BD444A1168444A4FF0080369
:100AF00003FB0122126AC2F30A02A2F1030290B2BE
:100B00003E4A03FB012212683A4B1A6070473A4989
:100B1000086800F101010846042900D10020364987
:100B200008607047364800684FF0A041D1F81811AE
:100B3000884201D0012070470020FCE710B5314AFF
:100B400011682E4A4FF0080303FB0122126C2E4B52
:100B50001A6040F08042294B4FF0080404FB013337
:100B60005A6410BD0120704727490968088026494A
:100B70000968891C244A1160704770B504460B4609
:100B80002646581C4FF6FE7100EA010304E036F8D1
:100B9000020BFFF7E9FF9B1E002BF8D119480568EF
:100BA00005F101000546032800D100251548056020
:100BB00070BD000064000820FF050080080100509F
:100BC0002000082010010050641808201C0100506B
:100BD0005800082024010050C4C00F4000C00F403E
:100BE0000501155000C0024000010050905C00203B
:100BF000000200504C0000101801005000000820B6
:100C000014010050280100505000001010B5F848A1
:100C10004FF040218861032048610120486000BFF7
:100C200000FA00F140094FF0E02202EB8000C0F82A
:100C3000001100BFEF48006840F48050EE49C1F851
:100C4000C400EE48006840F07060EC490860084657
:100C5000406820F47F1048600846406840F4AA10BD
:100C600048600846C06840F07040C860FFF72FFE3B
:100C70000020E3490870E3490870E3490870E3493C
:100C8000087010BDE048007850B9DE48007820F0C8
:100C90000100DC4908700120DB490870DB4908705D
:100CA00070470020DA4908700420DA490870D548F6
:100CB000007840F00400D34908700846007840F0FE
:100CC00008000870704710B5FF220621D248FFF7D0
:100CD00008FBD148D1490A68C0F8062089884181BB
:100CE0004FF4C160CC4988814FF48070C8810820DE
:100CF000088240F2064048824FF48070888208469D
:100D0000C6490A68C0F8162089884183C449096821
:100D1000C161002101628184C2480088C0490988FC
:100D20004840C1490988084208D1BE484088BC49AA
:100D300049884840BC494988084205D0B648BB4963
:100D40000968C0F8261004E0B348B6490968C0F83D
:100D500026102A20B6490870A948007840F0020001
:100D6000A749087010BD10B5A748007818B1A6486B
:100D70000078012814D1A348007840F00100A1496F
:100D800008700846007820F002000870FFF79BFF0B
:100D90000020A8490870FFF784FF01209B490870D4
:100DA00010BD99480078012806D0022805D00328F4
:100DB0000BD0042811D109E000BF0020924908702F
:100DC000904908709149087007E000BF8D4800788D
:100DD00040F010008B49087000BF00BF70478B487F
:100DE000007820F0040089490870704700B58648F3
:100DF0000078042803D084480078072821D183484C
:100E0000007810F0080F1CD08048007820F008000F
:100E10007E490870884800688849098808448649DE
:100E20000860864800883630854908807448007814
:100E300040F001007249087004207E490870FFF7F5
:100E400030FF00BD1CB5FFF74EFE7E49088006212D
:100E50006846FFF72CFE06217B48FFF728FEBDF809
:100E60000000A0F57F41FF390DD1BDF80200A0F5CB
:100E70007F41FF3907D1BDF80400A0F57F41FF395C
:100E800001D101201CBD0020FCE710B56C48018891
:100E90006E48FFF772FE10BD0146081240EA0120BD
:100EA00080B2704770B505460B46164600228EB1DB
:100EB0005B48008802445A484088024459480088E8
:100EC00002445848408802441846FFF7E5FF0244B0
:100ED00002F5C0622C4604E034F8021B0A44981E56
:100EE00083B2012BF8DC0BB12078024402E090B20F
:100EF00000EB1242100CFAD1D04380B270BD0A0E42
:100F000000F8012B0A0C00F8012B0A0A00F8012B4B
:100F1000017070470A1200F8012B0170704700B58C
:100F20004A484B490A680260898881803B490A68BF
:100F3000C0F806208988418108204449888141F20F
:100F40004500C8813D480088283081B23F481030B4
:100F5000FFF7E0FF00203D49488288824FF4C860D7
:100F6000C8820020088308462D490968C0F81A1075
:100F70002C490968C0F81E10002214210E30FFF71A
:100F800091FF324908833348018830482230FFF707
:100F9000C1FF314801882D482430FFF7BBFF2F489F
:100FA00001682A482630FFF7AAFF2D480168274824
:100FB0002A30FFF7A4FF41F250002449C8850120E0
:100FC00008860020488688861C480088143081B234
:100FD00001221E482230FFF765FF1C49488600BDEC
:100FE00010B5134801780C48FFF7C7FD10BD00008D
:100FF00040F92F00C4C00F4000C00F4000C00240A5
:1010000033000010340000100D00001048000010E4
:1010100020000010210000108A020010432500006B
:10102000581F0000440000105C1F0000601F0000FB
:10103000320000100E0000101800001038000010E0
:101040003000001022000010240000105400001096
:101050003E0000103A0000103C0000101400001088
:101060001C00001010B50446F948FA490A680260ED
:1010700089888180F8490A68C0F8062089884181FA
:101080000820F349888141F24500C88114F0020F1D
:1010900003D04FF43050088203E04FF42050EC4965
:1010A00008820020EA49488288824FF4C860C882DA
:1010B000002008830846E9490968C0F81A10E84981
:1010C0000968C0F81E10002214210E30FFF7EAFE56
:1010D000DF490883E3480188DD482230FFF71AFF23
:1010E000E1480188DA482430FFF714FFDF4801683F
:1010F000D7482630FFF703FFDD480168D4482A307F
:10110000FFF7FDFE0120D249088600204886888628
:1011100014F0020F18D02006000C44F4C04140EA3D
:101120002120CB49C88540F20240C88601200887AB
:1011300001221821C6482230FFF7B4FEC449488670
:101140003A20CC49087012E02006000C44F4A0417B
:1011500040EA2120BE49C88501221421BC48223022
:10116000FFF7A0FEBA4948863620C2490870C24837
:10117000007840F00200C049087010BD0020BF494F
:101180000870BF48007800F00300012803D1102048
:10119000BC49087002E02020BA4908700020B84914
:1011A00008707047B648007820F00400B449087011
:1011B000704710B5B448007805281AD2DFE800F06F
:1011C00003060A0E1200FFF77EFD12E00220FFF771
:1011D00049FF0EE01220FFF745FF0AE01120FFF75C
:1011E00041FF06E0A448007840F00100A2490870E1
:1011F00000BF00BF10BD0020A44908707047002048
:10120000A24908709E48007840F004009C4908708C
:101210000846007820F00800087070472DE9F04774
:10122000FFF737FC8146FFF734FC82468D48008883
:10123000824501D0BDE8F087FFF72BFC0704FFF7DC
:1012400028FC0743FFF725FC0604FFF722FC0643B2
:10125000FFF71FFC044604F470404FEAA0288C48B6
:1012600000881438A0EB080085B2B5F5807F00DD5A
:10127000E0E7B8F1140F04DDA8F1140188B2FFF71C
:1012800028FC7E48007820B101282CD002286FD19C
:1012900062E014F0040F25D17348A0F800906D4867
:1012A0007C490A680260898881806D487A490968AA
:1012B000016014F0100F05D06C4806600420FFF7A1
:1012C000D1FE0FE00020694908607819684908607C
:1012D00014F0030F03D008460068401C0860142077
:1012E000FFF7C0FE94E114F0040F34D15E48A0F87B
:1012F0000090584867490A68026089888180584888
:1013000065490968016014F0100F05D05748066060
:101310000420FFF7A7FE1EE014F0020F1BD0781C7C
:10132000534908605D4801884FF04020806861F3B0
:101330001F404E49086008460068401C5849086034
:101340001220FFF78FFE02204F490870FFF7A9FC1B
:1013500003204A4908705BE104224F494048FEF7E8
:1013600099FF00B154E140480088814501D04FE128
:1013700050E014F0100F0CD049480068864208D0A5
:1013800014F0040F04D1394806600420FFF76AFE08
:101390003EE114F0040F0BD014F0100F07D0002022
:1013A00036490870364908703020364908702FE1F8
:1013B00014F0020F2DD02E4807600068401C2C4905
:1013C000086014F0100F17D0FFF7ECFE34480068E7
:1013D000264908601020FFF745FE042027490870C1
:1013E0002848007840F00200264908700846007836
:1013F00040F0080008700CE0FFF7D4FE1220FFF761
:1014000031FE022020490870FFF74BFC03201B49E6
:101410000870FDE0042220491148FEF73BFF00B1AF
:10142000F6E011480088814500D0F1E010480068DE
:10143000874200D0ECE014F0040F33D000200F49B5
:1014400008700F49087030200E490870E0E0000075
:101450008A0200103E00001043250000581F0000C3
:10146000440000103A0000103C000010140000106E
:101470001C00001032000010330000100D0000109E
:1014800034000010480000100E0000102000001072
:101490002E000010240000102A0000101000001080
:1014A0001800001014F0020F0BD00420FFF7DAFD33
:1014B0000020F9490870F94908704020F84908707F
:1014C000A6E014F0100F00D1A2E0F64800688642B2
:1014D0003FD1FFF767FEF3480068F3490860EE4824
:1014E0000078C01E082829D2DFE800F004280E2862
:1014F000281216220420E8490870E948007840F0D4
:101500000200E749087019E00620E349087015E079
:101510000A20E149087011E00020DF490870DF4926
:101520000870DF48007800F00400DD49087005E02D
:101530001020FFF797FDFFF75EFE00BF00BFD64803
:101540000078042805D1D648007840F00800D44936
:101550000870D1480078042807D0CF4800780528C3
:1015600003D0CD48007806281CD1DDB1CC480078E6
:1015700010F0040F16D10620FFF7ABFA2946CB482E
:10158000FFF795FACA480580C548007840F0040086
:10159000C3490870C74800682844C649086010203D
:1015A000FFF760FD14F0010F31D0BB480078C01E7A
:1015B000082823D2DFE800F0040509132222221FA5
:1015C00000BF0720B449087018E00820B24908702D
:1015D000B348007820F00200B14908700EE0FFF730
:1015E0000EFE0A20AC490870AD48007820F00200D9
:1015F000AB49087002E0FFF7FEFD00BF00BFAD4839
:101600000068401CAB4908601020FFF72BFD00BFAD
:1016100000BF00BF0EE610B5A74800883C2801DDDA
:10162000242403E0A4480088183884B2A348A449BD
:101630000A68026089888180A2490A68C0F8062089
:101640008988418108209D4988814520C88104F10D
:10165000180081B299481030FFF75CFC00209749D0
:10166000488288824FF4A070C88200200883084610
:1016700095490968C0F81A1094490968C0F81E1005
:10168000002214210E30FFF70DFC8C490883002046
:1016900048848884214689482630FFF708FA0022CA
:1016A000201D81B285482230FFF7FCFB83498884E6
:1016B00004F12600864908708648007840F0020050
:1016C0008449087010BD10B5FFF7E3F90446FFF731
:1016D000E0F92012082802D1FFF79DFF00BF00BFEC
:1016E00010BD38B5FFF7D5F9B0F5006F29D0A0F5DA
:1016F000006006385AD16948007800F003000128DC
:101700001ED1FFF7C6F901281AD1FFF7C2F9B0F5CB
:10171000006F15D1FFF7BDF9A0F5C06104390FD1F5
:10172000FFF7B7F902280BD1FFF73CFD06216A4805
:10173000FFF7BDF95948007840F00200574908709A
:1017400034E0FFF7A6F900F47F40B0F58A4F2CD1C2
:10175000FFF79FF958490880FFF79BF9FFF799F9C0
:101760008004800C21D1FFF794F9C4B2FFF791F9FE
:1017700004215648FFF79BF904216846FFF797F9C3
:10178000042269465048FEF785FD70B9012C04D04B
:10179000062C05D0112C07D105E0FFF794FF03E0DC
:1017A000FFF73CFD00E000BF00BF00BF00BF38BD39
:1017B000424843490A6802608988818041490A6831
:1017C000C0F80620898841814FF4C1603B49888177
:1017D0004FF48070C8810820088240F20640488299
:1017E0004FF400708882084636490A68C0F816200F
:1017F0008988418334490968C16131490A680262B4
:101800008988818431490968C0F826102A20304926
:1018100008703048007840F002002E490870704788
:1018200008B5FFF736F9A0F50061063928D1FFF7B2
:1018300030F9012824D1FFF72CF9B0F5006F1FD142
:10184000FFF727F9A0F5C061043919D1FFF721F995
:10185000012815D10620FFF73CF904211B48FFF7AA
:1018600026F90620FFF735F904216846FFF71FF92E
:10187000042269461448FEF70DFD08B9FFF798FFEA
:1018800008BD10B5FFF74EF928B1FFF7DBFA28B312
:10189000FFF7C6FF24E025E00D0000103400001023
:1018A000480000101800001014000010D4020010AE
:1018B000360000101C0000102E0000108A020010DC
:1018C0002400001043250000581F00002A000010CB
:1018D00032000010330000103E000010FFF701FF3F
:1018E000FFF715F97B48007810F0040F29D07948EC
:1018F000007810F0080F15D077480078082820DD10
:10190000FFF779FC7548007838B1FFF752FC73484F
:101910000078401E7149087013E0FFF743FCFFF7A1
:101920002DFC0EE06C48007802280ADD00206C498E
:101930000870684908706B48007800F00400694935
:10194000087067480078082874D2DFE800F00405C2
:1019500073353673735700BF5E48007810F0010F7F
:1019600029D05C48007810F0020F24D05E4800783F
:1019700010F0020F1FD15D4801884FF040208068B1
:1019800061F31F405A4908600846006859490860D9
:1019900000205949086057480068401C55490860B4
:1019A0000220FFF75FFB012054490870FFF779F927
:1019B00002204B4908703DE000BF4648007810F017
:1019C000100F1AD04848007810F0030F15D148487E
:1019D00000684849096888420FD146480068401CA1
:1019E000444908601120FFF73DFB0320434908707C
:1019F000FFF757F905203A4908701BE03A4800788C
:101A000010F0030F15D13A4800683A490968884236
:101A10000FD138480068401C364908601120FFF794
:101A200021FB032035490870FFF73BF909202C49B9
:101A3000087000BF00BF2C48007810F0020F18D0CB
:101A40002F480078FFF77AF8FFF78CF810B1FFF70E
:101A5000C7FA08E000202249087050202149087088
:101A600000201C4908702048007820F002001E4920
:101A700008701D48007810F0010F1AD0FFF74FFAD8
:101A800020480088FFF75AF8FFF76CF810B1FFF70D
:101A9000FCF908E000201249087050201149087034
:101AA00000200C4908701048007820F001000E4911
:101AB000087010BD0D480088401C0C49088006487D
:101AC0000078401C0449087001204FF04021086054
:101AD00070470000340000102000001021000010AA
:101AE0000D0000104800001033000010100000101E
:101AF00014000010180000101C0000100E00001050
:101B000032000010300000102DE9F05F4FF0000BA4
:101B1000044689464FF0010AC0F820B02046E1682B
:101B2000884798B3252806D0D4E901219047206A38
:101B3000401C2062F2E7E168204600268847C4F88E
:101B40001CB005460027C4F818B02A2D0DD0524607
:101B5000A5F130010A292ED2BAF1000F2BD09246FE
:101B600004EB8708C8F818101AE059F8041B20463F
:101B700004EB87029161E1688847012F05461CD17B
:101B8000E069002824DA26F0200621E048E0D8F8B1
:101B9000180000EB800005EB40003038C8F8180052
:101BA0002046E1688847A0F1300105460A2902D2A3
:101BB000BAF1000FEBD1012F0AD02E2D08D120460B
:101BC000E16888477F1C0546022F46F02006BCDBF3
:101BD000A069002803DA404246F00106A061F00740
:101BE00001D026F01006DDB1A5F14100192802D878
:101BF000203546F400664A462946204626604E4671
:101C0000FEF79EFA50B1012805D0F61D26F0070018
:101C100000F1080982E706F104097FE7284683E717
:101C2000206ABDE8F09F032A40F2308010F0030CD8
:101C300000F0158011F8013BBCF1020F624498BF1F
:101C400011F801CB00F8013B38BF11F8013BA2F1BC
:101C5000040298BF00F801CB38BF00F8013B11F037
:101C6000030300F09C80083AC0F0088051F8043B60
:101C7000083A51F804CBA0E80810F5E7121D5CBF44
:101C800051F8043B40F8043BAFF30080D20724BF77
:101C900011F8013B11F801CB48BF11F8012B24BF0B
:101CA00000F8013B00F801CB48BF00F8012B70475A
:101CB0002DE9F0470D4604469246994600F1240866
:101CC0000168880604D5E06921F01001216000E078
:101CD00001200027A84201DDA0EB0507A16907EB61
:101CE000050202EB0300A1EB0000A0612068C00622
:101CF00002D42046FEF76CFA002608E0D4E9012160
:101D00001AF806009047206A401C761C20624E4557
:101D1000F4DB2068C0060AD52046FEF759FA06E033
:101D2000D4E9012130209047206A401C2062381EEF
:101D3000A7F10107F4DC07E0D4E9012118F8050058
:101D40009047206A401C2062281EA5F10105F3DCA3
:101D50002046FEF753FA21680220090600D401202C
:101D6000BDE8F08701694A1C02610878704700B538
:101D70008FB0CDE901310021059105497944CDE9C4
:101D8000031011466846FFF7BFFE0FB000BD00000C
:101D9000E5FFFFFF0A6802F8010B0A60704710B503
:101DA000203AC0F00B80B1E81850203AA0E8185053
:101DB000B1E81850A0E81850BFF4F5AF5FEA027C14
:101DC00024BFB1E81850A0E8185044BF18C918C083
:101DD000BDE810405FEA827C24BF51F8043B40F824
:101DE000043B08BF7047D20728BF31F8023B48BF09
:101DF00011F8012B28BF20F8023B48BF00F8012B47
:101E000070474FF000020429C0F0128010F0030C5C
:101E100000F02380CCF1040CBCF1020F18BF00F8D5
:101E2000012BA8BF20F8022BA1EB0C0100F015B884
:101E30005FEAC17C24BF00F8012B00F8012B48BFEA
:101E400000F8012B70474FF00A01B0FBF1F202FBE2
:101E50001101104670474FF0000200B5134694463A
:101E60009646203922BFA0E80C50A0E80C50B1F1F2
:101E70002001BFF4F7AF090728BFA0E80C5048BF06
:101E80000CC05DF804EB890028BF40F8042B08BFA4
:101E9000704748BF20F8022B11F0804F18BF00F8A0
:101EA000012B7047754600F029F8AE4605006946DB
:101EB000534620F00700854618B020B5FEF766F9B6
:101EC000BDE820404FF000064FF000074FF000083B
:101ED0004FF0000B21F00701AC46ACE8C009ACE8BC
:101EE000C009ACE8C009ACE8C0098D46704704469B
:101EF000AFF300802046FEF737F900000048704736
:101F0000D403001001487047704700BFD803001089
:101F100001491820ABBEFEE72600020010B5FFF70E
:101F2000F1FF4FF00001016010BD485454502F31B3
:101F30002E3020323030204F4B0D0A436F6E7465C7
:101F40006E742D547970653A20746578742F6874B6
:101F50006D6C0D0A0D0A00000A0000DDFFFFFF0096
:101F60000A0000683C68746D6C3E0D0A3C6865614F
:101F7000643E0D0A3C6D65746120687474702D6553
:101F8000717569763D227265667265736822206399
:101F90006F6E74656E743D2235223E0D0A3C746985
:101FA000746C653E65617379574542202D206479D4
:101FB0006E616D696320576562736964653C2F7457
:101FC00069746C653E0D0A3C2F686561643E0D0ABC
:101FD0000D0A3C626F6479206267636F6C6F723DBB
:101FE00022233330333041302220746578743D220F
:101FF00023464646463030223E0D0A3C703E3C6247
:102000003E3C666F6E7420636F6C6F723D22234698
:102010004646464646222073697A653D2236223E70
:102020003C693E48656C6C6F20576F726C64213C54
:102030002F693E3C2F666F6E743E3C2F623E3C2FF4
:10204000703E0D0A0D0A3C703E3C623E5468697356
:1020500020697320612064796E616D696320776502
:10206000627369746520686F737465642062792097
:1020700074686520656D6265646465642057656297
:102080007365727665723C2F623E203C623E6561EC
:1020900073795745422E3C2F623E3C2F703E0D0A0D
:1020A0003C703E3C623E48617264776172653A3CC6
:1020B0002F623E3C2F703E0D0A3C756C3E0D0A3C73
:1020C0006C693E3C623E4B65696C204D4342313742
:1020D000303020626F6172643C2F623E3C2F6C692D
:1020E0003E0D0A3C6C693E3C623E456D626564642F
:1020F000656420454D41432045746865726E657482
:1021000020436F6E74726F6C6C65723C2F623E3C44
:102110002F6C693E0D0A3C2F756C3E0D0A0D0A3C72
:10212000703E3C623E412F4420436F6E7665727470
:10213000657220496E70757420323A3C2F623E3CC5
:102140002F703E0D0A0D0A3C7461626C6520626757
:10215000636F6C6F723D2223666630303030222010
:10216000626F726465723D2235222063656C6C700B
:10217000616464696E673D2230222063656C6C7314
:10218000706163696E673D223022207769647468EC
:102190003D22353030223E0D0A3C74723E0D0A3C21
:1021A00074643E0D0A3C7461626C652077696474E6
:1021B000683D22414437252220626F726465723D7A
:1021C0002230222063656C6C70616464696E673DC7
:1021D0002230222063656C6C73706163696E673DA9
:1021E0002230223E0D0A3C74723E3C7464206267C9
:1021F000636F6C6F723D2223303066663030223E52
:10220000266E6273703B3C2F74643E3C2F74723EAA
:102210000D0A3C2F7461626C653E0D0A3C2F74649C
:102220003E0D0A3C2F74723E0D0A3C2F7461626CA5
:10223000653E0D0A0D0A3C7461626C6520626F7226
:102240006465723D2230222077696474683D2235CE
:102250003430223E0D0A3C74723E0D0A3C746420F8
:1022600077696474683D22313425223E30563C2F14
:1022700074643E0D0A3C74642077696474683D227E
:10228000313425223E302E35563C2F74643E0D0AE3
:102290003C74642077696474683D22313425223EA1
:1022A00031563C2F74643E0D0A3C74642077696497
:1022B00074683D22313425223E312E35563C2F7430
:1022C000643E0D0A3C74642077696474683D223171
:1022D0003425223E32563C2F74643E0D0A3C746411
:1022E0002077696474683D22313425223E322E35D0
:1022F000563C2F74643E0D0A3C7464207769647404
:10230000683D22313425223E33563C2F74643E0D05
:102310000A3C2F74723E0D0A3C2F7461626C653E5C
:102320000D0A0D0A3C703E3C623E412F4420436F33
:102330006E76657274657220496E707574203228ED
:1023400073616D65293A3C2F623E3C2F703E0D0A49
:102350000D0A3C7461626C65206267636F6C6F721A
:102360003D22236666303030302220626F72646511
:10237000723D2235222063656C6C70616464696E05
:10238000673D2230222063656C6C73706163696EF7
:10239000673D2230222077696474683D22353030F1
:1023A000223E0D0A3C74723E0D0A3C74643E0D0AD6
:1023B0003C7461626C652077696474683D224144B5
:1023C00041252220626F726465723D2230222063B3
:1023D000656C6C70616464696E673D2230222063B5
:1023E000656C6C73706163696E673D2230223E0DCF
:1023F0000A3C74723E3C7464206267636F6C6F7257
:102400003D2223303066663030223E266E62737085
:102410003B3C2F74643E3C2F74723E200D0A3C2FCF
:102420007461626C653E0D0A3C2F74643E0D0A3C7B
:102430002F74723E0D0A3C2F7461626C653E0D0A6A
:102440000D0A3C7461626C6520626F726465723D56
:102450002230222077696474683D22353430223E70
:102460000D0A3C74723E0D0A3C74642077696474F2
:10247000683D22313225223E30563C2F74643E0D99
:102480000A3C74642077696474683D2231322522E5
:102490003E302E35563C2F74643E0D0A3C74642049
:1024A00077696474683D22313225223E31563C2FD3
:1024B00074643E0D0A3C74642077696474683D223C
:1024C000313225223E312E35563C2F74643E0D0AA2
:1024D0003C74642077696474683D22313225223E61
:1024E00032563C2F74643E0D0A3C74642077696454
:1024F00074683D22313225223E322E35563C2F74EF
:10250000643E0D0A3C74642077696474683D22312E
:102510003225223E33563C2F74643E0D0A3C2F7404
:10252000723E0D0A3C2F7461626C653E0D0A3C2FB1
:10253000626F64793E0D0A3C2F68746D6C3E0D0A23
:102540000D0A001E306CA2455E0000006C250000E4
:10255000000000105400000008010000C025000029
:1025600054000010E40500002401000000093D00B3
:10257000000000000000000000000000000000005B
:10258000000000000000000000000000000000004B
:10259000000000000000000000000000000000003B
:1025A000000000000000000000000000000000002B
:1025B000000000000000000000000000000000001B
:04000005000000CD2A
:00000001FF
