:1000000000800010C5000000D5000000D7000000EF
:10001000D9000000DB000000DD000000000000004F
:10002000000000000000000000000000DF000000F1
:10003000E100000000000000E3000000E500000017
:10004000E7000000E7000000E7000000E700000014
:10005000E7000000E7000000E7000000E700000004
:10006000E7000000E7000000E7000000E7000000F4
:10007000E7000000E7000000E7000000E7000000E4
:10008000E7000000E7000000E7000000E7000000D4
:10009000E7000000E7000000E7000000E7000000C4
:1000A000E7000000E7000000E7000000E7000000B4
:1000B000E7000000E7000000E7000000E7000000A4
:1000C000E700000001488047014800475105000053
:1000D00041070000FEE7FEE7FEE7FEE7FEE7FEE77A
:1000E000FEE7FEE7FEE7FEE70024EFF3098318468C
:1000F00070471C4623461846034683F30988704719
:100100000024EFF30883184670471C462346184620
:10011000034683F30888704780B483B000AF0023A0
:100120007B60EFF312837B607B6818460C37BD461B
:100130005DF8047B704700BF80B483B000AF786087
:100140007B6883F311880C37BD465DF8047B7047EC
:1001500080B483B000AF00237B60EFF310837B603B
:100160007B6818460C37BD465DF8047B704700BFBE
:1001700080B483B000AF78607B6883F310880C375D
:10018000BD465DF8047B704780B483B000AF0023A8
:100190007B60EFF313837B607B6818460C37BD46AA
:1001A0005DF8047B704700BF80B483B000AF786017
:1001B0007B6883F313880C37BD465DF8047B70477A
:1001C00080B483B000AF00237B60EFF314837B60C7
:1001D0007B6818460C37BD465DF8047B704700BF4E
:1001E00080B483B000AF78607B6883F314880C37E9
:1001F000BD465DF8047B704780B485B000AF786081
:100200000023FB607B681BBAFB60FB681846143751
:10021000BD465DF8047B704780B485B000AF0346EF
:10022000FB800023FB60FB885BBAFB60FB68184621
:100230001437BD465DF8047B704700BF80B485B0BD
:1002400000AF0346FB800023FB60FB88DBBAFB604A
:10025000FB6818461437BD465DF8047B704700BF45
:1002600080B485B000AF78600023FB607B6893FAB0
:10027000A3F3FB60FB6818461437BD465DF8047BAA
:10028000704700BF80B485B000AF78600023FB7377
:100290007B68D3E84F3FFB73FB7B18461437BD46A2
:1002A0005DF8047B704700BF80B485B000AF786014
:1002B0000023FB817B68D3E85F3FFB81FB89184605
:1002C0001437BD465DF8047B704700BF80B485B02D
:1002D00000AF78600023FB607B6853E8003FFB6061
:1002E000FB6818461437BD465DF8047B704700BFB5
:1002F00080B485B000AF03463960FB710023FB601A
:100300003A68F979C2E8431FFB60FB681846143766
:10031000BD465DF8047B704780B485B000AF0346EE
:100320003960FB800023FB603A68F988C2E8431F0C
:10033000FB60FB6818461437BD465DF8047B7047C8
:1003400080B485B000AF786039600023FB603B6803
:100350007A6843E80023FB60FB6818461437BD4603
:100360005DF8047B704700BF80B400AF4FF440439A
:10037000C4F20F03D3F888301B0E03F00303032BE2
:1003800040F093804FF44043C4F20F03D3F80C3194
:1003900003F00303032B00F2D78001A252F823F0ED
:1003A000B10300000504000059040000B10300007F
:1003B0004FF44043C4F20F03D3F88830C3F30E0365
:1003C0005A1C4FF49053C0F27A0303FB02F24FF42D
:1003D0004043C4F20F03D3F888301B0CDBB2013367
:1003E000B2FBF3F24FF44043C4F20F03D3F80431ED
:1003F000DBB20133B2FBF3F240F20003C1F20003BF
:100400001A6051E04FF44043C4F20F03D3F8883030
:10041000C3F30E035A1C4FF45853C0F26E1303FB80
:1004200002F24FF44043C4F20F03D3F888301B0CA0
:10043000DBB20133B2FBF3F24FF44043C4F20F03DB
:10044000D3F80431DBB20133B2FBF3F240F2000324
:10045000C1F200031A6027E04FF44043C4F20F03D7
:10046000D3F88830C3F30E0301334FF47A4202FB12
:1004700003F24FF44043C4F20F03D3F888301B0C4F
:10048000DBB20133B2FBF3F24FF44043C4F20F038B
:10049000D3F80431DBB20133B2FBF3F240F20003D4
:1004A000C1F200031A6000BF4EE04FF44043C4F2B3
:1004B0000F03D3F80C3103F00303032B44D801A23C
:1004C00052F823F0D5040000FD04000025050000CB
:1004D000D50400004FF44043C4F20F03D3F80431B5
:1004E000DBB25A1C4FF41063C0F23D03B3FBF2F2CF
:1004F00040F20003C1F200031A6025E04FF44043CC
:10050000C4F20F03D3F80431DBB25A1C4FF4D853B2
:10051000C0F2B703B3FBF2F240F20003C1F20003F2
:100520001A6011E04FF44043C4F20F03D3F80431D2
:10053000DBB201334FF4FA42B2FBF3F240F20003B4
:10054000C1F200031A6000BFBD465DF8047B70472E
:1005500080B400AF4FF44043C4F20F032022C3F82D
:10056000A02100BF4FF44043C4F20F03D3F8A031E1
:1005700003F04003002BF5D04FF44043C4F20F03C7
:100580000322C3F804214FF44043C4F20F030122B5
:10059000C3F80C214FF44043C4F20F036322C0F2AE
:1005A0000502C3F884204FF44043C4F20F03AA228B
:1005B000C3F88C204FF44043C4F20F035522C3F814
:1005C0008C204FF44043C4F20F030122C3F8802073
:1005D0004FF44043C4F20F03AA22C3F88C204FF417
:1005E0004043C4F20F035522C3F88C2000BF4FF4E0
:1005F0004043C4F20F03D3F8883003F08063002B2C
:10060000F5D04FF44043C4F20F030322C3F8802017
:100610004FF44043C4F20F03AA22C3F88C204FF4D6
:100620004043C4F20F035522C3F88C2000BF4FF49F
:100630004043C4F20F03D3F8883003F04073002B1B
:10064000F5D04FF44043C4F20F032322C3F8A42093
:100650004FF44043C4F20F03AA22C3F8AC204FF476
:100660004043C4F20F035522C3F8AC204FF440437B
:10067000C4F20F030122C3F8A0204FF44043C4F298
:100680000F03AA22C3F8AC204FF44043C4F20F0377
:100690005522C3F8AC2000BF4FF44043C4F20F030F
:1006A000D3F8A83003F48063002BF5D04FF4404317
:1006B000C4F20F030322C3F8A0204FF44043C4F256
:1006C0000F03AA22C3F8AC204FF44043C4F20F0337
:1006D0005522C3F8AC2000BF4FF44043C4F20F03CF
:1006E000D3F8A83003F44073002BF5D04FF4404307
:1006F000C4F20F030022C3F8A8214FF44043C4F210
:100700000F030022C3F8AC214FF44043C4F20F039F
:1007100048F2DE72C0F22842C3F8C4204FF44043CE
:10072000C4F20F030022C3F8C8214FF44043C4F2BF
:100730000F0343F23A021A60BD465DF8047B70472E
:1007400080B500AFFFF704FF4FF4165000F08CF8AF
:1007500040F60860C0F2000000F008FB40F60860B8
:10076000C0F2000000F002FBF8E700BF80B485B0E3
:1007700000AF786040F20003C1F200031B689B08E1
:10078000FB604FF44043C4F20F034FF44042C4F205
:100790000F02D2F8C42042F00802C3F8C4204FF47C
:1007A0004043C4F20F034FF44042C4F20F02D2F8A8
:1007B000A82122F0C002C3F8A8214FF44043C4F29C
:1007C0000F034FF44042C4F20F02D2F8A821C3F83D
:1007D000A8214FF44043C4F202034FF44042C4F254
:1007E0000202126822F0F0021A604FF44043C4F291
:1007F00002034FF44042C4F20202126842F0500277
:100800001A604FF44043C4F2000383221A73FB685A
:1008100003F10F02002BB8BF13461B111A467B6869
:1008200092FBF3F3BB604FF44043C4F20003BA6899
:10083000120AD2B21A714FF44043C4F20003BA68EC
:10084000D2B21A704FF44043C4F2000303221A7369
:100850004FF44043C4F2000307221A721437BD4616
:100860005DF8047B704700BF80B485B000AF78604E
:1008700040F20003C1F200031B689B08FB604FF4C9
:100880004043C4F20F034FF44042C4F20F02D2F8C7
:10089000C42042F01002C3F8C4204FF44043C4F215
:1008A0000F034FF44042C4F20F02D2F8A82122F401
:1008B0004072C3F8A8214FF44043C4F20F034FF431
:1008C0004042C4F20F02D2F8A821C3F8A8214FF485
:1008D0004043C4F202034FF44042C4F202021268E1
:1008E00022F040421A604FF44043C4F202034FF436
:1008F0004042C4F20202126842F080421A604FF491
:100900004043C4F202034FF44042C4F20202526870
:1009100022F00C025A604FF44043C4F202034FF439
:100920004042C4F20202526842F001025A600023BF
:10093000C4F2010383221A73FB6803F10F02002B38
:10094000B8BF13461B111A467B6892FBF3F3BB60DA
:100950000023C4F20103BA68120AD2B21A7100234A
:10096000C4F20103BA68D2B21A700023C4F20103C0
:1009700003221A730023C4F2010307221A721437E8
:10098000BD465DF8047B704780B485B000AF7860E9
:1009900040F20003C1F200031B689B08FB604FF4A8
:1009A0004043C4F20F034FF44042C4F20F02D2F8A6
:1009B000C42042F00802C3F8C4204FF44043C4F2FC
:1009C0000F034FF44042C4F20F02D2F8AC2122F4DC
:1009D0004032C3F8AC214FF44043C4F20F034FF44C
:1009E0004042C4F20F02D2F8AC21C3F8AC214FF45C
:1009F0004043C4F202034FF44042C4F202021268C0
:100A000022F470021A604FF44043C4F202034FF420
:100A10004042C4F20202126842F4A0021A604FF48B
:100A20000043C4F2090383221A73FB6803F10F0227
:100A3000002BB8BF13461B111A467B6892FBF3F3D9
:100A4000BB604FF40043C4F20903BA68120AD2B281
:100A50001A714FF40043C4F20903BA68D2B21A7093
:100A60004FF40043C4F2090303221A734FF4004306
:100A7000C4F2090307221A721437BD465DF8047BDD
:100A8000704700BF80B485B000AF786040F20003CB
:100A9000C1F200031B689B08FB604FF44043C4F2A3
:100AA0000F034FF44042C4F20F02D2F8C42042F0C8
:100AB0000072C3F8C4204FF44043C4F20F034FF454
:100AC0004042C4F20F02D2F8AC2122F44022C3F813
:100AD000AC214FF44043C4F20F034FF44042C4F240
:100AE0000F02D2F8AC21C3F8AC214FF44043C4F25A
:100AF00002034FF44042C4F20202126822F00F02D5
:100B00001A604FF44043C4F202034FF44042C4F26F
:100B10000202126842F00A021A604FF44043C4F223
:100B2000090383221A73FB6803F10F02002BB8BF7D
:100B300013461B111A467B6892FBF3F3BB604FF41C
:100B40004043C4F20903BA68120AD2B21A714FF4D0
:100B50004043C4F20903BA68D2B21A704FF440435A
:100B6000C4F2090303221A734FF44043C4F2090389
:100B700007221A721437BD465DF8047B704700BF28
:100B800080B483B000AF0346FB7100BF4FF4404315
:100B9000C4F200031B7DDBB203F02003002BF5D071
:100BA0004FF44043C4F20003FA791A700C37BD4683
:100BB0005DF8047B704700BF80B483B000AF03468C
:100BC000FB7100BF0023C4F201031B7DDBB203F005
:100BD0002003002BF6D00023C4F20103FA791A7027
:100BE0000C37BD465DF8047B704700BF80B483B00E
:100BF00000AF0346FB7100BF4FF40043C4F209038A
:100C00001B7DDBB203F02003002BF5D04FF4004333
:100C1000C4F20903FA791A700C37BD465DF8047BFB
:100C2000704700BF80B483B000AF0346FB7100BFC4
:100C30004FF44043C4F209031B7DDBB203F02003F1
:100C4000002BF5D04FF44043C4F20903FA791A702F
:100C50000C37BD465DF8047B704700BF80B483B09D
:100C600000AF00BF4FF44043C4F200031B7DDBB272
:100C700003F00103002BF5D04FF44043C4F200030E
:100C80001B78FB71FB7918460C37BD465DF8047B79
:100C9000704700BF80B483B000AF00BF0023C4F230
:100CA00001031B7DDBB203F00103002BF6D0002310
:100CB000C4F201031B78FB71FB7918460C37BD4663
:100CC0005DF8047B704700BF80B483B000AF00BF05
:100CD0004FF40043C4F209031B7DDBB203F00103B0
:100CE000002BF5D04FF40043C4F209031B78FB71CD
:100CF000FB7918460C37BD465DF8047B704700BF92
:100D000080B483B000AF00BF4FF44043C4F2090386
:100D10001B7DDBB203F00103002BF5D04FF4404301
:100D2000C4F209031B78FB71FB7918460C37BD46EA
:100D30005DF8047B704700BF80B584B000AF786079
:100D40000023FB6009E0FB687A6813441B781846AF
:100D5000FFF716FFFB680133FB60FB687A681344FA
:100D60001B78002BEFD11037BD4680BD80B584B015
:100D700000AF78600023FB6009E0FB687A681344E9
:100D80001B781846FFF718FFFB680133FB60FB6810
:100D90007A6813441B78002BEFD11037BD4680BD15
:100DA00080B584B000AF78600023FB6009E0FB6889
:100DB0007A6813441B781846FFF718FFFB68013365
:100DC000FB60FB687A6813441B78002BEFD1103767
:100DD000BD4680BD80B584B000AF78600023FB6065
:100DE00009E0FB687A6813441B781846FFF71AFF7E
:100DF000FB680133FB60FB687A6813441B78002BA7
:100E0000EFD11037BD4680BD45617379636F727451
:100E100065782055415254206578616D706C65206D
:100E200070726F6A6563740D0A00000000000000B4
:100E3000480E000000000010080000000000000044
:080E400084F2FF7F01000000B5
:080E480000E1F50500000000C7
:0400000300000741B1
:00000001FF
