:100000000C9434000C9451000C9451000C94510049
:100010000C9451000C9451000C9451000C9451001C
:100020000C9451000C9451000C9451000C9451000C
:100030000C9451000C9451000C9451000C945100FC
:100040000C9451000C9451000C9451000C945100EC
:100050000C9451000C9451000C9451000C945100DC
:100060000C9451000C94510011241FBECFEFD8E026
:10007000DEBFCDBF11E0A0E0B1E0E6ECF9E002C0E8
:1000800005900D92A832B107D9F711E0A8E2B1E0CE
:1000900001C01D92A233B107E1F70E94F5010C9453
:1000A000E1040C940000CF93C82F8A3019F48DE03E
:1000B0000E9453008091C00085FFFCCFC093C60012
:1000C000CF9108958091C00087FFFCCF8091C6003A
:1000D00008951092C50087E68093C4008EE091E0F9
:1000E00090932F0180932E0180E091E090932D0159
:1000F00080932C01E0ECF0E080818D7F808386E0AE
:100100008093C20088E18093C1000895FB01DA0169
:1001100088301CF491E0908308C080311CF4108278
:10012000885003C092E0908380518C930895A2E0A0
:10013000B0E0EDE9F0E00C942D02162FAE014F5F18
:100140005F4FBE016E5F7F4F0E948600612F61701E
:100150008A818130B1F0823031F1811135C039812D
:1001600024B181E090E0032E01C0880F0A94EAF7E1
:10017000611104C08095822384B926C0282B24B93C
:1001800023C039812AB181E090E0032E01C0880F9D
:100190000A94EAF7611104C0809582238AB914C0D9
:1001A000282B2AB911C0398127B181E090E0032EB4
:1001B00001C0880F0A94EAF7611104C08095822378
:1001C00087B902C0282B27B92296E3E00C94490294
:1001D000A2E0B0E0EEEEF0E00C942E02AE014F5F34
:1001E0005F4FBE016E5F7F4F0E9486008A81813023
:1001F00031F0823031F081110EC083B103C089B17A
:1002000001C086B190E0098002C0959587950A9457
:10021000E2F780FD02C080E001C081E02296E2E0CA
:100220000C944A02A2E0B0E0E8E1F1E00C942D0267
:10023000162FAE014F5F5F4FBE016E5F7F4F0E9472
:100240008600612F61708A818130B1F0823031F196
:10025000811135C0398125B181E090E0032E01C0C4
:10026000880F0A94EAF7613019F4282B25B927C0C2
:100270008095822385B923C039812BB181E090E03C
:10028000032E01C0880F0A94EAF7613019F4282B75
:100290002BB915C0809582238BB911C0398128B143
:1002A00081E090E0032E01C0880F0A94EAF76130E4
:1002B00019F4282B28B903C08095822388B9229687
:1002C000E3E00C9449028093290160932B01409351
:1002D000280120932A0161E00E94970061E080914B
:1002E0002B010E94970060E0809128010E949700F6
:1002F00061E080912A010E94970061E080912901CC
:100300000E94120161E080912B010E94120160E0C5
:1003100080912A010E9412018FE99FE00197F1F775
:1003200000C00000089560E0809129010E94120140
:100330000895CF93682F80912B010E94120161E0F4
:1003400080912A010E94120185E38A95F1F700004D
:100350008091280190E00E94E800C82F60E0809121
:100360002A010E9412018C2FCF9108951F93CF93E1
:10037000DF93D82FC8E080E0182F110F8D2F881F32
:100380008827881F0E949901812BDD0FC150A1F79A
:10039000DF91CF911F91089561E0809129010E9422
:1003A00012010895A1E0B0E0E8EDF1E00C942E0216
:1003B00089830E94930195E39A95F1F70000898162
:1003C0000E94B601E5E3EA95F1F700008FEF0E9485
:1003D000B601F5E3FA95F1F7000089830E94CC019C
:1003E00089812196E2E00C944A0261E088E00E9453
:1003F000970061E088E00E9412012FEF87EA91E602
:10040000215080409040E1F700C000000E94690048
:100410002DE04CE06BE08AE00E94630187E00E94DF
:10042000D2011F928F938CE191E09F938F930E9452
:1004300055020F900F900F900F90FFCF2F923F9289
:100440004F925F926F927F928F929F92AF92BF92E4
:10045000CF92DF92EF92FF920F931F93CF93DF9390
:10046000CDB7DEB7CA1BDB0B0FB6F894DEBF0FBEED
:10047000CDBF09942A88398848885F846E847D843A
:100480008C849B84AA84B984C884DF80EE80FD803C
:100490000C811B81AA81B981CE0FD11D0FB6F894B2
:1004A000DEBF0FBECDBFED010895A0E0B0E0EBE5EB
:1004B000F2E00C942E02FE01359661917191AF012C
:1004C00080912E0190912F010E946902E2E00C942C
:1004D0004A02ACE0B0E0EFE6F2E00C941E027C01D0
:1004E0006B018A01FC0117821682838181FFBDC1E5
:1004F000CE0101964C01F7019381F60193FD8591A0
:1005000093FF81916F01882309F4ABC1853239F4DF
:1005100093FD859193FF81916F01853229F4B70195
:1005200090E00E945104E7CF512C312C20E0203282
:10053000A0F48B3269F030F4803259F0833269F4E0
:1005400020612CC08D3239F0803339F4216026C00F
:100550002260246023C0286021C027FD27C030ED21
:10056000380F3A3078F426FF06C0FAE05F9E300D6F
:100570001124532E13C08AE0389E300D1124332EDF
:1005800020620CC08E3221F426FD6BC1206406C0AF
:100590008C3611F4206802C0883641F4F60193FDD0
:1005A000859193FF81916F018111C1CF982F9F7D1C
:1005B0009554933028F40C5F1F4FFFE3F9830DC06F
:1005C000833631F0833771F0833509F05BC022C088
:1005D000F801808189830E5F1F4F44244394512C7E
:1005E000540115C03801F2E06F0E711CF801A080B3
:1005F000B18026FF03C0652D70E002C06FEF7FEF72
:10060000C5012C870E9446042C0183012C852F777D
:10061000222E17C03801F2E06F0E711CF801A08085
:10062000B18026FF03C0652D70E002C06FEF7FEF41
:10063000C5012C870E943B042C012C852068222EAA
:10064000830123FC1BC0832D90E048165906B0F4AB
:10065000B70180E290E00E9451043A94F4CFF50192
:1006600027FC859127FE81915F01B70190E00E94F0
:10067000510431103A94F1E04F1A510841145104D9
:1006800071F7E5C0843611F0893639F5F80127FF96
:1006900007C060817181828193810C5F1F4F08C008
:1006A00060817181882777FD8095982F0E5F1F4F9D
:1006B0002F76B22E97FF09C0909580957095619521
:1006C0007F4F8F4F9F4F2068B22E2AE030E0A40169
:1006D0000E948304A82EA81844C0853729F42F7ED1
:1006E000B22E2AE030E025C0F22FF97FBF2E8F36E0
:1006F000C1F018F4883579F0B4C0803719F0883724
:1007000021F0AFC02F2F2061B22EB4FE0DC08B2D73
:100710008460B82E09C024FF0AC09F2F9660B92EAE
:1007200006C028E030E005C020E130E002C020E152
:1007300032E0F801B7FE07C0608171818281938148
:100740000C5F1F4F06C06081718180E090E00E5FFA
:100750001F4FA4010E948304A82EA818FB2DFF7729
:10076000BF2EB6FE0BC02B2D2E7FA51450F4B4FE69
:100770000AC0B2FC08C02B2D2E7E05C07A2C2B2D72
:1007800003C07A2C01C0752C24FF0DC0FE01EA0DB8
:10079000F11D8081803311F4297E09C022FF06C03B
:1007A0007394739404C0822F867809F0739423FDA8
:1007B00013C020FF06C05A2C731418F4530C57189A
:1007C000732C731468F4B70180E290E02C870E94C8
:1007D000510473942C85F5CF731410F4371801C0AD
:1007E000312C24FF12C0B70180E390E02C870E94D7
:1007F00051042C8522FF17C021FF03C088E590E03B
:1008000002C088E790E0B7010CC0822F867859F0CB
:1008100021FD02C080E201C08BE227FD8DE2B7011D
:1008200090E00E945104A51438F4B70180E390E0F1
:100830000E9451045A94F7CFAA94F401EA0DF11DD5
:100840008081B70190E00E945104A110F5CF3320C0
:1008500009F451CEB70180E290E00E9451043A942D
:10086000F6CFF7018681978102C08FEF9FEF2C961C
:10087000E2E10C943A02FC010590615070400110D5
:10088000D8F7809590958E0F9F1F0895FC016150B9
:10089000704001900110D8F7809590958E0F9F1FA2
:1008A00008950F931F93CF93DF93182F092FEB0118
:1008B0008B8181FD03C08FEF9FEF20C082FF10C0AE
:1008C0004E815F812C813D81421753077CF4E88182
:1008D000F9819F012F5F3F4F39832883108306C022
:1008E000E885F985812F0995892B29F72E813F818C
:1008F0002F5F3F4F3F832E83812F902FDF91CF912A
:100900001F910F910895FA01AA27283051F1203143
:1009100081F1E8946F936E7F6E5F7F4F8F4F9F4F93
:10092000AF4FB1E03ED0B4E03CD0670F781F891FD5
:100930009A1FA11D680F791F8A1F911DA11D6A0FA3
:10094000711D811D911DA11D20D009F468943F9156
:100950002AE0269F11243019305D3193DEF6CF0155
:100960000895462F4770405D4193B3E00FD0C9F71B
:10097000F6CF462F4F70405D4A3318F0495D31FD88
:100980004052419302D0A9F7EACFB4E0A6959795DB
:10099000879577956795BA95C9F7009761057105B1
:1009A00008959B01AC010A2E0694579547953795FB
:1009B0002795BA95C9F7620F731F841F951FA01D55
:0609C0000895F894FFCF3A
:1009C60000000001000000000000620000000000BE
:1009D6000002000000005300000000006C69646F14
:0809E600203D202564200A00D9
:00000001FF
