:020000040000FA
:10000000B80200106D0100007101000073010000D2
:100010007501000077010000790100000000000078
:100020000000000000000000000000007B01000054
:100030007D010000000000007F0100008101000040
:1000400083010000830100008301000083010000A0
:100050008301000083010000830100008301000090
:100060008301000083010000830100008301000080
:100070008301000083010000830100008301000070
:100080008301000083010000830100008301000060
:100090008301000083010000830100008301000050
:1000A0002909000083010000830100008301000092
:1000B0008301000083010000830100008301000030
:1000C00083010000830100008301000000F002F8BA
:1000D00000F03CF80AA090E8000C82448344AAF1A6
:1000E0000107DA4501D100F031F8AFF2090EBAE8A4
:1000F0000F0013F0010F18BFFB1A43F0010318475C
:100100005415000074150000103A24BF78C878C157
:10011000FAD8520724BF30C830C144BF04680C600D
:10012000704700000023002400250026103A28BF55
:1001300078C1FBD8520728BF30C148BF0B60704759
:100140001FB500F0D0F81FBD10B510BD00F00EFFB8
:100150001146FFF7F5FF00F00BFD00F0ACF803B41B
:10016000FFF7F2FF03BC00F0B7F8000008480047B3
:10017000FEE7FEE7FEE7FEE7FEE7FEE7FEE7FEE757
:10018000FEE7FEE703480449024A044B70470000BB
:10019000CD000000B8000010B8020010B800001038
:1001A00010B500F015FD10BD10B51348007830B142
:1001B00000F076FC01221149812000F081FB10BD86
:1001C00010B50446032C07D100F06AFC01220B494C
:1001D000812000F075FB00BF00BF10BD7047704765
:1001E0007047704770477047704770477047704757
:1001F00070477047704770472B00001024000010B4
:1002000010B52548C078012804D0022809D0032859
:100210000BD108E000F044FC204800782049087029
:1002200003E0002010BD0020FCE700BF0120F9E73B
:1002300010B51948C078012804D0022804D003283A
:100240000BD108E0002010BD154800781549087052
:1002500000F05BFC01E00020F5E700BF0120F2E7C1
:100260000D4880781049085C0D49087001207047DE
:100270000948C078084989780B4A505401207047D2
:100280000A480078064908700120704702488078C3
:1002900006490870012070474C000010240000102F
:1002A0003A00001025000010270000102600001062
:1002B0007047704770470446AFF300802046FFF751
:1002C0004EFF00000048704754000010014870477E
:1002D000704700BF5800001001491820ABBEFEE770
:1002E00026000200704710B5FFF7F0FF4FF0000145
:1002F000016010BD0000000000000000FFFFFFFFD4
:1003000020208449086000BF8248006810F0400F38
:10031000FAD00320804908604FF000007F49C1F8FF
:10032000A8017F4908604FF001007E4908604FF046
:100330000B007D4908604FF00100A1F10401086045
:100340004FF0AA00794908604FF055007349C1F891
:100350008C0000BF7648006810F0806FFAD0032050
:10036000744908604FF0AA006C49C1F88C004FF046
:1003700055006E4908604FF023006F4908604FF048
:100380000100A1F1040108604FF0AA006B49086068
:100390004FF05500086000BF6948006810F4806F96
:1003A000FAD00320674908604FF0AA005B49C1F802
:1003B000AC004FF05500614908606348634908602C
:1003C0004FF000005549C1F8C8010846D0F8880030
:1003D000C0F30160032868D15248006810F00300A0
:1003E00006D0012823D002283FD003285CD100E0AA
:1003F00000BF4F480068C0F30E0000F101004FEA53
:1004000040014648D0F88800C0F3074000F10100E1
:10041000B1FBF0F04E4900FB01F03F490968C9B259
:1004200001F10101B0FBF1F04A4908603CE04048AD
:100430000068C0F30E0000F101004FEA40013748A8
:10044000D0F88800C0F3074000F10100B1FBF0F0E4
:10045000414900FB01F030490968C9B201F10101CD
:10046000B0FBF1F03B4908601EE031480068C0F382
:100470000E0000F101004FEA40012848D0F8880042
:10048000C0F3074000F10100B1FBF0F04FF4FA4176
:1004900000FB01F020490968C9B201F10101B0FB7C
:1004A000F1F02C49086000BF2FE01E48006810F0F2
:1004B000030006D0012810D0022819D0032823D128
:1004C00000E000BF14480068C0B200F101002049FC
:1004D000B1FBF0F01F49086016E00F480068C0B299
:1004E00000F101001C49B1FBF0F01A4908600BE073
:1004F00009480068C0B200F101004FF4FA41B1FBB5
:10050000F0F01449086000BF00BF43F23A0003490D
:1005100008607047A0C10F4004C10F4000C00F40E9
:10052000ACC10F400CC10F4084C00F408CC00F40C5
:1005300088C00F4080C00F40A4C00F40ACC00F4027
:10054000A8C00F40A0C00F40DE872804C4C00F40E1
:1005500000093D0000000010001BB70001460A071B
:10056000D00E11F0800F00D0401C70471021FF4AC0
:100570001160FF49C1F8100200BFFE49096811F07F
:10058000100FFAD070471022F84B1A60F84AC2F8E0
:10059000100200BFF74A126812F0100FFAD01022B2
:1005A000F24B1A60F24AC2F8101200BFF14A126808
:1005B00012F0100FFAD0704710B504460B46102009
:1005C000EA4908602046FFF7C9FF4FF4A06141EAFD
:1005D0000040E749C1F8100200BFE648006810F08B
:1005E000100FFAD01020E1490860E148C0F810323D
:1005F00000BFE048006810F0100FFAD010BD0146AF
:100600003020DA4A1060DA48C0F8101200BFD9482A
:10061000006810F0200FFAD0D7480068704710B576
:10062000044644F080004FF4807242EA0041D3480F
:10063000FFF7A9FF44F080004FF4807242EA0041C6
:10064000CE48FFF7A0FF10BD0020CD4908604FF055
:100650000800C749C1F84C024FF00100C8490860C2
:100660004FF00800C249C1F84C0200BFC148006801
:1006700010F4807FFAD04FF0FF30C2490860BC49C7
:10068000C1F83402B94908604FF00C00B849C1F80C
:100690000402704700B5BC48406820F07050BA4969
:1006A00048600846406840F0A05048600846C0686E
:1006B000B6490840B449C8600846C068B449084310
:1006C000B149C8600846006920F440200861084626
:1006D000006940F480200861AE48006840F00040A6
:1006E000AD49C1F8C4004FF01A00AC49086000BF22
:1006F000AB48006800F01A001A28F9D100BF182092
:100700000121814040094FF0E02202EB8000C0F857
:10071000001100BFFFF798FF0020FFF780FF00BD2A
:1007200010B504460CB1012000E000204FF48072A7
:1007300042EA00419B48FFF726FF10BD7047704713
:1007400000B59948008810F0020F03D097499548EA
:10075000FFF719FF00BD704710B504460CB101202A
:1007600000E000204FF4807242EA00419048FFF719
:100770000AFF03208F49086000BF7E48006810F41C
:10078000807FFAD04FF480707849086010BD10B5B2
:1007900003469878FFF7E2FE0446864800684FF06B
:1007A000010101FA04F140EA01007149C1F8440273
:1007B000734804609888C1F84C0200BF6D48006817
:1007C00010F4807FFAD04FF480706849086010BD43
:1007D000704730B504462046FFF7C0FE764941EA2F
:1007E000004589132846FFF7CEFE30BD30B50446DC
:1007F0002046FFF7B3FE704941EA00456F4928469D
:10080000FFF7C1FE30BD30B504462046FFF7A6FE17
:10081000694941EA004589132846FFF7B4FE30BD17
:1008200030B504462046FFF799FE634941EA00458A
:100830005E492846FFF7A7FE30BD30B50446204686
:10084000FFF78CFE5C4941EA004589132846FFF713
:100850009AFE30BD10B5044659492046FFF7ACFE5C
:1008600010BDF0B505460F4605F00F00012101EB64
:1008700080005449086000BF5348046814F4006FB6
:10088000FAD0C4F30904002606E050480068386036
:1008900007F1040706F10106E01CB6EB900FF4D354
:1008A00000204849086041F2482040FA05F010F065
:1008B000010F03D142492846FFF77EFE2046F0BDD6
:1008C000F0B506460D46144606F00F00022101EB76
:1008D00080003C4908602648C0F824424FF00007D9
:1008E00006E028683A49086005F1040507F10107A8
:1008F000E01CB7EB900FF4D3002032490860354973
:100900003046FFF759FE2046F0BD00B53248FFF7EC
:100910002DFE3248FFF773FE03463048FFF76FFEA7
:1009200043EA0023184600BD2DE9F0471148D0F8EE
:10093000009019F0080F58D008200C490860194899
:10094000FFF714FE2648FFF75AFE054615F0100F74
:1009500003D0FFF779FEFFF723FC15F0080F43D013
:1009600015F0040F3ED0FFF7E9FE3DE008C200504D
:1009700000C0005000C2005014C200500005D0005A
:1009800048C2005038C2005000C00240CFFFFFCF25
:1009900010000020C4C00F4000C00F40F4CF005032
:1009A000F8CF00500005FE002800001000010100F3
:1009B0000005D80044C2005000054000000120009E
:1009C0000005F20028C2005020C2005018C200509A
:1009D0001CC200500005FA000005F5000002F500F9
:1009E0000002FE00FFF7ABFE4CE019F0040F48D008
:1009F0004FF00008244807684FF000043BE04745EB
:100A000000D13AE00120A040384232D00120A0407D
:100A100040EA080866080120A0401C49086000BFA1
:100A20001B48006810F0200FFAD01A48056814F02F
:100A3000010F15D154B915F0040F07D016480068FE
:100A400020B1154801680120884713E0124850F88A
:100A5000260070B1104850F826100220884708E0A0
:100A60000D4850F8260020B10B4850F826100320FE
:100A7000884700BF641C202CC1D300BF0420074955
:100A8000086000BFBDE8F08730C2005038C2005097
:100A900000C2005014C200504C15000008C20050A3
:100AA0004649496B792202EA11500021444A1170EB
:100AB00010F0100F04D11146097841F001011170B6
:100AC00010F0080F05D13E49097841F002013C4A77
:100AD000117010F0200F05D13949097841F0040157
:100AE000374A117010F0010F05D13549097841F0EE
:100AF0000801334A117010F0400F05D130490978D0
:100B000041F010012E4A1170704700202DE00121A4
:100B100081402C4A1278114213D0032808DA274961
:100B2000496B294A52F820201143244A51631BE0A3
:100B30002249496D244A52F8202011431F4A516529
:100B400012E0032808DA1D49496B1F4A52F8202099
:100B500091431A4A516307E01849496D1A4A52F8FD
:100B600020209143154A5165401C0828CFDB70476F
:100B70001248006A40F03040104908620846006C94
:100B800040F07C0008640846006A20F0F2600862C9
:100B90000E48006840F08050C1F880000846D0F848
:100BA000940020F08050C1F89400FFF7A9FBFFF7F4
:100BB00071FD0120FFF7B4FD00BFFEE700C0092072
:100BC00024000010250000100400001080C009203F
:100BD0000020DB490880DB490870DB4908704FF0D2
:100BE0000110DA4908600020D9490860D949086035
:100BF000704710B5D8490020FFF733FE10BD10B57F
:100C0000D6488088082801DD082401E0D34884887C
:100C1000D248224601688020FFF752FE0446CF48A2
:100C200000682044CD49086008468088001B888001
:100C300010BD10B5C94801680020FFF712FE044638
:100C4000C64800682044C549086008468088001BE3
:100C5000888010BD10B5002211468020FFF730FEBD
:100C600010BD10B5BE490020FFF7FBFD10BD10B54B
:100C70000446082C6FD2DFE804F06E04F0EF6E6ECD
:100C8000EEEDFFF7B6FFB4490978C809FFF7A0FDFC
:100C9000B148C088B1498880AF480078C0F341109E
:100CA00010B101287BD192E0AB4840780C2877D274
:100CB000DFE800F0060D8A158A1D333A41555E8340
:100CC00000F0FCF900B9D7E0FFF799FF7DE00020C4
:100CD00000F054FA00B9CFE0FFF7BCFF75E0012047
:100CE00000F04CFA00B9C7E0FFF7B4FF6DE000BFB9
:100CF00099480078C0F3040030B99748807840F0F4
:100D000080009049087001E0002001E000BF012050
:100D100000B9B1E0FFF79EFF57E000F04DF900B9D0
:100D2000AAE0FFF76CFF50E00020FFF779FD0020FC
:100D30008A49888049E000BF87480078C0F30400F2
:100D400018B981488549086001E0002001E000BF32
:100D5000012008B990E0F0E0FFF751FF35E000F026
:100D600083FA00B988E0FFF775FFFFF71DFA2CE062
:100D700000BF79480078C0F30400012814D17248FC
:100D8000007870B17448007976490978884208DAA9
:100D900071480079744908447049086003E06AE0CA
:100DA00012E0002004E001E0002001E000BF01208B
:100DB00000B961E0FFF723FF07E000F02FFB00B967
:100DC0005AE0FFF747FF00E056E000BF5BE06248F3
:100DD0000078C0F3040020B1012803D0022848D1D4
:100DE00046E049E05C48007998BB5B4840780C28B5
:100DF0003CD2DFE800F03B0614253B3B3B3B3B107D
:100E00001E34FFF7FDF928B1554854490860FFF733
:100E1000F6FE2FE02AE05248504908602AE0FFF72A
:100E20001FFA28B14E484D490860FFF7E8FE21E05F
:100E30001CE0FFF71DFA10B1FFF70CFF1AE015E0F8
:100E4000FFF71EFA50B1464844490860FFF7D7FE45
:100E500010E00CE06DE068E04FE016E006E0FFF720
:100E600015FA10B1FFF7F6FE04E000BF00BF03E083
:100E700002E001E007E000BF8020FFF7D1FC002086
:100E80003649888000BF00BF57E033480078C0096A
:100E900030D13248808860B3FFF7CBFE2F4880887E
:100EA00038BB2D480078C0F3411010B101281FD184
:100EB00000E0E1E728480078C0F3040020B10128F1
:100EC00003D0022812D110E0D6E72348007958B9A0
:100ED00021484078092806D1FFF7AAF910B1FFF799
:100EE000B9FE04E000BF00BFC6E7C5E7C4E700E005
:100EF000C2E701E0FFF7B5FE1FE017480078C00920
:100F0000012802D1FFF77BFE0EE00E48007810F0BA
:100F1000800F09D00B48007800F07F000949087065
:100F200008460078FFF77BFB07E00020FFF785FC11
:100F300003E08020FFF781FC00BF00BF10BD000070
:100F4000280000102A0000102B0000102C000010B8
:100F500030000010340000104C000010440000105D
:100F60003A00001038000010390000107546FFF7F5
:100F7000A9F9AE4605006946534620F007008546AC
:100F800018B020B5FFF7FEF8BDE820404FF000068E
:100F90004FF000074FF000084FF0000B21F0070161
:100FA000AC46ACE8C009ACE8C009ACE8C009ACE8A4
:100FB000C0098D467047000010B539480078C0F36D
:100FC000040010B1012860D13AE03548C07801280A
:100FD00004D0022807D003282ED118E03148324C23
:100FE000206012222AE03149002304E0087808B189
:100FF000488801445B1C2A4880789842F6D10878DA
:1010000008B9002010BD284801604A8816E0284928
:10101000002304E0087808B1087801445B1C2048EC
:1010200080789842F6D1087808B90020EAE71E488F
:1010300001600068027801E00020E3E700BF26E0DD
:101040001748C078212804D022280DD0232818D191
:1010500015E01348007908B10020D3E71348123097
:10106000114C206009220EE00D48007908B10020E3
:10107000C8E710480C4C20600F48028803E00020AD
:10108000C0E70020BEE700BF01E00020BAE700BFD4
:1010900005488088904201D9034CA2800120B1E725
:1010A0004C000010BA15000044000010CC150000E0
:1010B000EF1500008C150000B815000027480078D7
:1010C000C0F3040020B1012806D0022841D116E067
:1010D0002348244B18603EE02348007860B11F4845
:1010E0000079224B1B78984206DA0020204B1880AA
:1010F00018461C4B186001E0002070472BE0174891
:10110000007900F08F0111F0800F05D001F00F037E
:101110004FF48030984001E0012088400246124898
:10112000007810B911F00F0F10D11248006810426A
:101130000CD011480068104201D0012000E00020CE
:101140000B4B18801846074B186001E00020D4E7CD
:1011500001E00020D1E700BF0120CEE74C000010E5
:1011600028000010440000102B0000103800001070
:101170003A0000102C0000103000001070B5064638
:1011800033480078C0F3040020B101281DD00228A4
:1011900058D11CE02E484088012813D146B1FFF7F2
:1011A000DAFA2C48008840F002002A4908800BE057
:1011B0000020FFF7D0FA2748008820F002002549D8
:1011C000088001E0002070BD3EE00020FBE72048E1
:1011D000007900F08F0414F0800F05D004F00F01A7
:1011E0004FF48030884001E00120A04005461A48B5
:1011F000007820B314F00F0F21D01848006828425F
:101200001DD013484088C0B946B12046FFF708FBFF
:101210001348006828431249086012E0114800682A
:10122000284201D00120CEE72046FFF706FB0C48FC
:101230000068A8430A49086003E00020C3E70020D3
:10124000C1E701E00020BEE700BF0120BBE70000CE
:101250004C000010280000102B0000102C00001083
:1012600030000010340000102DE9F04100266248E3
:101270000078C0F30400F0BB5F488078E0B35F4DB6
:101280007EE06878022804D0042854D0052873D161
:1012900053E0687958498978884248D1564880781F
:1012A00057490870287957490870002403E0002046
:1012B00055490855641C002CF9D0012414E0012084
:1012C000A04052490968084202D02046FFF78EFA32
:1012D0004FF48030A0404D490968084203D044F0E3
:1012E0008000FFF783FA641C102CE8D34FF0011044
:1012F0004649086001E079E047E000204449086081
:10130000444908600120FFF727FAE87910F0400F00
:1013100006D04148008840F001003F49088009E0BC
:101320003D48008820F001003B49088002E06888C1
:10133000054425E020E0EE781EE0E6B9A87800F04C
:101340008F0414F0800F05D004F00F014FF48030AB
:10135000884001E00120A04007462C48006838433F
:101360002A4908602846FFF712FA2046FFF731FAAB
:101370002046FFF748FA00BF00BF2878054400BFA9
:10138000287800287FF47DAF26E000201C490870F3
:10139000012414E00120A0401C490968084202D041
:1013A0002046FFF723FA4FF48030A0401749096820
:1013B000084203D044F08000FFF718FA641C102C98
:1013C000E8D34FF00110114908600020104908606F
:1013D00010490860FFF7C0F9074880780849097884
:1013E000884202D00020BDE8F08101E00020FAE749
:1013F00000BF0120F7E700004C000010CC150000F2
:101400002B00001038000010390000102C000010D4
:101410003000001034000010280000102DE9F05FAB
:101420000027B846BB46B94642480078C0F30400DE
:10143000012879D14048007810B90020BDE8F09F1C
:101440004FF0000A3D4C6AE06078022804D004287E
:101450000BD005285FD11EE06079374909788842B2
:1014600002D0608804445AE055E0A77894F80380DD
:101470004FF000092F480079B8420BD12D488078F1
:10148000404507D14FF0010A2D4810F807B001463A
:1014900001F807803FE027480079B8423AD1A078A8
:1014A00000F08F0616F0800F05D006F00F014FF404
:1014B0008030884001E00120B04005461D4880781A
:1014C000404515D11F48006828431E4908601E4842
:1014D0000068A8431C4908602046FFF758F93046C9
:1014E000FFF777F93046FFF78EF949EA050911E071
:1014F000D8450FD119EA050F0CD112480068A8434E
:101500001049086010480068A8430F490860304639
:10151000FFF76CF900BF00BF2078044400BF2078BB
:10152000002891D102E0FFE7002087E700BF504686
:1015300084E700004C0000102B000010CC150000C8
:10154000390000102C000010300000106F0C00005B
:10155000C1010000000000000000000000000000C9
:10156000000000000000000000000000000000007B
:10157000000000000000000000000000000000006B
:101580000000000000000000000000000600FF094D
:1015900001A101050919012903150025019503750C
:1015A0000181029501750581010508094B1500258A
:1015B00001950875019102C02C0012010002000083
:1015C0000008C91F02800001010203010902220074
:1015D0000101008032090400000103000004092118
:1015E00000010001222C00070581030400200004F3
:1015F0000309041C034E005800500020005300450E
:10160000004D00490043004F004E004400200022DE
:10161000034C005000430031003700780078002070
:1016200000550053004200200048004900440020BB
:10163000001A03440045004D004F003000300030D8
:10164000003000300030003000300008034800490E
:101650000044000074160000000000105400000058
:1016600008010000C81600005400001064020000C9
:101670002401000000093D000000001000000020CF
:1016800000000080040000000800000010000000BE
:1016900020000000400000000000000000000000EA
:1016A000000000000000000000000000000000003A
:1016B000000000000000000000000000000000002A
:0816C000000000000000000022
:04000005000000CD2A
:00000001FF
