:100000000C9434000C9453000C9451000C94510047
:100010000C9451000C9451000C9451000C9451001C
:100020000C9451000C9451000C9451000C9451000C
:100030000C9451000C9451000C9451000C945100FC
:100040000C9451000C9451000C9451000C945100EC
:100050000C9451000C9451000C9451000C945100DC
:100060000C9451000C94510011241FBECFEFD8E026
:10007000DEBFCDBF11E0A0E0B1E0E6E2F0E102C0FA
:1000800005900D92A037B107D9F721E0A0E7B1E0C4
:1000900001C01D92A239B207E1F70E94DF040C945F
:1000A00011080C9400001F920F920FB60F921124AA
:1000B0002F933F934F935F936F937F938F939F9370
:1000C000AF93BF93EF93FF93E0917101F0917201B1
:1000D0000995FF91EF91BF91AF919F918F917F9182
:1000E0006F915F914F913F912F910F900FBE0F90A5
:1000F0001F90189522E02093690021E02DBB90937A
:10010000720180937101089561E0809173010E94F2
:100110005004089560E0809173010E945004089596
:10012000F89420917001222389F0FC0180E090E096
:10013000DC01AC58BE4F2C9121930196883091057B
:10014000B9F71092700181E07894089580E0789476
:100150000895A3E0B0E0EFEAF0E00C942205062F4A
:100160004A835B8389830E946C0389810E947803A0
:100170004A815B81002381F07A01015010E00F5F1A
:100180001F4F0E0D1F1D80E00E947803F701819321
:100190007F01E017F107B9F70E9472032396E6E0AA
:1001A0000C943E050E946C0381EE0E9478030E942D
:1001B00072030895A3E0B0E0E0EEF0E00C942205B5
:1001C000062F4A835B8389830E946C038981806246
:1001D0000E9478034A815B81002379F07A01015003
:1001E00010E00F5F1F4F0E0D1F1DF70181917F0162
:1001F0000E947803E016F106C1F70E94720323966D
:10020000E6E00C943E05A1E0B0E0E9E0F1E00C94FA
:10021000240560E0809173010E9450040E946C03E9
:1002200081E60E94780300E010E08FEF0E947803DF
:10023000F801EC58FE4F808380810F5F1F4F06301E
:10024000110599F78FEF0E9478038FEF0E947803D2
:1002500081E0809370010E9472030E946C0382EE21
:100260000E9478030E94720380E78983AE014F5F8A
:100270005F4F61E087E00E94DA0061E080917301E6
:100280000E9450048FE99FE00197F1F700C0000041
:100290002196E4E00C944005A5E0B0E0E2E5F1E051
:1002A0000C942505162F89838A838B83AE014F5FBB
:1002B0005F4F63E08AE00E94DA0019831A831B8390
:1002C000AE014F5F5F4F63E080E10E94DA00259648
:1002D000E3E00C944105A1E0B0E0E1E7F1E00C942B
:1002E0002605AE014F5F5F4F60E081E00E94A900EC
:1002F00089818C7F82608983AE014F5F5F4F61E0AF
:1003000080E00E94DA0087E592E00197F1F700C0F3
:1003100000002196E2E00C944205A1E0B0E0E3E9A0
:10032000F1E00C942605AE014F5F5F4F61E080E085
:100330000E94A900898183608983AE014F5F5F4F6E
:1003400061E080E00E94DA008AE68A95F1F700C059
:100350002196E2E00C944205A2E0B0E0E2EBF1E08D
:100360000C942005F82EF89460E0809173019A8334
:100370000E9450040E946B010E946C0381EE0E9457
:1003800078030E9472030E946C0380EA0E94780343
:100390000F2D9A81192F680186E0C80ED11CEE241A
:1003A000EA94F12CF80181918F01E80EF11C0E9472
:1003B00078030C151D05B1F78F2D0E9478038E2D43
:1003C0000E9478030E9472038FE39CE90197F1F782
:1003D00000C0000061E0809173010E9450049AE621
:1003E0009A95F1F700C060E0809173010E9450047B
:1003F000EFE3FCE93197F1F700C000000E948D01A6
:1004000061E0809173010E94500480E789838FE945
:100410009FE00197F1F700C00000AE014F5F5F4F12
:1004200061E087E00E94DA0078942296E8E00C947C
:100430003C05A1E0B0E0EFE1F2E00C942605AE014E
:100440004F5F5F4F61E080E00E94A90085E38A95DD
:10045000F1F700000E946B010E946C0381EE0E9484
:1004600078030E9472030E948D010E946C0382EE49
:100470000E9478030E947203AE014F5F5F4F61E0FC
:1004800080E00E94DA002196E2E00C944205A1E0AF
:10049000B0E0EDE4F2E00C94260589830E946C0341
:1004A00089810E94780380E00E94780389830E94FA
:1004B000720389812196E2E00C944205A1E0B0E04C
:1004C000E4E6F2E00C94260580E00E9447028D7F6E
:1004D0008983AE014F5F5F4F61E080E00E94DA00E8
:1004E0002196E2E00C944205A1E0B0E0EAE7F2E0F8
:1004F0000C94260580E00E94470282608983AE0149
:100500004F5F5F4F61E080E00E94DA002196E2E0F9
:100510000C944205A5E0B0E0E0E9F2E00C9424057B
:100520002FEF81EE94E0215080409040E1F700C031
:1005300000002DE04BE06CE08AE00E943E0308E002
:100540000093730161E088E00E94CC0360E0809139
:1005500073010E9450040E945E022FEF85EA9EE024
:10056000215080409040E1F700C000000E94190235
:1005700011E01983AE014F5F5F4F61E082E00E949E
:10058000DA001982AE014F5F5F4F61E081E00E94A7
:10059000DA001983AE014F5F5F4F61E083E00E9494
:1005A000DA001983AE014F5F5F4F61E085E00E9482
:1005B000DA001982AE014F5F5F4F61E084E00E9474
:1005C000DA0086E28983AE014F5F5F4F61E086E02B
:1005D0000E94DA0080E189838A838B83AE014F5FBA
:1005E0005F4F63E08AE00E94DA0080E289838A83B9
:1005F0008B83AE014F5F5F4F63E080E10E94DA00C2
:100600000983AE014F5F5F4F61E081E10E94DA0034
:1006100080E78983AE014F5F5F4F61E087E00E9412
:10062000DA0081E18983AE014F5F5F4F61E087E1CE
:100630000E94DA0083E091E00E947A0087E38983D8
:10064000AE014F5F5F4F61E080E00E94DA000E94E0
:1006500019020E94740261E0809173010E945004AB
:100660002FEF83EC99E0215080409040E1F700C0EB
:10067000000078942596E4E00C944005809389016D
:100680006093880140938B0120938A0161E00E946E
:10069000CC0360E0809188010E94CC0361E08091EE
:1006A0008B010E94CC0361E080918A010E94CC03FF
:1006B00060E080918A010E94500461E0809189018C
:1006C0000E9450042FEF83ED90E321508040904032
:1006D000E1F700C00000089560E0809189010E9468
:1006E0005004089561E0809189010E9450040895AA
:1006F000EF92FF920F931F93CF93E82EF12C07E018
:1007000010E0C0E0B701002E02C0759567950A940D
:10071000E2F7617080918B010E94500461E080914A
:100720008A010E94500487EC90E00197F1F700C025
:1007300000008091880190E00E942904CC0FC82B12
:1007400060E080918A010E94500487EC90E001975C
:10075000F1F700C0000001501109A0F68C2FCF91D5
:100760001F910F91FF90EF90089588307CF08031B9
:100770003CF092E0FB0190838051FA018083089560
:10078000FB0110828850FA018083089591E0FB01FB
:100790009083FA0180830895883084F460FD20C03E
:1007A0004AB121E030E0B90102C0660F771F8A9597
:1007B000E2F7CB01809584238AB908958031ECF06B
:1007C000805160FF38C047B121E030E0B90102C07C
:1007D000660F771F8A95E2F7CB01842B87B90895BE
:1007E0004AB121E030E0B90102C0660F771F8A9557
:1007F000E2F7CB01842B8AB90895885060FD0EC0C2
:1008000044B121E030E0B90102C0660F771F8A953C
:10081000E2F7CB018095842384B9089544B121E0A7
:1008200030E0B90102C0660F771F8A95E2F7CB016D
:10083000842B84B9089547B121E030E0B90102C0AA
:10084000660F771F8A95E2F7CB018095842387B9DD
:10085000089588305CF429B130E0A90102C05595B3
:1008600047958A95E2F7CA0181700895803164F056
:1008700026B130E08051A90102C0559547958A956F
:10088000E2F7CA018170089523B130E08850A901D0
:1008900002C0559547958A95E2F7CA01817008957F
:1008A000883084F460FD32C04BB121E030E0B90102
:1008B00002C0660F771F8A95E2F7CB0180958423EB
:1008C0008BB9089580318CF0805160FD39C048B1FA
:1008D00021E030E0B90102C0660F771F8A95E2F788
:1008E000CB018095842388B90895885060FD1BC092
:1008F00045B121E030E0B90102C0660F771F8A954B
:10090000E2F7CB018095842385B908954BB121E0AE
:1009100030E0B90102C0660F771F8A95E2F7CB017C
:10092000842B8BB9089545B121E030E0B90102C0B4
:10093000660F771F8A95E2F7CB01842B85B908955E
:1009400048B121E030E0B90102C0660F771F8A95F7
:10095000E2F7CB01842B88B90895CF93C82F8A3052
:1009600041F09091C00095FFFCCFC093C600CF919D
:1009700008958DE00E94AD04F4CF8091C00087FF00
:10098000FCCF8091C60008951092C50087E6809341
:10099000C400ECE8F1E08EE091E09383828380E094
:1009A00091E091838083E0ECF0E080818D7F808313
:1009B00086E08093C20088E18093C1000895A4E19D
:1009C000B0E0E5EEF4E00C9423050E94C4040E941C
:1009D0008A028CE191E00E94630564E18AE00E9452
:1009E0004C0108E211E08BE1F82ECE0101960E9445
:1009F00090008823D1F38A811F928F9389811F925F
:100A00008F931F930F930E944D05F9821A828BE5F5
:100A100091E00E946305CE0101960E94AC010F9007
:100A20000F900F900F900F900F90DFCF2F923F926B
:100A30004F925F926F927F928F929F92AF92BF92EE
:100A4000CF92DF92EF92FF920F931F93CF93DF939A
:100A5000CDB7DEB7CA1BDB0B0FB6F894DEBF0FBEF7
:100A6000CDBF09942A88398848885F846E847D8444
:100A70008C849B84AA84B984C884DF80EE80FD8046
:100A80000C811B81AA81B981CE0FD11D0FB6F894BC
:100A9000DEBF0FBECDBFED010895A0E0B0E0E3E5FD
:100AA000F5E00C942605AE014B5F5F4FFA016191B2
:100AB0007191AF0180918E0190918F010E949305F9
:100AC000E2E00C9442050F931F93CF93DF93E091E4
:100AD0008E01F0918F01238121FF1BC08C01D0E09A
:100AE000C0E0F80181918F0160918E0170918F01BA
:100AF000DB011896ED91FC911997882331F0099547
:100B0000892B79F3DFEFCFEFECCF8AE00995892BC2
:100B100019F08FEF9FEF02C08D2F9C2FDF91CF91A7
:100B20001F910F910895ACE0B0E0E9E9F5E00C9475
:100B300016057C016B018A01FC01178216828381F4
:100B400081FFBDC1CE0101964C01F7019381F601F1
:100B500093FD859193FF81916F01882309F4ABC1C7
:100B6000853239F493FD859193FF81916F01853230
:100B700029F4B70190E00E947B07E7CF512C312C7C
:100B800020E02032A0F48B3269F030F4803259F04A
:100B9000833269F420612CC08D3239F0803339F40E
:100BA000216026C02260246023C0286021C027FD68
:100BB00027C030ED380F3A3078F426FF06C0FAE04F
:100BC0005F9E300D1124532E13C08AE0389E300DE5
:100BD0001124332E20620CC08E3221F426FD6BC10D
:100BE000206406C08C3611F4206802C0883641F4B7
:100BF000F60193FD859193FF81916F018111C1CF22
:100C0000982F9F7D9554933028F40C5F1F4FFFE37E
:100C1000F9830DC0833631F0833771F0833509F0E5
:100C20005BC022C0F801808189830E5F1F4F44247E
:100C30004394512C540115C03801F2E06F0E711C21
:100C4000F801A080B18026FF03C0652D70E002C0CE
:100C50006FEF7FEFC5012C870E9470072C01830185
:100C60002C852F77222E17C03801F2E06F0E711CF1
:100C7000F801A080B18026FF03C0652D70E002C09E
:100C80006FEF7FEFC5012C870E9465072C012C8533
:100C90002068222E830123FC1BC0832D90E0481680
:100CA0005906B0F4B70180E290E00E947B073A94C5
:100CB000F4CFF50127FC859127FE81915F01B701F3
:100CC00090E00E947B0731103A94F1E04F1A5108EE
:100CD0004114510471F7E5C0843611F0893639F5B5
:100CE000F80127FF07C060817181828193810C5FC9
:100CF0001F4F08C060817181072E000C880B990B73
:100D00000E5F1F4F2F76722E97FF09C0909580952A
:100D1000709561957F4F8F4F9F4F2068722E2AE00C
:100D200030E0A4010E94B307A82EA81844C085375C
:100D300029F42F7EB22E2AE030E025C0F22FF97F71
:100D4000BF2E8F36C1F018F4883579F0B4C08037E3
:100D500019F0883721F0AFC02F2F2061B22EB4FEDA
:100D60000DC08B2D8460B82E09C024FF0AC09F2FB0
:100D70009660B92E06C028E030E005C020E130E0E2
:100D800002C020E132E0F801B7FE07C06081718146
:100D9000828193810C5F1F4F06C06081718180E06A
:100DA00090E00E5F1F4FA4010E94B307A82EA81861
:100DB000FB2DFF777F2E76FE0BC0372D3E7FA514CF
:100DC00050F474FE0AC072FC08C0372D3E7E05C088
:100DD000BA2C372D03C0BA2C01C0B52C34FF0DC07E
:100DE000FE01EA0DF11D8081803311F4397E09C0C6
:100DF00032FF06C0B394B39404C0832F867809F001
:100E0000B39433FD13C030FF06C05A2CB31418F44A
:100E1000530C5B18B32CB31468F4B70180E290E074
:100E20003C870E947B07B3943C85F5CFB31410F444
:100E30003B1801C0312C34FF12C0B70180E390E0B1
:100E40003C870E947B073C8532FF17C031FD03C001
:100E500088E790E002C088E590E0B7010CC0832FDE
:100E6000867859F031FF02C08BE201C080E237FD85
:100E70008DE2B70190E00E947B07A51438F4B7011A
:100E800080E390E00E947B075A94F7CFAA94F40184
:100E9000EA0DF11D8081B70190E00E947B07A1104F
:100EA000F5CF332009F451CEB70180E290E00E94E3
:100EB0007B073A94F6CFF7018681978102C08FEFC6
:100EC0009FEF2C96E2E10C943205FC0105906150F5
:100ED00070400110D8F7809590958E0F9F1F089550
:100EE000FC016150704001900110D8F780959095F9
:100EF0008E0F9F1F08950F931F93CF93DF93FB01D6
:100F0000238121FD03C08FEF9FEF28C022FF16C071
:100F100046815781248135814217530744F4A081CB
:100F2000B1819D012F5F3F4F318320838C932681B8
:100F300037812F5F3F4F3783268310C0EB01092F86
:100F4000182F0084F185E02D0995892BE1F68E811B
:100F50009F8101969F838E83812F902FDF91CF9168
:100F60001F910F910895FA01AA27283051F12031DD
:100F700081F1E8946F936E7F6E5F7F4F8F4F9F4F2D
:100F8000AF4FB1E03ED0B4E03CD0670F781F891F6F
:100F90009A1FA11D680F791F8A1F911DA11D6A0F3D
:100FA000711D811D911DA11D20D009F468943F91F0
:100FB0002AE0269F11243019305D3193DEF6CF01EF
:100FC0000895462F4770405D4193B3E00FD0C9F7B5
:100FD000F6CF462F4F70405D4A3318F0495D31FD22
:100FE0004052419302D0A9F7EACFB4E0A695979575
:100FF000879577956795BA95C9F70097610571054B
:1010000008959B01AC010A2E069457954795379594
:101010002795BA95C9F7620F731F841F951FA01DEE
:061020000895F894FFCFD3
:1010260000000001000000000000BD0400000000F8
:10103600000200000000AD04000000005365727657
:1010460069646F722E2E2E005365727669646F7214
:101056002072656365626575206D736720706172C5
:1010660061206174656E6465722061206D657361CF
:101076003D25642069643D25640A00456E766961F4
:10108600206120636F6E6669726D6163616F000037
:00000001FF
