:100000000C943D000C94D9030C9465000C9465008D
:100010000C9465000C9465000C9465000C946500CC
:100020000C9465000C9465000C9465000C946500BC
:100030000C9465000C9465000C9465000C946500AC
:100040000C94B1050C9465000C9465000C9465004B
:100050000C9465000C9465000C9465000C9465008C
:100060000C9465000C9465006364696E6F70737521
:1000700078585B003108B108B60811241FBECFEFD5
:10008000D8E0DEBFCDBF11E0A0E0B1E0E6E8F0E2ED
:1000900002C005900D92A837B107D9F721E0A8E773
:1000A000B1E001C01D92A83BB207E1F710E0CDE33B
:1000B000D0E004C02197FE010E94F208CA33D107A4
:1000C000C9F70E943A080C9441100C940000FC01FE
:1000D000108212821182148213820895FC018181A0
:1000E0000895EF92FF920F931F93CF93DF93DC015C
:1000F00011962D913C911297232B49F1EC01EB8144
:10010000FC8100E010E0309711F1218191A182A1E2
:100110002130C9F429813A81215031093A83298358
:100120000115110519F49B838C8306C0D8019196A3
:100130009C93919792968C93E1A0F2A0CF010E949C
:100140008D09F701E0CF8F01E92FF82FDCCFCDB774
:10015000DEB7E6E00C94E308A1E0B0E0E2EBF0E00B
:100160000C94C9088A01DC0111962D913C911297DB
:1001700021153105B9F1462F50E04217530794F588
:100180001396ED91FC91149719828981861738F4A2
:1001900001A0F2A1E02D89818F5F8983F6CF818153
:1001A000D80111968C931197828112968C93129795
:1001B00090819C9319828981891790F42981898182
:1001C000AF01480F511DDA0113968C91A801420F1F
:1001D000511DDA0113968C9389818F5F8983EBCF50
:1001E00081E001C080E02196E4E00C94E508FC0188
:1001F000808191E0980F90830895A0E0B0E0E3E063
:10020000F1E00C94C908DC0111962D913C911297F4
:100210002A303105F4F48C012F5F3F4FFC0132830B
:10022000218383E290E00E94F808FC0181E0818351
:100230008083898583831282D80113968D919C9146
:10024000149792A381A31496FC93EE93139781E0E5
:1002500001C080E0E4E00C94E508FF920F931F9347
:10026000CF93DF93DC0111962D913C9112972A30A8
:1002700031050CF046C0142F072FF62EEC012F5F2E
:100280003F4F3A83298383E290E00E94F808FC0103
:1002900011821083888191E0980F988382836F2D5B
:1002A000702FAF014D5F5F4F9A01922F941B9117F2
:1002B00038F4DB019D91BD01D9019D939D01F5CFDE
:1002C0004B815C81DA0120E030E0109759F0129602
:1002D0009C911297981730F09D0191960D90BC91CA
:1002E000A02DF3CFB2A3A1A34A175B0719F4FC8397
:1002F000EB8305C0D9019296FC93EE93919781E030
:1003000001C080E0CDB7DEB7E5E00C94E408A0E0E2
:10031000B0E0EDE8F1E00C94CB0880E0E2E00C9472
:10032000E708A1E0B0E0E7E9F1E00C94C908DC01DE
:1003300011962D913C9112972A3031050CF050C046
:100340008C012F5F3F4FFC013283218383E290E0D9
:100350000E94F808FC0189858183988590834A85ED
:100360004283198289818917A0F429818981BF017B
:10037000620F711D2BE030E02C0F3D1F280F311D47
:10038000D9018C91DB0113968C9389818F5F8983CE
:10039000E9CFD80113962D913C911497D90180E0B3
:1003A00090E0109759F012965C911297541730F024
:1003B000CD0191960D90BC91A02DF3CFB2A3A1A336
:1003C0002A173B0731F4D8011496FC93EE93139748
:1003D00005C0DC019296FC93EE93919781E001C0F9
:1003E00080E02196E4E00C94E5081F93CF93DF931F
:1003F000EC01EB81FC81309701F1108180E090816C
:10040000891768F4282F30E0DF01A20FB31F13967D
:100410009C91DB01A20FB31F9C938F5FF0CF81A152
:1004200092A19C838B83CF010E948D0989819A813F
:1004300001979A838983812F01C080E0DF91CF915A
:100440001F910895E9E6F0E0808182608083E89A58
:10045000E09A089581E085BB96E096BD14BC93E0D8
:1004600095BD80936E000895A0E0B0E0EAE3F2E06D
:100470000C94C608D62E7A01022F86E891E00E94DD
:1004800010076D2D86E891E00E942007E70110E03B
:10049000CE018E199F09801791078CF480EAD81637
:1004A00039F06FEF86E891E00E942007888305C04D
:1004B000688186E891E00E9420072196E9CF86E8CE
:1004C00091E00E941807CDB7DEB7E7E00C94E20890
:1004D000A1E0B0E0EEE6F2E00C94C8088B01F42E47
:1004E00081E089838981882389F0F8944F2DB801B0
:1004F00088E791E00E942D01811119828FE39CE928
:100500000197F1F700C000007894ECCF2196E5E068
:100510000C94E40841E068E08AE891E00E94B707A3
:10052000089540E068E08AE891E00E94B7070895E6
:100530008F929F92BF92CF92DF92EF92FF920F9392
:100540001F93CF93DF9300D0CDB7DEB77C016A0154
:100550002A8369830E94910269816F71606286E8D3
:1005600091E069830E941007698186E891E00E940A
:100570002007B82E86012A81822E912CC8018C1961
:100580009D098815990544F4F80161918F0186E869
:1005900091E00E942007F2CF86E891E00E941807C0
:1005A000C7010E948A028B2D0F900F90DF91CF918F
:1005B0001F910F91FF90EF90DF90CF90BF909F9091
:1005C0008F9008950895EF92FF921F93CF93DF933A
:1005D00000D000D01F92CDB7DEB77C01142F698305
:1005E0006A836B836C836D8325E0AE014F5F5F4F41
:1005F0006AE00E94980219831A831B831C831D835F
:1006000025E0AE014F5F5F4F60E1C7010E94980295
:100610000F900F900F900F900F90DF91CF911F913F
:10062000FF90EF90089585E38A95F1F7000086E842
:1006300091E00E94100767E286E891E00E9420079F
:1006400060E786E891E00E94200786E891E00E943A
:1006500018070895CF93DF93EC010E94910285E380
:100660008A95F1F7000086E891E00E94100785E383
:100670008A95F1F7000067E286E891E00E94200782
:1006800085E38A95F1F7000060E786E891E00E9433
:10069000200785E38A95F1F7000086E891E00E9443
:1006A0001807CE010E948A02DF91CF910895A2E23D
:1006B000B0E0EDE5F3E00C94C7087C018B0120E28B
:1006C000AE014F5F5F4F61E60E94340289818AA3C9
:1006D0008A81F80182838AA190E026E0959587952A
:1006E0002A95E1F781838AA18F73808319A289A15A
:1006F0008E3198F499A1E9A1F0E0329621E030E042
:100700002C0F3D1FE20FF31F8081F801E90FF11D4F
:10071000838389A18F5F89A3EACFC7010E942A033F
:10072000A296E6E00C94E308A3E2B0E0EAE9F3E085
:100730000C94C9088C01BE016F5F7F4F0E94570364
:10074000C8010E942A0386E891E00E94100762EE29
:1007500086E891E00E94200786E891E00E94180751
:100760008A81882339F0813001F586E091E00E948A
:10077000790A1BC08DB79EB783970FB6F8949EBFBA
:100780000FBE8DBFADB7BEB7119683E2FE013196A5
:1007900001900D928A95E1F78DE791E00E94910119
:1007A0000FB6F894DEBF0FBECDBFA396E4E00C9465
:1007B000E5081F920F920FB60F9211242F933F93CB
:1007C0004F935F936F937F938F939F93AF93BF9359
:1007D000EF93FF9380918201909183010E94940393
:1007E000FF91EF91BF91AF919F918F917F916F9109
:1007F0005F914F913F912F910F900FBE0F901F90DF
:100800001895A5E0B0E0E7E0F4E00C94C8088C018E
:100810000E942A03198221E0AE014F5F5F4F61E021
:10082000C8010E949802FF24F394F98221E0AE01EE
:100830004F5F5F4F62E0C8010E949802F98221E099
:10084000AE014F5F5F4F63E0C8010E9498021982BA
:1008500021E0AE014F5F5F4F64E0C8010E94980243
:10086000198221E0AE014F5F5F4F65E0C8010E9431
:100870009802F98221E0AE014F5F5F4F66E0C80148
:100880000E9498028EE0898321E0AE014F5F5F4FA6
:1008900067E0C8010E94980288E0898321E0AE01E8
:1008A0004F5F5F4F61E1C8010E94980283E3898333
:1008B00021E0AE014F5F5F4F60E0C8010E949802E7
:1008C000F982FA82FB8223E0AE014F5F5F4F6AE05C
:1008D000C8010E94980223E0AE014F5F5F4F60E1C4
:1008E000C8010E94980281E1898321E0AE014F5F37
:1008F0005F4F67E1C8010E9498022596E5E00C94DD
:10090000E408A1E0B0E0E7E8F4E00C94CB08198239
:10091000F8948DE791E00E94F501898378948981AC
:100920002196E2E00C94E708A2E0B0E0EAE9F4E006
:100930000C94CB0886E891E06A830E9410076A81D4
:100940006F7186E891E00E9420076FEF86E891E0E2
:100950000E942007898386E891E00E941807898118
:100960002296E2E00C94E708A1E0B0E0EAEBF4E0C4
:100970000C94C9088C0160E00E9494048C7F982F2D
:100980009260998321E0AE014F5F5F4F60E0C80144
:100990000E94980287E592E00197F1F700C00000FD
:1009A0002196E4E00C94E508A1E0B0E0EAEDF4E083
:1009B0000C94C9088C0160E00E94940483608983D0
:1009C00021E0AE014F5F5F4F60E0C8010E949802D6
:1009D00087E592E00197F1F700C000002196E4E07E
:1009E0000C94E508A2E2B0E0E8EFF4E00C94C9084A
:1009F0008C01DB012C9111968C91119730E4839F2F
:100A0000C0011124822B8AA38AA1898312968C911A
:100A100012978A8319A289A18217B0F4E9A1F0E0A4
:100A2000BF016E5F7F4F89A1AD01480F511DFA01D3
:100A30008381E1E0F0E0EC0FFD1FE60FF71F8083FC
:100A400089A18F5F89A3E7CFC8010E94B40486E81B
:100A500091E00E94100761EE86E891E00E94200775
:100A600086E891E00E94180786E891E00E9410074E
:100A700060EA86E891E00E94200719A289A18032ED
:100A800080F489A1E1E0F0E0EC0FFD1FE80FF11D1B
:100A9000608186E891E00E94200789A18F5F89A389
:100AA000EDCF86E891E00E941807C8010E948A02F3
:100AB000FAE6FA95F1F700C0C8010E9491022FEF03
:100AC00039EF40E0215030404040E1F700C00000E5
:100AD000C8010E942A03C8010E94D404A296E4E03F
:100AE0000C94E508A5E2B0E0E8E7F5E00C94C9084D
:100AF000FC01808191810197918380838081918124
:100B0000892B59F58F0184E690E09183808388E7F3
:100B100091E00E946E008CA38CA18823F1F01DA2AD
:100B20009DA18CA1981790F46DA1AE014F5F5F4F0E
:100B300088E791E00E94AC00BE016F5F7F4FC80163
:100B40000E94F2048DA18F5F8DA3EACFC8010E949D
:100B50002A0388E791E00E947100A596E4E00C94D6
:100B6000E5081F920F920FB60F9211242F933F9317
:100B70004F935F936F937F938F939F93AF93BF93A5
:100B8000EF93FF9380918201909183010E947205FF
:100B900086E086BDFF91EF91BF91AF919F918F91BC
:100BA0007F916F915F914F913F912F910F900FBE69
:100BB0000F901F901895A3E2B0E0E1EEF5E00C94E1
:100BC000CB08362FDE011496FB012E2F231B241792
:100BD00018F421912D93F9CF1A82498321E02B83B8
:100BE000F894BE016F5F7F4F0E94F2047894A39641
:100BF000E2E00C94E708A1E0B0E0E1E0F6E00C945C
:100C0000C9088C0160E00E949404898385E38A9579
:100C1000F1F70000C8010E94D40486E891E00E9428
:100C2000100762EE86E891E00E94200786E891E0D6
:100C30000E941807C8010E94B40486E891E00E944F
:100C4000100761EE86E891E00E94200786E891E0B7
:100C50000E94180721E0AE014F5F5F4F60E0C801BE
:100C60000E9498022196E4E00C94E508A1E0B0E02F
:100C7000ECE3F6E00C94C9088C0160E00E94940457
:100C80008D7F898321E0AE014F5F5F4F60E0C80137
:100C90000E9498022196E4E00C94E508A1E0B0E0FF
:100CA000E4E5F6E00C94C9088C0160E00E9494042D
:100CB0008260898321E0AE014F5F5F4F60E0C80131
:100CC0000E9498022196E4E00C94E508EF92FF92CE
:100CD0000F93CF93DF9300D000D0CDB7DEB77C0168
:100CE00041E068E08AE891E00E949407C7010E9411
:100CF00091020DE02BE04CE06AE0CE0101960E94EB
:100D0000D50689819A81AB81BC81809386019093BD
:100D10008701A0938801B09389012FEF85EA9EE0B7
:100D2000215080409040E1F700C00000C7010E94C0
:100D30008A02C7010E944E06C7010E94FB05C70137
:100D40000E9401048AE091E09F938F930E94630ABE
:100D500067E0C7010E9494040F900F908E3019F441
:100D600089E291E002C08CE291E00E94790AF0925F
:100D70008301E092820184E690E0F7019183808311
:100D8000C7010E94FB05C7010E942A03C7010E94F8
:100D9000220278940F900F900F900F90DF91CF91D7
:100DA0000F91FF90EF90089508950F93CF93DF93E5
:100DB000EC01688349832A830B8341E08AE891E050
:100DC0000E94940740E069818AE891E00E949407BC
:100DD00041E06A818AE891E00E94940741E06B81DA
:100DE0008AE891E00E94940741E068818AE891E0F6
:100DF0000E94B70740E06A818AE891E00E94B70745
:100E000040E06B818AE891E00E94B7078FE99FE09C
:100E10000197F1F700C00000DF91CF910F91089585
:100E200040E0FC0160818AE891E00E94B7070895E4
:100E300041E0FC0160818AE891E00E94B7070895D3
:100E4000A2E0B0E0E6E2F7E00C94C6088C0119825B
:100E500087E08A83E62EF12C8A8187FD2FC08A8164
:100E6000A70102C0559547958A95E2F7F80162817E
:100E70008AE891E00E94B70741E0F80163818AE8BF
:100E800091E00E94B707D980F80161818AE891E07A
:100E90000E94DB07982F8A81292F01C0220F8A9593
:100EA000EAF72D29298340E0F80163818AE891E07F
:100EB0000E94B7078A8181508A83CECF898122968A
:100EC000E7E00C94E208FC01683068F48AE290E004
:100ED0009183808389E290E0938382838BE290E028
:100EE000958384831FC088EF860F863070F424E2D8
:100EF00030E03183208323E230E03383228325E214
:100F000030E0358324838683089587E290E09183DF
:100F1000808386E290E09383828388E290E09583E9
:100F200084836E5066830895A1E0B0E0EAE9F7E0BB
:100F30000C94C9088C0149830E946307D801ED9184
:100F4000FC91119716963C914981208181E090E0B7
:100F500001C0880F3A95EAF7411103C080958223BA
:100F600001C0822B80832196E4E00C94E508A1E087
:100F7000B0E0EDEBF7E00C94C9088C0149830E94C6
:100F80006307D8011496ED91FC91159716963C9144
:100F90004981208181E090E001C0880F3A95EAF70D
:100FA00040FF02C0822B02C080958223808321965D
:100FB000E4E00C94E508CF93DF93EC010E94630713
:100FC000EA81FB81208130E0C9010E8002C0959545
:100FD00087950A94E2F78170DF91CF9108959091FF
:100FE000C00095FFFCCF8093C60080E090E008959C
:100FF0008091C00087FFFCCF8091C60090E00895EB
:101000001092C50087E68093C400E0ECF0E0808198
:101010008D7F808386E08093C20088E18093C10049
:10102000EFE9F1E08FEE97E09187808713861286D3
:1010300082E0838315861486A2EBB1E01396FC93BD
:10104000EE931297E1E9F1E01186108688EF97E0C0
:101050009387828781E0838315861486ED93FC93C2
:1010600008958DE791E00E94670088E791E00E9473
:1010700067000895A2E2B0E0E0E4F8E00C94C10853
:1010800081E391E00E94790A4CE76BE784E891E004
:101090000E94E30284E891E00E94E20281E491E090
:1010A0009F938F930E94630A8091B2019091B30144
:1010B0000E94250A8EE491E00E94790A0F900F9019
:1010C0008E010F5F1F4F82E5882E81E0982E5E0112
:1010D00081E2A80EB11C99E6C92E91E0D92E22E733
:1010E000E22E21E0F22EB80184E891E00E94810412
:1010F0008823C9F3F801E80FF11D10821F928F9326
:101100001F930F939F928F920E94630ABF92AF9298
:10111000DF92CF921F930F930E94CC0A8AA18F93E4
:1011200089A18F93FF92EF921F930F930E94A90AB8
:101130008FE39FE10197F1F700C00000F8010190F3
:101140000020E9F73197AF01401B510BB80184E84B
:1011500091E00E94DB050FB6F894DEBF0FBECDBF55
:10116000C2CF84E891E00E94660608958DEA91E07E
:101170000E94000808952F923F924F925F926F92C3
:101180007F928F929F92AF92BF92CF92DF92EF9217
:10119000FF920F931F93CF93DF93CDB7DEB7CA1B98
:1011A000DB0B0FB6F894DEBF0FBECDBF09942A88C3
:1011B000398848885F846E847D848C849B84AA846B
:1011C000B984C884DF80EE80FD800C811B81AA81F8
:1011D000B981CE0FD11D0FB6F894DEBF0FBECDBFC3
:1011E000ED010895EE0FFF1F0590F491E02D099495
:1011F000CF93DF938230910510F482E090E0E0918C
:10120000B001F091B10120E030E0C0E0D0E03097D3
:1012100011F14081518148175907C0F0481759070B
:1012200061F482819381209719F09B838A832BC07C
:101230009093B1018093B00126C02115310519F0BA
:101240004217530718F49A01BE01DF01EF01028033
:10125000F381E02DDCCF2115310509F1281B390B75
:101260002430310590F412968D919C91139761155D
:10127000710521F0FB019383828304C09093B10137
:101280008093B001FD01329644C0FD01E20FF31FCF
:1012900081939193225031092D933C933AC0209130
:1012A000AE013091AF01232B41F420910201309126
:1012B00003013093AF012093AE01209100013091E2
:1012C00001012115310541F42DB73EB740910401CC
:1012D00050910501241B350BE091AE01F091AF0157
:1012E000E217F307A0F42E1B3F0B2817390778F0FD
:1012F000AC014E5F5F4F2417350748F04E0F5F1F5C
:101300005093AF014093AE018193919302C0E0E00E
:10131000F0E0CF01DF91CF9108950F931F93CF930A
:10132000DF93009709F48CC0FC013297138212827C
:101330000091B0011091B1010115110581F42081D6
:101340003181820F931F2091AE013091AF01281798
:10135000390779F5F093AF01E093AE0171C0D80180
:1013600040E050E0AE17BF0750F412962D913C912B
:101370001397AD012115310509F1D901F3CF9D0175
:10138000DA013383228360817181860F971F821770
:10139000930769F4EC0128813981260F371F2E5FEE
:1013A0003F4F318320838A819B8193838283452BA6
:1013B00029F4F093B101E093B00142C01396FC937D
:1013C000EE931297ED01499159919E01240F351F1B
:1013D000E217F30771F480819181840F951F0296C3
:1013E00011969C938E938281938113969C938E93F6
:1013F0001297E0E0F0E0D80112968D919C9113973E
:10140000009719F0F8018C01F6CF8D919C9198010D
:101410002E5F3F4F820F931F2091AE013091AF019D
:101420002817390769F4309729F41092B101109206
:10143000B00102C0138212821093AF010093AE017B
:10144000DF91CF911F910F910895CF93DF93EC011E
:101450002B8120FF33C026FF0AC02F7B2B838E8178
:101460009F8101969F838E838A8190E029C022FF0D
:101470000FC0E881F9818081082E000C990B00973C
:1014800019F420622B831AC03196F983E8830EC0C9
:10149000EA85FB85099597FF09C02B81019611F01C
:1014A00080E201C080E1822B8B8308C02E813F81C6
:1014B0002F5F3F4F3F832E83992702C08FEF9FEF0F
:1014C000DF91CF910895A0E0B0E0E9E6FAE00C9456
:1014D000CB08AE014B5F5F4FFA0161917191AF0193
:1014E0008091B4019091B5010E94E50AE2E00C946C
:1014F000E7080F931F93CF93DF93E091B401F0912E
:10150000B501238121FF1BC08C01D0E0C0E0F801B0
:1015100081918F016091B4017091B501DB01189642
:10152000ED91FC911997882331F00995892B79F376
:10153000DFEFCFEFECCF8AE00995892B19F08FEF21
:101540009FEF02C08D2F9C2FDF91CF911F910F91A4
:101550000895AEE0B0E0EFEAFAE00C94C9080D8916
:101560001E8986E08C831A8309838FEF9FE79E8311
:101570008D83AE01475E5F4F6F89788DCE010196F6
:101580000E94E50A2F813885F801E20FF31F1082CF
:101590002E96E4E00C94E508AEE0B0E0E2EDFAE06F
:1015A0000C94CB0885E08C838B899C899A838983F2
:1015B000AE01495E5F4F6D897E89CE0101960E9422
:1015C000370E2E96E2E00C94E708ACE0B0E0EBEECC
:1015D000FAE00C94BB087C016B018A01FC011782C4
:1015E0001682838181FFBDC1CE0101964C01F701B6
:1015F0009381F60193FD859193FF81916F0188237B
:1016000009F4ABC1853239F493FD859193FF819143
:101610006F01853229F4B70190E00E948F0FE7CF68
:10162000512C312C20E02032A0F48B3269F030F4C0
:10163000803259F0833269F420612CC08D3239F048
:10164000803339F4216026C02260246023C02860E2
:1016500021C027FD27C030ED380F3A3078F426FF3F
:1016600006C0FAE05F9E300D1124532E13C08AE0AD
:10167000389E300D1124332E20620CC08E3221F49E
:1016800026FD6BC1206406C08C3611F4206802C0B0
:10169000883641F4F60193FD859193FF81916F01A6
:1016A0008111C1CF982F9F7D9554933028F40C5F02
:1016B0001F4FFFE3F9830DC0833631F0833771F09C
:1016C000833509F05BC022C0F801808189830E5FF9
:1016D0001F4F44244394512C540115C03801F2E0AB
:1016E0006F0E711CF801A080B18026FF03C0652D2C
:1016F00070E002C06FEF7FEFC5012C870E94840F5E
:101700002C0183012C852F77222E17C03801F2E09F
:101710006F0E711CF801A080B18026FF03C0652DFB
:1017200070E002C06FEF7FEFC5012C870E94790F38
:101730002C012C852068222E830123FC1BC0832DC5
:1017400090E048165906B0F4B70180E290E00E949C
:101750008F0F3A94F4CFF50127FC859127FE8191F4
:101760005F01B70190E00E948F0F31103A94F1E0D1
:101770004F1A51084114510471F7E5C0843611F035
:10178000893639F5F80127FF07C0608171818281B0
:1017900093810C5F1F4F08C060817181072E000C80
:1017A000880B990B0E5F1F4F2F76722E97FF09C083
:1017B00090958095709561957F4F8F4F9F4F2068D2
:1017C000722E2AE030E0A4010E94E00FA82EA81893
:1017D00044C0853729F42F7EB22E2AE030E025C0A0
:1017E000F22FF97FBF2E8F36C1F018F4883579F0CB
:1017F000B4C0803719F0883721F0AFC02F2F206197
:10180000B22EB4FE0DC08B2D8460B82E09C024FF0B
:101810000AC09F2F9660B92E06C028E030E005C0B0
:1018200020E130E002C020E132E0F801B7FE07C05D
:1018300060817181828193810C5F1F4F06C060813E
:10184000718180E090E00E5F1F4FA4010E94E00FC5
:10185000A82EA818FB2DFF777F2E76FE0BC0372D04
:101860003E7FA51450F474FE0AC072FC08C0372DE8
:101870003E7E05C0BA2C372D03C0BA2C01C0B52C52
:1018800034FF0DC0FE01EA0DF11D8081803311F49B
:10189000397E09C032FF06C0B394B39404C0832FCD
:1018A000867809F0B39433FD13C030FF06C05A2C7C
:1018B000B31418F4530C5B18B32CB31468F4B701C9
:1018C00080E290E03C870E948F0FB3943C85F5CF77
:1018D000B31410F43B1801C0312C34FF12C0B7010F
:1018E00080E390E03C870E948F0F3C8532FF17C059
:1018F00031FD03C088E790E002C088E590E0B701C1
:101900000CC0832F867859F031FF02C08BE201C0F2
:1019100080E237FD8DE2B70190E00E948F0FA514A1
:1019200038F4B70180E390E00E948F0F5A94F7CF0C
:10193000AA94F401EA0DF11D8081B70190E00E94A4
:101940008F0FA110F5CF332009F451CEB70180E2FB
:1019500090E00E948F0F3A94F6CFF701868197812D
:1019600002C08FEF9FEF2C96E2E10C94D70820FD88
:1019700009C0FC0123FD05C022FF02C073836283FE
:1019800051834083089544FD10C046FD10C0DB0123
:10199000FC01AA0FBB1FEE1FFF1F1094D1F76A0FA7
:1019A0007B1F8E1F9F1F31E003C033E001C034E076
:1019B000660F771F881F991F3150D1F7620F711D75
:1019C000811D911D08950F931F93CF93DF938C0179
:1019D000C8010E94250AEC0197FD08C00E94650F0E
:1019E000892BB1F7B801CE010E94C70FCE01DF915C
:1019F000CF911F910F910895A1E0B0E0E2E0FDE0EA
:101A00000C94C1088C01C62E7A0129830E94250AF4
:101A1000AC01552729814B32510521F04D3251053A
:101A200069F42068CA94C11002C080E076C0C80181
:101A300029830E94250A298197FDF7CF322F3D7F08
:101A4000D32E322F307349F5803339F5BB24BA9445
:101A5000BC0C09F44EC0C80129830E94250A2981C3
:101A600097FD47C0382F3F7D383569F48D2D82644E
:101A7000D82ECA94CA94CC20E1F1C8010E94250A4C
:101A800097FF0BC036C026FF04C02D2D2260D22E3A
:101A900003C03D2D3261D32ECB2C812C912C5401CF
:101AA00020ED280F283080F0D4FE04C0B8010E9439
:101AB000C70F1CC02A3040F0D6FEF8CF2F7D3FEE76
:101AC000320F363098F727504D2DC501B4010E94D2
:101AD000C30C4B015C018D2D8260D82ECA94CC20A2
:101AE00059F0C8010E94250A97FFDACFD1FC04C043
:101AF0009CCF812C912C5401D7FE08C0B094A094A7
:101B000090948094811C911CA11CB11C2D2DB501B9
:101B1000A401C7010E94B70C81E02196ECE00C946F
:101B2000DD08A1E2B0E0E7E9FDE00C94BF085C014C
:101B30007A01CE0101966C0180E2F60111928A953C
:101B4000E9F7F501838040E050E0912C712C70E0C2
:101B5000A1E0B0E0F90183FC859183FE81918F01C2
:101B6000982F9F01811103C080E090E07CC08E35EA
:101B700019F44115510549F1E72FF0E0E417F50795
:101B80003CF48D3559F18D3219F4772001F103C001
:101B9000711001C0982E892F8695869586958601AD
:101BA000080F111D892F87703D0101C0660C8A95B1
:101BB000EAF7F801808186298083991559F09915F3
:101BC00010F49F5FE8CF9150E6CF71E004C0772416
:101BD000739401C0712C4F5F5F4FBCCF772019F019
:101BE0008E8180628E83711103C09924939416C0F4
:101BF000F6019E012F5D3F4F808180958193E21712
:101C0000F307D1F7F2CFE114F10429F0F701808353
:101C1000C70101967C016150912CF9F0C50169A3BF
:101C20000E94250A69A197FD16C0282F26952695A2
:101C30002695F601E20FF11D208130E0AC014770DE
:101C4000552702C0359527954A95E2F720FDDBCF51
:101C5000B5010E94C70F911087CFE114F10411F074
:101C6000F7011082C801A196EEE00C94DB084F92B8
:101C70005F927F928F929F92AF92BF92CF92DF92AC
:101C8000EF92FF920F931F93CF93DF931F92CDB7E5
:101C9000DEB76C012B015A01FC0117821682712CF0
:101CA000F601F380F201F3FC8591F3FE8191382F68
:101CB0002F01882309F4F3C090E039830E94650F57
:101CC0003981892B21F0C6010E94E30CE9CF35321E
:101CD00041F4F201F3FC3591F3FE31912F013532DD
:101CE00069F4C60139830E94250A398197FDD5C060
:101CF0003817B1F2B6010E94C70FD1C03A3239F499
:101D0000F3FC3591F3FE31912F0151E001C050E019
:101D1000420110E020ED230F2A3090F45260612F31
:101D200070E080E090E040E259830E94C30C162FDF
:101D3000F401F3FC3591F3FE31914F015981EACF63
:101D4000052F232F240151FF03C0111102C0A7C08A
:101D50001FEF383619F03C3659F011C0F401F3FC8E
:101D60002591F3FE21912F01283649F4052F0860B3
:101D70000460F201F3FC2591F3FE21912F0122234F
:101D800009F48DC0622F70E088E690E029830E94FC
:101D90006E0F2981892B09F482C000FD07C0F5016F
:101DA000E080F180C50102965C0102C0E12CF12CBB
:101DB0002E3651F4F6014681578160E070E0202F05
:101DC000C7010E94B70C6CCF233691F401FF11E0DC
:101DD000C6010E94250A97FD60C0E114F10429F0B4
:101DE000F7018083C70101967C01115089F751C02A
:101DF0002B3559F49201A701612FC6010E94910D64
:101E00002C01892B09F045C03FC0C60129830E94DF
:101E1000E30C298197FD41C02F3659F128F424366F
:101E200031F1293649F127C0233769F02537F9F018
:101E300022C0E114F10429F0F7018082C701019664
:101E40007C01115071F0C6010E94250A4C0197FDDA
:101E500008C00E94650F892B61F3B601C4010E947E
:101E6000C70FE114F104A9F0F701108212C000625B
:101E700003C0006101C00064202FA701612FC601CB
:101E80000E94FC0C811105C0F6018381807329F446
:101E900006C000FD05CF739403CF772019F0872D7E
:101EA00090E002C08FEF9FEF0F90DF91CF911F91D5
:101EB0000F91FF90EF90DF90CF90BF90AF909F90E9
:101EC0008F907F905F904F90089591110C943E10E9
:101ED000803219F089508550C8F70895FC010590AB
:101EE000061621F00020D9F7C00108953197CF01DF
:101EF0000895FC010590615070400110D8F780955D
:101F000090958E0F9F1F0895FC01615070400190C5
:101F10000110D8F7809590958E0F9F1F08950F930D
:101F20001F93CF93DF93FB01238121FD03C08FEF2C
:101F30009FEF28C022FF16C046815781248135813A
:101F40004217530744F4A081B1819D012F5F3F4F99
:101F5000318320838C93268137812F5F3F4F3783D6
:101F6000268310C0EB01092F182F0084F185E02D86
:101F70000995892BE1F68E819F8101969F838E833F
:101F8000812F902FDF91CF911F910F910895FB0129
:101F9000238120FF12C026FD10C08F3F3FEF930723
:101FA00061F082832F7D2064238326813781215035
:101FB000310937832683992708958FEF9FEF08957E
:101FC000FA01AA27283051F1203181F1E8946F936A
:101FD0006E7F6E5F7F4F8F4F9F4FAF4FB1E03ED010
:101FE000B4E03CD0670F781F891F9A1FA11D680FAE
:101FF000791F8A1F911DA11D6A0F711D811D911DE1
:10200000A11D20D009F468943F912AE0269F112455
:102010003019305D3193DEF6CF010895462F4770B9
:10202000405D4193B3E00FD0C9F7F6CF462F4F7014
:10203000405D4A3318F0495D31FD4052419302D072
:10204000A9F7EACFB4E0A695979587957795679518
:10205000BA95C9F700976105710508959B01AC0118
:102060000A2E06945795479537952795BA95C9F73F
:10207000620F731F841F951FA01D0895992788273D
:062080000895F894FFCF63
:102086000000B801800041434B00696E69636961D5
:102096006C697A6163616F20646F207472616E731C
:1020A600636569766572203A004F4B004552524F80
:1020B600004D4F44554C4F205245434550544F52C6
:1020C6000044696769746520456E746572004F4BFC
:1020D6000A00524543454245552025732074616DDB
:1020E600616E686F3D25640A006D656E7361676594
:0820F6006D3A2530346400004E
:00000001FF
