:100000000C943D000C94D9030C9465000C9465008D
:100010000C9465000C9465000C9465000C946500CC
:100020000C9465000C9465000C9465000C946500BC
:100030000C9465000C9465000C9465000C946500AC
:100040000C94B1050C9465000C9465000C9465004B
:100050000C9465000C9465000C9465000C9465008C
:100060000C9465000C9465006364696E6F70737521
:1000700078585B003108FE08030911241FBECFEF3A
:10008000D8E0DEBFCDBF11E0A0E0B1E0EEE2F1E2EA
:1000900002C005900D92A63AB107D9F721E0A6EA71
:1000A000B1E001C01D92A63EB207E1F710E0CDE33A
:1000B000D0E004C02197FE010E943F09CA33D10756
:1000C000C9F70E943A080C9495100C940000FC01AA
:1000D000108212821182148213820895FC018181A0
:1000E0000895EF92FF920F931F93CF93DF93DC015C
:1000F00011962D913C911297232B49F1EC01EB8144
:10010000FC8100E010E0309711F1218191A182A1E2
:100110002130C9F429813A81215031093A83298358
:100120000115110519F49B838C8306C0D8019196A3
:100130009C93919792968C93E1A0F2A0CF010E949C
:10014000DA09F701E0CF8F01E92FF82FDCCFCDB727
:10015000DEB7E6E00C943009A1E0B0E0E2EBF0E0BD
:100160000C9416098A01DC0111962D913C9112978D
:1001700021153105B9F1462F50E04217530794F588
:100180001396ED91FC91149719828981861738F4A2
:1001900001A0F2A1E02D89818F5F8983F6CF818153
:1001A000D80111968C931197828112968C93129795
:1001B00090819C9319828981891790F42981898182
:1001C000AF01480F511DDA0113968C91A801420F1F
:1001D000511DDA0113968C9389818F5F8983EBCF50
:1001E00081E001C080E02196E4E00C943209FC013A
:1001F000808191E0980F90830895A0E0B0E0E3E063
:10020000F1E00C941609DC0111962D913C911297A6
:100210002A303105F4F48C012F5F3F4FFC0132830B
:10022000218383E290E00E944509FC0181E0818303
:100230008083898583831282D80113968D919C9146
:10024000149792A381A31496FC93EE93139781E0E5
:1002500001C080E0E4E00C943209FF920F931F93F9
:10026000CF93DF93DC0111962D913C9112972A30A8
:1002700031050CF046C0142F072FF62EEC012F5F2E
:100280003F4F3A83298383E290E00E944509FC01B5
:1002900011821083888191E0980F988382836F2D5B
:1002A000702FAF014D5F5F4F9A01922F941B9117F2
:1002B00038F4DB019D91BD01D9019D939D01F5CFDE
:1002C0004B815C81DA0120E030E0109759F0129602
:1002D0009C911297981730F09D0191960D90BC91CA
:1002E000A02DF3CFB2A3A1A34A175B0719F4FC8397
:1002F000EB8305C0D9019296FC93EE93919781E030
:1003000001C080E0CDB7DEB7E5E00C943109A0E094
:10031000B0E0EDE8F1E00C94180980E0E2E00C9424
:100320003409A1E0B0E0E7E9F1E00C941609DC0142
:1003300011962D913C9112972A3031050CF050C046
:100340008C012F5F3F4FFC013283218383E290E0D9
:100350000E944509FC0189858183988590834A859F
:100360004283198289818917A0F429818981BF017B
:10037000620F711D2BE030E02C0F3D1F280F311D47
:10038000D9018C91DB0113968C9389818F5F8983CE
:10039000E9CFD80113962D913C911497D90180E0B3
:1003A00090E0109759F012965C911297541730F024
:1003B000CD0191960D90BC91A02DF3CFB2A3A1A336
:1003C0002A173B0731F4D8011496FC93EE93139748
:1003D00005C0DC019296FC93EE93919781E001C0F9
:1003E00080E02196E4E00C9432091F93CF93DF93D1
:1003F000EC01EB81FC81309701F1108180E090816C
:10040000891768F4282F30E0DF01A20FB31F13967D
:100410009C91DB01A20FB31F9C938F5FF0CF81A152
:1004200092A19C838B83CF010E94DA0989819A81F2
:1004300001979A838983812F01C080E0DF91CF915A
:100440001F910895E9E6F0E0808182608083E89A58
:10045000E09A089581E085BB96E096BD14BC93E0D8
:1004600095BD80936E000895A0E0B0E0EAE3F2E06D
:100470000C941309D62E7A01022F84EB91E00E948E
:1004800010076D2D84EB91E00E942007E70110E03A
:10049000CE018E199F09801791078CF480EAD81637
:1004A00039F06FEF84EB91E00E942007888305C04C
:1004B000688184EB91E00E9420072196E9CF84EBCC
:1004C00091E00E941807CDB7DEB7E7E00C942F0942
:1004D000A1E0B0E0EEE6F2E00C9415098B01F42EF9
:1004E00081E089838981882389F0F8944F2DB801B0
:1004F00086EA91E00E942D01811119828FE39CE927
:100500000197F1F700C000007894ECCF2196E5E068
:100510000C94310941E068E088EB91E00E94B70754
:10052000089540E068E088EB91E00E94B7070895E5
:100530008F929F92BF92CF92DF92EF92FF920F9392
:100540001F93CF93DF9300D0CDB7DEB77C016A0154
:100550002A8369830E94910269816F71606284EBD2
:1005600091E069830E941007698184EB91E00E9409
:100570002007B82E86012A81822E912CC8018C1961
:100580009D098815990544F4F80161918F0184EB68
:1005900091E00E942007F2CF84EB91E00E941807BF
:1005A000C7010E948A028B2D0F900F90DF91CF918F
:1005B0001F910F91FF90EF90DF90CF90BF909F9091
:1005C0008F9008950895EF92FF921F93CF93DF933A
:1005D00000D000D01F92CDB7DEB77C01142F698305
:1005E0006A836B836C836D8325E0AE014F5F5F4F41
:1005F0006AE00E94980219831A831B831C831D835F
:1006000025E0AE014F5F5F4F60E1C7010E94980295
:100610000F900F900F900F900F90DF91CF911F913F
:10062000FF90EF90089585E38A95F1F7000084EB41
:1006300091E00E94100767E284EB91E00E9420079E
:1006400060E784EB91E00E94200784EB91E00E9438
:1006500018070895CF93DF93EC010E94910285E380
:100660008A95F1F7000084EB91E00E94100785E382
:100670008A95F1F7000067E284EB91E00E94200781
:1006800085E38A95F1F7000060E784EB91E00E9432
:10069000200785E38A95F1F7000084EB91E00E9442
:1006A0001807CE010E948A02DF91CF910895A2E23D
:1006B000B0E0EDE5F3E00C9414097C018B0120E23D
:1006C000AE014F5F5F4F61E60E94340289818AA3C9
:1006D0008A81F80182838AA190E026E0959587952A
:1006E0002A95E1F781838AA18F73808319A289A15A
:1006F0008E3198F499A1E9A1F0E0329621E030E042
:100700002C0F3D1FE20FF31F8081F801E90FF11D4F
:10071000838389A18F5F89A3EACFC7010E942A033F
:10072000A296E6E00C943009A3E2B0E0EAE9F3E037
:100730000C9416098C01BE016F5F7F4F0E94570316
:10074000C8010E942A0384EB91E00E94100762EE28
:1007500084EB91E00E94200784EB91E00E9418074F
:100760008A81882339F0813001F586E091E00E948A
:10077000CD0A1BC08DB79EB783970FB6F8949EBF66
:100780000FBE8DBFADB7BEB7119683E2FE013196A5
:1007900001900D928A95E1F78BEA91E00E94910118
:1007A0000FB6F894DEBF0FBECDBFA396E4E00C9465
:1007B00032091F920F920FB60F9211242F933F937D
:1007C0004F935F936F937F938F939F93AF93BF9359
:1007D000EF93FF938091B0019091B1010E94940337
:1007E000FF91EF91BF91AF919F918F917F916F9109
:1007F0005F914F913F912F910F900FBE0F901F90DF
:100800001895A5E0B0E0E7E0F4E00C9415098C0140
:100810000E942A03198221E0AE014F5F5F4F61E021
:10082000C8010E949802FF24F394F98221E0AE01EE
:100830004F5F5F4F62E0C8010E949802F98221E099
:10084000AE014F5F5F4F63E0C8010E9498021982BA
:1008500021E0AE014F5F5F4F64E0C8010E94980243
:10086000198221E0AE014F5F5F4F65E0C8010E9431
:100870009802F98221E0AE014F5F5F4F66E0C80148
:100880000E9498028EE0898321E0AE014F5F5F4FA6
:1008900067E0C8010E94980288E0898321E0AE01E8
:1008A0004F5F5F4F61E1C8010E94980283E3898333
:1008B00021E0AE014F5F5F4F60E0C8010E949802E7
:1008C000F982FA82FB8223E0AE014F5F5F4F6AE05C
:1008D000C8010E94980223E0AE014F5F5F4F60E1C4
:1008E000C8010E94980281E1898321E0AE014F5F37
:1008F0005F4F67E1C8010E9498022596E5E00C94DD
:100900003109A1E0B0E0E7E8F4E00C94180919829D
:10091000F8948BEA91E00E94F501898378948981AB
:100920002196E2E00C943409A2E0B0E0EAE9F4E0B8
:100930000C94180984EB91E06A830E9410076A8185
:100940006F7184EB91E00E9420076FEF84EB91E0E0
:100950000E942007898384EB91E00E941807898117
:100960002296E2E00C943409A1E0B0E0EAEBF4E076
:100970000C9416098C0160E00E9494048C7F982FDF
:100980009260998321E0AE014F5F5F4F60E0C80144
:100990000E94980287E592E00197F1F700C00000FD
:1009A0002196E4E00C943209A1E0B0E0EAEDF4E035
:1009B0000C9416098C0160E00E9494048360898382
:1009C00021E0AE014F5F5F4F60E0C8010E949802D6
:1009D00087E592E00197F1F700C000002196E4E07E
:1009E0000C943209A2E2B0E0E8EFF4E00C941609AE
:1009F0008C01DB012C9111968C91119730E4839F2F
:100A0000C0011124822B8AA38AA1898312968C911A
:100A100012978A8319A289A18217B0F4E9A1F0E0A4
:100A2000BF016E5F7F4F89A1AD01480F511DFA01D3
:100A30008381E1E0F0E0EC0FFD1FE60FF71F8083FC
:100A400089A18F5F89A3E7CFC8010E94B40484EB1A
:100A500091E00E94100761EE84EB91E00E94200774
:100A600084EB91E00E94180784EB91E00E9410074C
:100A700060EA84EB91E00E94200719A289A18032EC
:100A800080F489A1E1E0F0E0EC0FFD1FE80FF11D1B
:100A9000608184EB91E00E94200789A18F5F89A388
:100AA000EDCF84EB91E00E941807C8010E948A02F2
:100AB000FAE6FA95F1F700C0C8010E9491022FEF03
:100AC00039EF40E0215030404040E1F700C00000E5
:100AD000C8010E942A03C8010E94D404A296E4E03F
:100AE0000C943209A5E2B0E0E8E7F5E00C941609B1
:100AF000FC01808191810197918380838081918124
:100B0000892B59F58F0184E690E09183808386EAF2
:100B100091E00E946E008CA38CA18823F1F01DA2AD
:100B20009DA18CA1981790F46DA1AE014F5F5F4F0E
:100B300086EA91E00E94AC00BE016F5F7F4FC80162
:100B40000E94F2048DA18F5F8DA3EACFC8010E949D
:100B50002A0386EA91E00E947100A596E4E00C94D5
:100B600032091F920F920FB60F9211242F933F93C9
:100B70004F935F936F937F938F939F93AF93BF93A5
:100B8000EF93FF938091B0019091B1010E947205A3
:100B900086E086BDFF91EF91BF91AF919F918F91BC
:100BA0007F916F915F914F913F912F910F900FBE69
:100BB0000F901F901895A3E2B0E0E1EEF5E00C94E1
:100BC0001809362FDE011496FB012E2F231B241744
:100BD00018F421912D93F9CF1A82498321E02B83B8
:100BE000F894BE016F5F7F4F0E94F2047894A39641
:100BF000E2E00C943409A1E0B0E0E1E0F6E00C940E
:100C000016098C0160E00E949404898385E38A952B
:100C1000F1F70000C8010E94D40484EB91E00E9427
:100C2000100762EE84EB91E00E94200784EB91E0D4
:100C30000E941807C8010E94B40484EB91E00E944E
:100C4000100761EE84EB91E00E94200784EB91E0B5
:100C50000E94180721E0AE014F5F5F4F60E0C801BE
:100C60000E9498022196E4E00C943209A1E0B0E0E1
:100C7000ECE3F6E00C9416098C0160E00E94940409
:100C80008D7F898321E0AE014F5F5F4F60E0C80137
:100C90000E9498022196E4E00C943209A1E0B0E0B1
:100CA000E4E5F6E00C9416098C0160E00E949404DF
:100CB0008260898321E0AE014F5F5F4F60E0C80131
:100CC0000E9498022196E4E00C943209EF92FF9280
:100CD0000F93CF93DF9300D000D0CDB7DEB77C0168
:100CE00041E068E088EB91E00E949407C7010E9410
:100CF00091020DE02BE04CE06AE0CE0101960E94EB
:100D0000D50689819A81AB81BC818093B40190938F
:100D1000B501A093B601B093B7012FEF85EA9EE02D
:100D2000215080409040E1F700C00000C7010E94C0
:100D30008A02C7010E944E06C7010E94FB05C70137
:100D40000E9401048AE091E09F938F930E94B00A71
:100D500067E0C7010E9494040F900F908E3019F441
:100D600089E291E002C08CE291E00E94CD0AF0920B
:100D7000B101E092B00184E690E0F70191838083B5
:100D8000C7010E94FB05C7010E942A03C7010E94F8
:100D9000220278940F900F900F900F90DF91CF91D7
:100DA0000F91FF90EF90089508950F93CF93DF93E5
:100DB000EC01688349832A830B8341E088EB91E04F
:100DC0000E94940740E0698188EB91E00E949407BB
:100DD00041E06A8188EB91E00E94940741E06B81D9
:100DE00088EB91E00E94940741E0688188EB91E0F4
:100DF0000E94B70740E06A8188EB91E00E94B70744
:100E000040E06B8188EB91E00E94B7078FE99FE09B
:100E10000197F1F700C00000DF91CF910F91089585
:100E200040E0FC01608188EB91E00E94B7070895E3
:100E300041E0FC01608188EB91E00E94B7070895D2
:100E4000A2E0B0E0E6E2F7E00C9413098C0119820D
:100E500087E08A83E62EF12C8A8187FD2FC08A8164
:100E6000A70102C0559547958A95E2F7F80162817E
:100E700088EB91E00E94B70741E0F801638188EBBD
:100E800091E00E94B707D980F801618188EB91E079
:100E90000E94DB07982F8A81292F01C0220F8A9593
:100EA000EAF72D29298340E0F801638188EB91E07E
:100EB0000E94B7078A8181508A83CECF898122968A
:100EC000E7E00C942F09FC01683068F48AE290E0B6
:100ED0009183808389E290E0938382838BE290E028
:100EE000958384831FC088EF860F863070F424E2D8
:100EF00030E03183208323E230E03383228325E214
:100F000030E0358324838683089587E290E09183DF
:100F1000808386E290E09383828388E290E09583E9
:100F200084836E5066830895A1E0B0E0EAE9F7E0BB
:100F30000C9416098C0149830E946307D801ED9136
:100F4000FC91119716963C914981208181E090E0B7
:100F500001C0880F3A95EAF7411103C080958223BA
:100F600001C0822B80832196E4E00C943209A1E039
:100F7000B0E0EDEBF7E00C9416098C0149830E9478
:100F80006307D8011496ED91FC91159716963C9144
:100F90004981208181E090E001C0880F3A95EAF70D
:100FA00040FF02C0822B02C080958223808321965D
:100FB000E4E00C943209CF93DF93EC010E946307C5
:100FC000EA81FB81208130E0C9010E8002C0959545
:100FD00087950A94E2F78170DF91CF9108959091FF
:100FE000C00095FFFCCF8093C60080E090E008959C
:100FF0008091C00087FFFCCF8091C60090E00895EB
:101000001092C50087E68093C400E0ECF0E0808198
:101010008D7F808386E08093C20088E18093C10049
:10102000EDECF1E08FEE97E09187808713861286D2
:1010300082E0838315861486A0EEB1E01396FC93BC
:10104000EE931297EFEBF1E01186108688EF97E0B0
:101050009387828781E0838315861486ED93FC93C2
:1010600008958BEA91E00E94670086EA91E00E9471
:1010700067000895A2E5B0E0E0E4F8E00C94080908
:1010800081E391E00E94CD0A4BE76CE782EB91E0AF
:101090000E94E30282EB91E00E94E20284E491E08C
:1010A0009F938F930E94B00A8091E0019091E1019B
:1010B0000E94720A81E591E00E94CD0A40E063E05F
:1010C00088EB91E00E9494070F900F9000E010E0F1
:1010D00085E5282E81E0382E9FE6492E91E0592E95
:1010E0007E0129E2E20EF11C6E0181E5C80ED11CE1
:1010F0002DE7822E21E0922E32E9632E31E0732E0D
:1011000063E088EB91E00E94DB078130C9F71F9311
:101110000F933F922F920E94B00A1F930F935F92FA
:101120004F92FF92EF920E94FD0A58019FEFA91A79
:10113000B90A0FB6F894DEBF0FBECDBFF70101901C
:101140000020E9F73197AF014E195F09B70182EB33
:1011500091E00E94DB058EE290E00E94C60ABE018B
:101160006F5F7F4F82EB91E00E94810490E00097D7
:10117000D9F1E1E0F0E0EC0FFD1FE80FF91F10825C
:10118000DF92CF92A8E7B1E0BF93AF9381E090E008
:101190008C0F9D1F9F938F930E94200BD601119659
:1011A0008C9111978F938C918F939F928F920E9425
:1011B000B00A0FB6F894DEBF0FBECDBFD6018D9139
:1011C0009C918017910781F4E1E0F0E0EC0FFD1FA6
:1011D000FF93EF937F926F920E94B00A0F900F904F
:1011E0000F900F9085018CCFFFEF23EC89E0F15039
:1011F00020408040E1F700C00000A0CF82EB91E0EA
:101200000E94660608958BED91E00E940008089503
:101210002F923F924F925F926F927F928F929F9206
:10122000AF92BF92CF92DF92EF92FF920F931F93F4
:10123000CF93DF93CDB7DEB7CA1BDB0B0FB6F894A5
:10124000DEBF0FBECDBF09942A88398848885F84E5
:101250006E847D848C849B84AA84B984C884DF8056
:10126000EE80FD800C811B81AA81B981CE0FD11D3A
:101270000FB6F894DEBF0FBECDBFED010895EE0F9F
:10128000FF1F0590F491E02D0994CF93DF938230F6
:10129000910510F482E090E0E091DE01F091DF0131
:1012A00020E030E0C0E0D0E0309711F14081518182
:1012B00048175907C0F04817590761F48281938194
:1012C000209719F09B838A832BC09093DF01809332
:1012D000DE0126C02115310519F04217530718F415
:1012E0009A01BE01DF01EF010280F381E02DDCCF26
:1012F0002115310509F1281B390B2430310590F4F3
:1013000012968D919C9113976115710521F0FB0147
:101310009383828304C09093DF018093DE01FD01FB
:10132000329644C0FD01E20FF31F81939193225046
:1013300031092D933C933AC02091DC013091DD01BD
:10134000232B41F420910201309103013093DD0100
:101350002093DC012091000130910101211531051C
:1013600041F42DB73EB74091040150910501241B73
:10137000350BE091DC01F091DD01E217F307A0F4F9
:101380002E1B3F0B2817390778F0AC014E5F5F4FDB
:101390002417350748F04E0F5F1F5093DD0140932F
:1013A000DC018193919302C0E0E0F0E0CF01DF9196
:1013B000CF9108950F931F93CF93DF93009709F474
:1013C0008CC0FC013297138212820091DE011091D1
:1013D000DF010115110581F420813181820F931FF6
:1013E0002091DC013091DD012817390779F5F09360
:1013F000DD01E093DC0171C0D80140E050E0AE17A0
:10140000BF0750F412962D913C911397AD01211511
:10141000310509F1D901F3CF9D01DA01338322832C
:1014200060817181860F971F8217930769F4EC0121
:1014300028813981260F371F2E5F3F4F318320834C
:101440008A819B8193838283452B29F4F093DF016A
:10145000E093DE0142C01396FC93EE931297ED01E8
:10146000499159919E01240F351FE217F30771F43A
:1014700080819181840F951F029611969C938E9383
:101480008281938113969C938E931297E0E0F0E013
:10149000D80112968D919C911397009719F0F8013D
:1014A0008C01F6CF8D919C9198012E5F3F4F820F5A
:1014B000931F2091DC013091DD012817390769F471
:1014C000309729F41092DF011092DE0102C01382DE
:1014D00012821093DD010093DC01DF91CF911F9107
:1014E0000F910895CF93DF93EC012B8120FF33C040
:1014F00026FF0AC02F7B2B838E819F8101969F83BD
:101500008E838A8190E029C022FF0FC0E881F98193
:101510008081082E000C990B009719F420622B8310
:101520001AC03196F983E8830EC0EA85FB850995D8
:1015300097FF09C02B81019611F080E201C080E184
:10154000822B8B8308C02E813F812F5F3F4F3F83CB
:101550002E83992702C08FEF9FEFDF91CF910895DF
:10156000A0E0B0E0E6EBFAE00C941809AE014B5FA6
:101570005F4FFA0161917191AF018091E201909109
:10158000E3010E94390BE2E00C9434096091E2011E
:101590007091E3010E94E30F08950F931F93CF937F
:1015A000DF93E091E201F091E301238121FF1BC071
:1015B0008C01D0E0C0E0F80181918F016091E201DF
:1015C0007091E301DB011896ED91FC911997882346
:1015D00031F00995892B79F3DFEFCFEFECCF8AE07B
:1015E0000995892B19F08FEF9FEF02C08D2F9C2F4B
:1015F000DF91CF911F910F910895AEE0B0E0E3E04D
:10160000FBE00C9416090D891E8986E08C831A83F1
:1016100009838FEF9FE79E838D83AE01475E5F4F07
:101620006F89788DCE0101960E94390B2F81388504
:10163000F801E20FF31F10822E96E4E00C943209B9
:10164000AEE0B0E0E6E2FBE00C94180985E08C83A4
:101650008B899C899A838983AE01495E5F4F6D892E
:101660007E89CE0101960E948B0E2E96E2E00C94AC
:101670003409ACE0B0E0EFE3FBE00C9408097C0136
:101680006B018A01FC0117821682838181FFBDC133
:10169000CE0101964C01F7019381F60193FD8591EE
:1016A00093FF81916F01882309F4ABC1853239F42E
:1016B00093FD859193FF81916F01853229F4B701E4
:1016C00090E00E94E30FE7CF512C312C20E0203234
:1016D000A0F48B3269F030F4803259F0833269F42F
:1016E00020612CC08D3239F0803339F4216026C05E
:1016F0002260246023C0286021C027FD27C030ED70
:10170000380F3A3078F426FF06C0FAE05F9E300DBD
:101710001124532E13C08AE0389E300D1124332E2D
:1017200020620CC08E3221F426FD6BC1206406C0FD
:101730008C3611F4206802C0883641F4F60193FD1E
:10174000859193FF81916F018111C1CF982F9F7D6A
:101750009554933028F40C5F1F4FFFE3F9830DC0BD
:10176000833631F0833771F0833509F05BC022C0D6
:10177000F801808189830E5F1F4F44244394512CCC
:10178000540115C03801F2E06F0E711CF801A08001
:10179000B18026FF03C0652D70E002C06FEF7FEFC0
:1017A000C5012C870E94D80F2C0183012C852F772F
:1017B000222E17C03801F2E06F0E711CF801A080D4
:1017C000B18026FF03C0652D70E002C06FEF7FEF90
:1017D000C5012C870E94CD0F2C012C852068222E5C
:1017E000830123FC1BC0832D90E048165906B0F4FA
:1017F000B70180E290E00E94E30F3A94F4CFF50144
:1018000027FC859127FE81915F01B70190E00E943E
:10181000E30F31103A94F1E04F1A5108411451048A
:1018200071F7E5C0843611F0893639F5F80127FFE4
:1018300007C060817181828193810C5F1F4F08C056
:1018400060817181072E000C880B990B0E5F1F4F72
:101850002F76722E97FF09C09095809570956195AF
:101860007F4F8F4F9F4F2068722E2AE030E0A401F7
:101870000E943410A82EA81844C0853729F42F7E62
:10188000B22E2AE030E025C0F22FF97FBF2E8F362E
:10189000C1F018F4883579F0B4C0803719F0883772
:1018A00021F0AFC02F2F2061B22EB4FE0DC08B2DC2
:1018B0008460B82E09C024FF0AC09F2F9660B92EFD
:1018C00006C028E030E005C020E130E002C020E1A1
:1018D00032E0F801B7FE07C0608171818281938197
:1018E0000C5F1F4F06C06081718180E090E00E5F49
:1018F0001F4FA4010E943410A82EA818FB2DFF77BB
:101900007F2E76FE0BC0372D3E7FA51450F474FE5B
:101910000AC072FC08C0372D3E7E05C0BA2C372D98
:1019200003C0BA2C01C0B52C34FF0DC0FE01EA0D76
:10193000F11D8081803311F4397E09C032FF06C069
:10194000B394B39404C0832F867809F0B39433FD25
:1019500013C030FF06C05A2CB31418F4530C5B1894
:10196000B32CB31468F4B70180E290E03C870E9486
:10197000E30FB3943C85F5CFB31410F43B1801C0CA
:10198000312C34FF12C0B70180E390E03C870E9405
:10199000E30F3C8532FF17C031FD03C088E790E0BC
:1019A00002C088E590E0B7010CC0832F867859F01B
:1019B00031FF02C08BE201C080E237FD8DE2B7014A
:1019C00090E00E94E30FA51438F4B70180E390E0A3
:1019D0000E94E30F5A94F7CFAA94F401EA0DF11D87
:1019E0008081B70190E00E94E30FA110F5CF332072
:1019F00009F451CEB70180E290E00E94E30F3A94DF
:101A0000F6CFF7018681978102C08FEF9FEF2C966A
:101A1000E2E10C94240920FD09C0FC0123FD05C06E
:101A200022FF02C07383628351834083089544FD83
:101A300010C046FD10C0DB01FC01AA0FBB1FEE1F4A
:101A4000FF1F1094D1F76A0F7B1F8E1F9F1F31E07D
:101A500003C033E001C034E0660F771F881F991F71
:101A60003150D1F7620F711D811D911D08950F93A3
:101A70001F93CF93DF938C01C8010E94720AEC017F
:101A800097FD08C00E94B90F892BB1F7B801CE01AC
:101A90000E941B10CE01DF91CF911F910F910895ED
:101AA000A1E0B0E0E6E5FDE00C940E098C01C62E45
:101AB0007A0129830E94720AAC01552729814B3291
:101AC000510521F04D32510569F42068CA94C110C6
:101AD00002C080E076C0C80129830E94720A298171
:101AE00097FDF7CF322F3D7FD32E322F307349F53C
:101AF000803339F5BB24BA94BC0C09F44EC0C8013C
:101B000029830E94720A298197FD47C0382F3F7DA3
:101B1000383569F48D2D8264D82ECA94CA94CC20AD
:101B2000E1F1C8010E94720A97FF0BC036C026FF80
:101B300004C02D2D2260D22E03C03D2D3261D32E44
:101B4000CB2C812C912C540120ED280F283080F0D3
:101B5000D4FE04C0B8010E941B101CC02A3040F003
:101B6000D6FEF8CF2F7D3FEE320F363098F7275054
:101B70004D2DC501B4010E94170D4B015C018D2D47
:101B80008260D82ECA94CC2059F0C8010E94720AF3
:101B900097FFDACFD1FC04C09CCF812C912C54014B
:101BA000D7FE08C0B094A09490948094811C911C9E
:101BB000A11CB11C2D2DB501A401C7010E940B0D64
:101BC00081E02196ECE00C942A09A1E2B0E0EBEE72
:101BD000FDE00C940C095C017A01CE0101966C01C8
:101BE00080E2F60111928A95E9F7F501838040E0E1
:101BF00050E0912C712C70E0A1E0B0E0F90183FC81
:101C0000859183FE81918F01982F9F01811103C0DF
:101C100080E090E07CC08E3519F44115510549F102
:101C2000E72FF0E0E417F5073CF48D3559F18D32DC
:101C300019F4772001F103C0711001C0982E892F8B
:101C40008695869586958601080F111D892F8770C8
:101C50003D0101C0660C8A95EAF7F801808186296A
:101C60008083991559F0991510F49F5FE8CF915032
:101C7000E6CF71E004C07724739401C0712C4F5FEC
:101C80005F4FBCCF772019F08E8180628E837111F7
:101C900003C09924939416C0F6019E012F5D3F4F17
:101CA000808180958193E217F307D1F7F2CFE11499
:101CB000F10429F0F7018083C70101967C0161508E
:101CC000912CF9F0C50169A30E94720A69A197FDE0
:101CD00016C0282F269526952695F601E20FF11DB0
:101CE000208130E0AC014770552702C0359527951B
:101CF0004A95E2F720FDDBCFB5010E941B10911041
:101D000087CFE114F10411F0F7011082C801A19608
:101D1000EEE00C9428094F925F927F928F929F92EF
:101D2000AF92BF92CF92DF92EF92FF920F931F93E9
:101D3000CF93DF931F92CDB7DEB76C012B015A0111
:101D4000FC0117821682712CF601F380F201F3FC7C
:101D50008591F3FE8191382F2F01882309F4F3C078
:101D600090E039830E94B90F3981892B21F0C60197
:101D70000E94370DE9CF353241F4F201F3FC359181
:101D8000F3FE31912F01353269F4C60139830E9487
:101D9000720A398197FDD5C03817B1F2B6010E9499
:101DA0001B10D1C03A3239F4F3FC3591F3FE319176
:101DB0002F0151E001C050E0420110E020ED230F5F
:101DC0002A3090F45260612F70E080E090E040E2B1
:101DD00059830E94170D162FF401F3FC3591F3FE81
:101DE00031914F015981EACF052F232F240151FF53
:101DF00003C0111102C0A7C01FEF383619F03C36DE
:101E000059F011C0F401F3FC2591F3FE21912F014B
:101E1000283649F4052F08600460F201F3FC25918F
:101E2000F3FE21912F01222309F48DC0622F70E06F
:101E300088E690E029830E94C20F2981892B09F44A
:101E400082C000FD07C0F501E080F180C501029667
:101E50005C0102C0E12CF12C2E3651F4F6014681D2
:101E6000578160E070E0202FC7010E940B0D6CCFFE
:101E7000233691F401FF11E0C6010E94720A97FD1A
:101E800060C0E114F10429F0F7018083C7010196D5
:101E90007C01115089F751C02B3559F49201A701EB
:101EA000612FC6010E94E50D2C01892B09F045C068
:101EB0003FC0C60129830E94370D298197FD41C08B
:101EC0002F3659F128F4243631F1293649F127C04B
:101ED000233769F02537F9F022C0E114F10429F025
:101EE000F7018082C70101967C01115071F0C60193
:101EF0000E94720A4C0197FD08C00E94B90F892BFD
:101F000061F3B601C4010E941B10E114F104A9F0B1
:101F1000F701108212C0006203C0006101C00064BA
:101F2000202FA701612FC6010E94500D811105C00D
:101F3000F6018381807329F406C000FD05CF7394F8
:101F400003CF772019F0872D90E002C08FEF9FEF2D
:101F50000F90DF91CF911F910F91FF90EF90DF9045
:101F6000CF90BF90AF909F908F907F905F904F9059
:101F7000089591110C949210803219F08950855077
:101F8000C8F70895FC010590061621F00020D9F746
:101F9000C00108953197CF010895FC01059061506B
:101FA00070400110D8F7809590958E0F9F1F08956F
:101FB000FC016150704001900110D8F78095909518
:101FC0008E0F9F1F08950F931F93CF93DF93FB01F5
:101FD000238121FD03C08FEF9FEF28C022FF16C091
:101FE00046815781248135814217530744F4A081EB
:101FF000B1819D012F5F3F4F318320838C932681D8
:1020000037812F5F3F4F3783268310C0EB01092FA5
:10201000182F0084F185E02D0995892BE1F68E813A
:102020009F8101969F838E83812F902FDF91CF9187
:102030001F910F910895FB01238120FF12C026FDFF
:1020400010C08F3F3FEF930761F082832F7D2064A4
:1020500023832681378121503109378326839927AD
:1020600008958FEF9FEF0895FA01AA27283051F1C4
:10207000203181F1E8946F936E7F6E5F7F4F8F4FB9
:102080009F4FAF4FB1E03ED0B4E03CD0670F781F18
:10209000891F9A1FA11D680F791F8A1F911DA11DFD
:1020A0006A0F711D811D911DA11D20D009F4689436
:1020B0003F912AE0269F11243019305D3193DEF6DE
:1020C000CF010895462F4770405D4193B3E00FD094
:1020D000C9F7F6CF462F4F70405D4A3318F0495D7F
:1020E00031FD4052419302D0A9F7EACFB4E0A69562
:1020F0009795879577956795BA95C9F70097610584
:10210000710508959B01AC010A2E069457954795D9
:1021100037952795BA95C9F7620F731F841F951FCE
:0E212000A01D0895992788270895F894FFCFF1
:10212E000000E601800041434B00696E69636961FE
:10213E006C697A6163616F20646F207472616E7373
:10214E00636569766572203A004F4B004552524FD7
:10215E00004D4F44554C4F205452414E534D495310
:10216E00534F520044696769746520456E746572F9
:10217E00004F4B0A00456E766961206D656E736186
:10218E0067656D206E756D65726F3A25640A006D18
:10219E00656E736167656D3A2530346400202020CA
:1021AE002D2D2D2D20726563656265753A2025648F
:1021BE000A00466F6920636F6E6669726D616461B5
:0621CE003A2025730A000F
:00000001FF
