:020000040000FA
:0402FC00FFFFFFFF02
:020000041000EA
:10000000B84200106D010010710100107301001062
:100010007501001077010010790100100000000048
:100020000000000000000000000000007B01001044
:100030007D010010000000007F0100108101001010
:100040008301001083010010830100108301001060
:100050008301001083010010830100108301001050
:100060008301001083010010830100108301001040
:100070008301001083010010830100108301001030
:100080008301001083010010830100108301001020
:100090008301001083010010830100108301001010
:1000A000F50500108301001083010010830100108A
:1000B00083010010830100108301001083010010F0
:1000C00083010010830100108301001000F002F88A
:1000D00000F03CF80AA090E8000C82448344AAF1A6
:1000E0000107DA4501D100F031F8AFF2090EBAE8A4
:1000F0000F0013F0010F18BFFB1A43F0010318475C
:10010000C00F0000E00F0000103A24BF78C878C18B
:10011000FAD8520724BF30C830C144BF04680C600D
:10012000704700000023002400250026103A28BF55
:1001300078C1FBD8520728BF30C148BF0B60704759
:100140001FB500F031FF1FBD10B510BD00F0D1FC90
:100150001146FFF7F5FF00F045FB00F0EFFC03B49C
:10016000FFF7F2FF03BC00F0F9FC0000084800476D
:10017000FEE7FEE7FEE7FEE7FEE7FEE7FEE7FEE757
:10018000FEE7FEE703480449024A044B70470000BB
:10019000CD000010B8400010B8420010B840001068
:1001A00070B553482021C0F8A011D0F8A01149061D
:1001B000FBD500F180000326C0F884604FF00004F6
:1001C000C0F82841C0F82C414FF00105C0F88C5010
:1001D0004FF00B01416005604FF0AA02C2604FF082
:1001E0005503C360A0F18000D0F888104901FBD509
:1001F00040F8806FC260C360232141620562C26221
:10020000C362A0F18000D0F8A8104905FBD500F129
:1002100088008661426243623649C163C0F840414A
:1002200050F88819344A6FEA11618907D0F80C1127
:1002300001F0030107D091B3012946D002294AD029
:10024000032951D13BE029B1012911D0022927D03E
:10025000032949D150F8881FC1F30E01491C4B00F6
:100260000168C1F30741491CB3FBF1F1234B0CE0DA
:1002700050F8881FC1F30E01491C4B000168C1F3FF
:100280000741491CB3FBF1F11D4B5943C36FA0F16A
:100290008800DBB203F10103B1FBF3F123E00EE0D0
:1002A00050F8881FC1F30E01491C4B000168C1F3CF
:1002B0000741491CB3FBF1F14FF4FA43E5E7D0F8ED
:1002C00004110E4BC9B2491C0BE0D0F804110C4BC1
:1002D000C9B2491C05E0D0F804114FF4FA43C9B281
:1002E000491CB3FBF1F1116043F23A01016070BDAA
:1002F00000C00F40DE8728040040001000093D00C8
:10030000001BB70001464FEA00704FEAD0600906B3
:1003100000D5401C7047DF491022C1F80822C1F8FF
:100320001002D1F80002C006FBD57047D94A10234D
:10033000C2F80832C2F81002D2F80002C006FBD59B
:10034000C2F80832C2F81012D2F80002C006FBD57B
:10035000704710B5CF4A10230C46C2F80832FFF799
:10036000D1FF4FF4A06141EA0040C2F81002D2F878
:100370000002C006FBD5C2F80832C2F81042D2F81B
:100380000002C006FBD510BDC2493022C1F80822C8
:10039000C1F81002D1F800028006FBD5D1F8140292
:1003A000704730B5BC49BD4D41EA0044214628465E
:1003B000FFF7BCFF21462846BDE83040B6E7B84805
:1003C0000021016008214160012202604160A0F526
:1003D0001270D0F80012C905FBD500F501704FF07E
:1003E000FF314163016341604FF00C0101607047D0
:1003F000AC4800B5416821F070514160416841F05E
:10040000A0514160C168A84A1140C160C168A74AB3
:100410001143C160016921F440210161016941F486
:1004200080210161A248016841F0004101609949C1
:100430004FF01A03C1F8F43FD1F8F82F33EA020065
:10044000FAD19C484FF080710160FFF7B8FF00209F
:100450005DF804EBA5E700B101204FF4807141EA9B
:100460000041954862E770477047944800888007CC
:1004700002D59349904859E77047704710B500B1CD
:1004800001204FF4807444EA00418E48FFF74EFF8C
:1004900080480321C0F84412D0F80012C905FBD5EA
:1004A000C0F8084210BD10B502468078FFF72AFF59
:1004B0007B49091F0B68012404FA00F423430B60F5
:1004C000486090888860A1F51171D1F80002C005DC
:1004D000FBD54FF48070C1F8080210BD704700B51D
:1004E000FFF710FF78495DF804EB41EA00408913FB
:1004F0001CE700B5FFF706FF73495DF804EB41EA1E
:100500000040724912E700B5FFF7FCFE6E495DF846
:1005100004EB41EA0040891308E700B5FFF7F2FE5B
:1005200069495DF804EB41EA00406549FEE600B523
:10053000FFF7E8FE64495DF804EB41EA00408913E7
:10054000F4E6634905E770B50546524B00F00F002D
:10055000012202EB8000C3F82802D3F82002020532
:10056000FBD5C0F309040022E01C04E0D3F81862B4
:1005700041F8046B521CB2EB900FF7D30020C3F884
:10058000280241F24820E840C00703D150492846DC
:10059000FFF7DFFE204670BD70B514463D4D00F0FC
:1005A0000F02022303EB8202C5F82822C5F8244279
:1005B0000023E21C04E051F8046BC5F81C625B1CCC
:1005C000B3EB920FF7D30021C5F828124149FFF78A
:1005D000C0FE204670BD10B53F48FFF79CFE3F4C63
:1005E0002046FFF7D1FE03462046FFF7CDFE43EA43
:1005F000002010BD2DE9F0472649D1F8000202077E
:1006000010D50820C1F808022B48FFF784FE3448B3
:10061000FFF7BAFEC00603D5FFF7D1FE00F064F87D
:10062000BDE8F0874007FBD5D1F830620025884649
:100630002C4F2C464FF00109AE4219D009FA04F0B4
:10064000304212D005434FEA54014246C8F83802FE
:10065000D2F800028006FBD5D2F81402E2070BD0D4
:1006600057F8211009B103208847641C202CE3D3DC
:100670000421C8F80812D3E734B9400704D5386814
:1006800010B101460120EFE757F821100029ECD006
:100690000220E9E700C00050000180000005D00002
:1006A00048C2005000C00240CFFFFFCF1000002022
:1006B000C4C00F4000E100E00005FE003040001023
:1006C000000101000005D8000005400000012000E5
:1006D0000005F2000005FA000005F5000002F50033
:1006E0000002FE00B80F001000F0F0B8144810B57A
:1006F0000078002808D000F027F80122BDE810405B
:1007000010498120FFF748BF10BD10B5032808D15C
:1007100000F01AF80122BDE810400A498120FFF7D5
:100720003BBF10BD704770477047704770477047B8
:100730007047704770477047704770477047704701
:100740002D400010044000103548406B792101EA2B
:100750001050344900220A70C20601D401220A70E6
:10076000020703D40A7842F002020A70820603D418
:100770000A7842F004020A70C20703D10A7842F0F4
:1007800008020A70400603D4087840F01000087090
:10079000704770B52349234A00204C780125204931
:1007A000121D05FA00F323420BD0032804DA4B6B29
:1007B00052F8206033430AE04B6D52F82060334317
:1007C0000BE0032805DA4B6B52F82060B3434B6310
:1007D00004E04B6D52F82060B3434B65401C082881
:1007E000DFDB70BD1048016841F030410160016AF3
:1007F00041F07C010162016821F0F2610160016E4B
:1008000041F080510166416F21F080514167FFF74F
:10081000C7FCFFF7EDFD0120FFF71DFEFEE700001E
:1008200000C009200440001020C00920224810B553
:10083000C078012804D002280AD0032806D107E096
:10084000FFF782FF1D481E4900780870012010BD87
:10085000002010BD184810B5C07801280CD002281F
:1008600002D0032806D107E0154816490078087021
:10087000FFF78FFF012010BD002010BD0E48124968
:100880008078085C0E490870012070470A480E4ABB
:10089000C17880781154012070470B480849401EE8
:1008A000007808700120704703480749491E807886
:1008B00008700120704700005040001004400010F4
:1008C00040400010054000102940001086480021DB
:1008D0004FF00112818001704170C0E90221016175
:1008E0007047814924310020FFF72DBE10B57E4CA2
:1008F0001C34A288082A00D9082280202168FFF72A
:100900004BFE216801442160A188081AA08010BD17
:1009100010B5754C00201C342168FFF714FE2168C7
:1009200001442160A188081AA08010BD0022114650
:100930008020FFF731BE6C4914310020FFF703BE61
:100940002DE9F041684C00271C3404F10805664E7F
:100950002978082875D2DFE800F0740489B074742F
:10096000BFC1FFF7BEFF2878C009FFF7B7FDE888D1
:10097000A0802878C0F3411111B1012971D143E061
:1009800069780C296DD2DFE801F006096C0B6C0F59
:10099000171B1D232C3B00F047F90FE0002000E05F
:1009A000012000F07DF92DE0C0F30400C8BBA87859
:1009B00040F0800030707AE000F0D8F888B37EE034
:1009C00000204FE0C0F3040058BB4748401C15E02E
:1009D00000F0B2F928B3FFF7A9FFBDE8F041FFF737
:1009E00085BEC0F3040001283BD17078C8B12879D6
:1009F000B178884235D23C49C91C084420605EE089
:100A000000F04CFA68B152E0C0F3040048B101288C
:100A100027D1287928B96878334D14350C2820D28D
:100A200001E01AE00DE0DFE800F01C060E141C1CCB
:100A30001C1C1C0B1119FFF7F9FE0CE025603EE0B1
:100A40002560BDE8F081FFF719FF04E0FFF71EFF06
:100A50002BE0FFF722FF0028F0D102E0FFF724FF90
:100A600023E08020FFF759FDA780EAE7080621D49C
:100A7000A0880028E5D0FFF74BFFA0880028E0D130
:100A80002878C0F341110029EBD00129E9D1C0F346
:100A900004000028E5D00128E3D128790028E0D11E
:100AA00068780928DDD1FFF7D5FE0028D9D0BDE848
:100AB000F0413BE7BDE8F0413DE7080602D5BDE85F
:100AC000F04113E730780106BBD500F07F003070AD
:100AD000BDE8F041FFF765BC002000E08020BDE8E4
:100AE000F041FFF724BD00002C4000107047704714
:100AF0007047754600F028F8AE4605006946534633
:100B000020F00700854618B020B5FFF73BFBBDE895
:100B100020404FF000064FF000074FF000084FF064
:100B2000000B21F00701AC46ACE8C009ACE8C009F5
:100B3000ACE8C009ACE8C0098D4670470446AFF385
:100B400000802046FFF70BFB00487047584000101C
:100B500001487047704700BF5C40001001491820F1
:100B6000ABBEFEE72600020070470000284810B523
:100B70000078274CC0F304012548083CC07811B127
:100B8000012938D129E0012806D0214902288B7893
:100B900006D003282FD112E01E482060122030E03A
:100BA0001D48002104E002780AB142881044491C23
:100BB0008B42F8D10178F1B12060408821E01748DC
:100BC000002103E0027802B11044491C8B42F9D1A4
:100BD000017881B12060007813E00D49212809795E
:100BE00002D0222807D105E029B90B481230206035
:100BF000092006E009B1002010BD0948206009481D
:100C00000088A188814200D9A080012010BD000089
:100C10005040001026100010381000105B1000101B
:100C2000F80F00102410001070B51C481B4C007801
:100C3000083CC0F3040058B11849A4F11C03A4F106
:100C400008055A780979012806D0022824D109E03C
:100C50001248203820601DE0F2B1987881421BD202
:100C6000002015E001F08F00012101FA00F10606D5
:100C700004D500F00F064FF48031B1400AB90007E7
:100C80000AD19868084207D0D868084000D00120EF
:100C900028802560012070BD002070BD50400010EC
:100CA00070B5244B0246194618784988C0F30400F1
:100CB000A3F1240520B1012829D0022827D111E071
:100CC000012924D132B10120FFF7D7FBA88840F0D9
:100CD000020005E00020FFF7D0FBA88820F002000A
:100CE000A88024E01879012400F08F0004FA00F4B1
:100CF000030604D500F00F034FF480349C406B785A
:100D00002BB1030703D0AB68234200D009B1002008
:100D100070BD22B1FFF701FCE868204306E02969B5
:100D2000214204D1FFF703FCE868A043E8600120FA
:100D300070BD0000504000102DE9F05F55480026BE
:100D40000178C1F30401F1BBDFF848818078B14636
:100D50004FF0010A4FF4803BA8F12408A0B34E4C99
:100D600065E06078022804D0042842D005285CD1D0
:100D700041E0484861798078814238D188F80100A3
:100D8000207988F80200434900204746213901F8BC
:100D90000090401CFBD00125B9680AFA05F0084212
:100DA00002D02846FFF7A5FBB9680BFA05F0084208
:100DB00003D045F08000FFF79CFB6D1C102DEBD39A
:100DC0004FF0011001E060E035E0C7E902090120C1
:100DD000C7F81090FFF752FBE0794006B88802D5BB
:100DE00040F0010001E020F00100B8801DE06088C3
:100DF0001CE0E67819E0C6B9A07800F08F050AFA81
:100E000005F0290603D505F00F010BFA01F0D8F81B
:100E1000081001432046C8F80810FFF744FB284695
:100E2000FFF75DFB2846FFF76EFB2078044420782F
:100E3000002896D123E04D4688F8019001245E46B3
:100E4000D8F808100AFA04F0084202D02046FFF74A
:100E500050FBD8F8081006FA04F0084203D044F01A
:100E60008000FFF746FB641C102CE9D34FF0011003
:100E7000C8E902050020C8F81050FFF7FFFA05483E
:100E800098F801108078884202D00020BDE8F09FD9
:100E90000120FBE750400010381000102DE9F84FFA
:100EA0003F4800273E460078BA46C0F30400B946E2
:100EB000012802D00020BDE8F88FDFF8E4B0ABF1E4
:100EC000240B9BF801000028F5D00020354C009041
:100ED00060E06078022804D0042809D0052857D1A2
:100EE00019E061799BF80100814251D0608850E09F
:100EF0002B48A778E67801794FF00009B94247D12D
:100F00008078B04244D1012000902548213810F863
:100F100007A0C6553CE022490879B84238D1A078EC
:100F2000012500F08F0805FA08F55FEA086004D58E
:100F300008F00F004FF4803585408878B04215D115
:100F4000DBF8081020462943CBF80810DBF80C101A
:100F5000A943CBF80C10FFF7A6FA4046FFF7BFFAFB
:100F60004046FFF7D0FA49EA050911E056450FD18E
:100F700019EA050F0CD1DBF808104046A943CBF85D
:100F80000810DBF80C10A943CBF80C10FFF7B1FAEE
:100F900020780444207800289BD100988BE700003B
:100FA000504000103810001010B5FFF7D1FD4FF081
:100FB0000001016010BD0000410900100B07001086
:100FC0000000000000000000000000000000000021
:100FD0000000000000000000000000000000000011
:100FE0000000000000000000000000000000000001
:100FF00000000000000000000600FF0901A101053B
:101000000919012903150025019503750181029530
:1010100001750581010508094B1500250195087525
:10102000019102C02C001201000200000008C91F3B
:101030000280000101020301090222000101008077
:10104000320904000001030000040921000100012D
:10105000222C000705810304002000040309041C5E
:10106000034E00580050002000530045004D004939
:101070000043004F004E004400200022034C00506B
:1010800000430031003700780078002000550053FD
:10109000004200200048004900440020001A034498
:1010A0000045004D004F003000300030003000306F
:1010B00000300030003000080348004900440000C0
:1010C000E01000100040001058000000080100105F
:1010D0003811001058400010600200002401001078
:1010E00000093D000000000000000010000000208A
:1010F0000000008004000000080000001000000054
:10110000200000004000000000000000000000007F
:1011100000000000000000000000000000000000CF
:1011200000000000000000000000000000000000BF
:081130000000000000000000B7
:04000005100000CD1A
:00000001FF
