:108000004FF00004EFF309842046704723461846DA
:10801000034683F3098870474FF00004EFF30884A8
:108020002046704723461846034683F30888704766
:1080300080B483B000AF4FF000037B60EFF3128396
:108040007B607B68184607F10C07BD4680BC704713
:1080500080B483B000AF78607B6883F3118807F148
:108060000C07BD4680BC704780B483B000AF4FF0B2
:1080700000037B60EFF310837B607B68184607F199
:108080000C07BD4680BC704780B483B000AF7860F9
:108090007B6883F3108807F10C07BD4680BC7047EE
:1080A00080B483B000AF4FF000037B60EFF3138325
:1080B0007B607B68184607F10C07BD4680BC7047A3
:1080C00080B483B000AF78607B6883F3138807F1D6
:1080D0000C07BD4680BC704780B483B000AF4FF042
:1080E00000037B60EFF314837B607B68184607F125
:1080F0000C07BD4680BC704780B483B000AF786089
:108100007B6883F3148807F10C07BD4680BC704779
:1081100080B485B000AF78604FF00003FB607B68EF
:108120001BBAFB60FB68184607F11407BD4680BC0C
:10813000704700BF80B485B000AF0346FB804FF0AE
:108140000003FB60FB885BBAFB60FB68184607F125
:108150001407BD4680BC704780B485B000AF0346AD
:10816000FB804FF00003FB60FB88DBBAFB60FB6821
:10817000184607F11407BD4680BC704780B485B02F
:1081800000AF78604FF00003FB607B6893FAA3F3C5
:10819000FB60FB68184607F11407BD4680BC7047BA
:1081A00080B485B000AF78604FF00003FB737B684C
:1081B000D3E84F3FFB73FB7B184607F11407BD461E
:1081C00080BC704780B485B000AF78604FF000038A
:1081D000FB817B68D3E85F3FFB81FB89184607F191
:1081E0001407BD4680BC704780B485B000AF78608E
:1081F0004FF00003FB607B6853E8003FFB60FB68C7
:10820000184607F11407BD4680BC704780B485B09E
:1082100000AF03463960FB714FF00003FB603B6821
:10822000FA79C3E8432FFB60FB68184607F114078F
:10823000BD4680BC704700BF80B485B000AF034628
:108240003960FB804FF00003FB603B68FA88C3E8AD
:10825000532FFB60FB68184607F11407BD4680BC2E
:10826000704700BF80B485B000AF786039604FF0D0
:108270000003FB603B687A6843E80023FB60FB680F
:10828000184607F11407BD4680BC704780B400AFA4
:108290004CF20003C2F209034FF47F621A604CF201
:1082A0006003C2F209034FF0FF321A604CF2800300
:1082B000C2F209034FF0FF321A60BD4680BC70471E
:1082C00090B492B000AF0346FB7148F2DC73C0F289
:1082D000000307F1080C1C460FCCACE80F000FCCD4
:1082E000ACE80F000FCCACE80F0094E80F008CE86E
:1082F0000F004CF20003C2F20903FA794FEA82023E
:1083000007F148010A4452F8402C92B29A8207F1D0
:108310004807BD4690BC704780B485B000AF786018
:108320004FF00003FB6003E0FB6803F10103FB6017
:108330007B6840F6B83202FB03F2FB689A42F3DC3A
:1083400007F11407BD4680BC704700BF80B582B0FE
:1083500000AF00F039F9FFF799FF4CF28003C2F249
:1083600009034FF070425A614CF26003C2F20903F4
:108370004FF070625A614FF00003FB710BE0FB7924
:108380001846FFF79DFF4FF4FA60FFF7C5FFFB7932
:1083900003F10103FB71FB790F2BF0D9EBE700BF71
:1083A00080B400AF4CF20003C4F20F03D3F888305E
:1083B0004FEA136303F00303032B40F0AC804CF24D
:1083C0000003C4F20F03D3F80C3103F00303032BB3
:1083D00000F2F68001A252F823F000BFED83000006
:1083E00051840000B7840000ED8300004CF20003CC
:1083F000C4F20F03D3F888304FEA43434FEA5343A4
:1084000003F1010241F20023C0F27A0303FB02F2FE
:108410004CF20003C4F20F03D3F888304FEA134341
:1084200003F0FF0303F10103B2FBF3F24CF200038C
:10843000C4F20F03D3F8043103F0FF0303F1010387
:10844000B2FBF3F240F61C03C0F201031A60B8E07D
:108450004CF20003C4F20F03D3F888304FEA4343D1
:108460004FEA534303F1010243F20063C0F26E137B
:1084700003FB02F24CF20003C4F20F03D3F888307E
:108480004FEA134303F0FF0303F10103B2FBF3F2DE
:108490004CF20003C4F20F03D3F8043103F0FF03DE
:1084A00003F10103B2FBF3F240F61C03C0F2010337
:1084B0001A6000BF85E04CF20003C4F20F03D3F84A
:1084C00088304FEA43434FEA534303F101034FF42B
:1084D0007A4202FB03F24CF20003C4F20F03D3F81A
:1084E00088304FEA134303F0FF0303F10103B2FBAB
:1084F000F3F24CF20003C4F20F03D3F8043103F09B
:10850000FF0303F10103B2FBF3F240F61C03C0F2D8
:1085100001031A6055E04CF20003C4F20F03D3F8D4
:108520000C3103F00303032B4BD801A252F823F0C4
:10853000418500006D85000099850000418500009F
:108540004CF20003C4F20F03D3F8043103F0FF032D
:1085500003F1010240F60013C0F23D03B3FBF2F257
:1085600040F61C03C0F201031A602AE04CF200033B
:10857000C4F20F03D3F8043103F0FF0303F1010247
:1085800041F60033C0F2B703B3FBF2F240F61C032E
:10859000C0F201031A6014E04CF20003C4F20F03AE
:1085A000D3F8043103F0FF0303F101034FF4FA425F
:1085B000B2FBF3F240F61C03C0F201031A6000E0C4
:1085C00000BFBD4680BC704780B400AF4CF20003D2
:1085D000C4F20F034FF02002C3F8A0214CF20003B5
:1085E000C4F20F03D3F8A03103F04003002BF5D001
:1085F0004CF20003C4F20F034FF00302C3F804214E
:108600004CF20003C4F20F034FF00102C3F80C2137
:108610004CF20003C4F20F0340F26302C0F2050201
:10862000C3F884204CF20003C4F20F034FF0AA02F7
:10863000C3F88C204CF20003C4F20F034FF0550234
:10864000C3F88C204CF20003C4F20F034FF0010278
:10865000C3F880204CF20003C4F20F034FF0AA02CB
:10866000C3F88C204CF20003C4F20F034FF0550204
:10867000C3F88C204CF20003C4F20F03D3F8883007
:1086800003F08063002BF5D04CF20003C4F20F031B
:108690004FF00302C3F880204CF20003C4F20F0332
:1086A0004FF0AA02C3F88C204CF20003C4F20F036F
:1086B0004FF05502C3F88C204CF20003C4F20F03B4
:1086C000D3F8883003F04073002BF5D04CF2000350
:1086D000C4F20F034FF02302C3F8A4204CF20003AE
:1086E000C4F20F034FF0AA02C3F8AC204CF200030F
:1086F000C4F20F034FF05502C3F8AC204CF2000354
:10870000C4F20F034FF00102C3F8A0204CF20003A3
:10871000C4F20F034FF0AA02C3F8AC204CF20003DE
:10872000C4F20F034FF05502C3F8AC204CF2000323
:10873000C4F20F03D3F8A83003F48063002BF5D004
:108740004CF20003C4F20F034FF00302C3F8A02061
:108750004CF20003C4F20F034FF0AA02C3F8AC209E
:108760004CF20003C4F20F034FF05502C3F8AC20E3
:108770004CF20003C4F20F03D3F8A83003F44073A3
:10878000002BF5D04CF20003C4F20F034FF00002AF
:10879000C3F8A8214CF20003C4F20F034FF000020B
:1087A000C3F8AC214CF20003C4F20F0348F2DE72AE
:1087B000C0F22842C3F8C4204CF20003C4F20F03F5
:1087C0004FF00002C3F8C8214CF20003C4F20F03BB
:0C87D00043F23A021A60BD4680BC7047BC
:1087DC00FFF300006FF00000BFF50000FFF4000095
:1087EC006FF60000DFF60000CFF700007FF000000E
:1087FC00FFF700007FF600007FF70000CFF70000C6
:10880C009FF30000EFF500009FF700001FF700003A
:020000021000EC
:04081C0000E1F505FD
:040000030000800079
:00000001FF
