:100000000C9434000C9451000C9451000C94510049
:100010000C9451000C9451000C9451000C9451001C
:100020000C9451000C9451000C9451000C9451000C
:100030000C9451000C9451000C9451000C945100FC
:100040000C9451000C9451000C9451000C945100EC
:100050000C9451000C9451000C9451000C945100DC
:100060000C9451000C94510011241FBECFEFD8E026
:10007000DEBFCDBF11E0A0E0B1E0EEE2FFE002C0E4
:1000800005900D92AE32B107D9F721E0AEE2B1E0B2
:1000900001C01D92A933B207E1F70E9462040C94DB
:1000A00095070C94000061E080912E010E94D3031B
:1000B000089560E080912E010E94D303089585E3A6
:1000C0008A95F1F700000E94EF0285E38A95F1F727
:1000D000000087E20E94FB0285E38A95F1F70000A9
:1000E00080E70E94FB0285E38A95F1F700000E94F9
:1000F000F5020895A3E0B0E0E0E8F0E00C94990484
:10010000062F4A835B8389830E94EF0289810E94C4
:10011000FB024A815B81002381F07A01015010E0EB
:100120000F5F1F4F0E0D1F1D80E00E94FB02F701A5
:1001300081937F01E017F107B9F70E94F50223963A
:10014000E6E00C94B5040E94EF0281EE0E94FB02EF
:100150000E94F5020895A3E0B0E0E1EBF0E00C941A
:100160009904062F4A835B8389830E94EF02898169
:1001700080620E94FB024A815B81002379F07A0150
:10018000015010E00F5F1F4F0E0D1F1DF7018191F1
:100190007F010E94FB02E016F106C1F70E94F50202
:1001A0002396E6E00C94B504A1E0B0E0EAEDF0E0BF
:1001B0000C949D04AE014F5F5F4F60E081E00E94B0
:1001C0007A0089818C7F82608983AE014F5F5F4FA7
:1001D00061E080E00E94AB0087E592E00197F1F7D3
:1001E00000C000002196E2E00C94B904A1E0B0E068
:1001F000ECEFF0E00C949D04AE014F5F5F4F61E0C7
:1002000080E00E947A00898183608983AE014F5F1C
:100210005F4F61E080E00E94AB008AE68A95F1F7CB
:1002200000C02196E2E00C94B904A1E0B0E0EBE15B
:10023000F1E00C949D04AE014F5F5F4F61E080E000
:100240000E947A0085E38A95F1F700000E94D400AD
:100250000E94EF0281EE0E94FB020E94F5020E94C2
:10026000F6000E94EF0282EE0E94FB020E94F5025D
:10027000AE014F5F5F4F61E080E00E94AB002196CE
:10028000E2E00C94B904A1E0B0E0E9E4F1E00C9400
:100290009D0489830E94EF0289810E94FB0280E015
:1002A0000E94FB0289830E94F50289812196E2E087
:1002B0000C94B904A1E0B0E0E0E6F1E00C949D04F8
:1002C00080E00E9443018D7F8983AE014F5F5F4FC5
:1002D00061E080E00E94AB002196E2E00C94B9045A
:1002E000A1E0B0E0E6E7F1E00C949D0480E00E941C
:1002F000430182608983AE014F5F5F4F61E080E020
:100300000E94AB002196E2E00C94B904A5E0B0E0B5
:10031000ECE8F1E00C949B042FEF81EE94E0215087
:1003200080409040E1F700C000002DE04BE06CE021
:100330008AE00E94C10218E010932E0161E088E07B
:100340000E944F0360E080912E010E94D3030E941F
:100350005A012FEF85EA9EE0215080409040E1F75E
:1003600000C000000E9470012FEF8BE792E921503E
:1003700080409040E1F700C000000E94150101E0BC
:100380000983AE014F5F5F4F61E082E00E94AB00E6
:100390001982AE014F5F5F4F61E081E00E94AB00C8
:1003A0000983AE014F5F5F4F61E083E00E94AB00C5
:1003B00082E08983AE014F5F5F4F61E085E00E947C
:1003C000AB001982AE014F5F5F4F61E084E00E9495
:1003D000AB0086E28983AE014F5F5F4F61E086E04C
:1003E0000E94AB0080E189838A838B83AE014F5FDB
:1003F0005F4F63E08AE00E94AB0080E289838A83DA
:100400008B83AE014F5F5F4F63E080E10E94AB00E2
:100410001983AE014F5F5F4F61E081E10E94AB0045
:100420008EE08983AE014F5F5F4F61E087E00E94FD
:10043000AB0087E78983AE014F5F5F4F61E080E0EB
:100440000E94AB0081E18983AE014F5F5F4F61E0A5
:1004500087E10E94AB002596E4E00C94B704A2E08B
:10046000B0E0E5E3F2E00C949904F82E9A830E9440
:10047000D4000E94EF0281EE0E94FB020E94F5026E
:100480000E94EF0280EA0E94FB020F2D9A81192F31
:10049000780188E0E80EF11CF80181918F010E943B
:1004A000FB020E151F05C1F70E94F50261E0809165
:1004B0002E010E94D303FAE6FA95F1F700C060E03E
:1004C00080912E010E94D3038AE68A95F1F700C03D
:1004D00087E00E94430185FFFBCF87E00E94430134
:1004E00080628983AE014F5F5F4F61E087E00E94C9
:1004F000AB00EFE3FCE93197F1F700C000000E9488
:10050000F6002296E6E00C94B504A1E0B0E0EBE83A
:10051000F2E00C9499047C0161E080912E010E942C
:10052000D30387E00E94430186FFFBCF0E94EF02C6
:1005300081E60E94FB02870188E0E80EF11C8FEF44
:100540000E94FB02F80181938F01EE15FF05B9F7B8
:100550000E94F5020E94EF0282EE0E94FB020E94BE
:10056000F50287E00E94430180648983AE014F5FFA
:100570005F4F61E087E00E94AB002196E6E00C94BB
:10058000B5048093300160932F0140933201209392
:10059000310161E00E944F0360E080912F010E94D1
:1005A0004F0361E0809132010E944F0361E080912E
:1005B00031010E944F0360E0809131010E94D3031A
:1005C00061E0809130010E94D3032FEF83ED90E32F
:1005D000215080409040E1F700C00000089560E0A5
:1005E000809130010E94D303089561E08091300131
:1005F0000E94D3030895EF92FF920F931F93CF931E
:10060000E82EF12C07E010E0C0E0B701002E02C098
:10061000759567950A94E2F76170809132010E94A6
:10062000D30361E0809131010E94D30387EC90E015
:100630000197F1F700C0000080912F0190E00E9427
:10064000AC03CC0FC82B60E0809131010E94D30332
:1006500087EC90E00197F1F700C00000015011090C
:10066000A0F68C2FCF911F910F91FF90EF900895DE
:1006700088307CF080313CF092E0FB019083805127
:10068000FA0180830895FB0110828850FA0180836B
:10069000089591E0FB019083FA01808308958830EA
:1006A00084F460FD20C04AB121E030E0B90102C00D
:1006B000660F771F8A95E2F7CB01809584238AB96C
:1006C00008958031ECF0805160FF38C047B121E0DF
:1006D00030E0B90102C0660F771F8A95E2F7CB01BF
:1006E000842B87B908954AB121E030E0B90102C0F6
:1006F000660F771F8A95E2F7CB01842B8AB908959C
:10070000885060FD0EC044B121E030E0B90102C064
:10071000660F771F8A95E2F7CB018095842384B911
:10072000089544B121E030E0B90102C0660F771F9F
:100730008A95E2F7CB01842B84B9089547B121E073
:1007400030E0B90102C0660F771F8A95E2F7CB014E
:100750008095842387B9089588305CF429B130E00E
:10076000A90102C0559547958A95E2F7CA018170A3
:100770000895803164F026B130E08051A90102C0B3
:10078000559547958A95E2F7CA018170089523B17E
:1007900030E08850A90102C0559547958A95E2F747
:1007A000CA0181700895883084F460FD32C04BB175
:1007B00021E030E0B90102C0660F771F8A95E2F7A9
:1007C000CB01809584238BB9089580318CF08051C2
:1007D00060FD39C048B121E030E0B90102C0660FC8
:1007E000771F8A95E2F7CB018095842388B9089515
:1007F000885060FD1BC045B121E030E0B90102C066
:10080000660F771F8A95E2F7CB018095842385B91F
:1008100008954BB121E030E0B90102C0660F771FA7
:100820008A95E2F7CB01842B8BB9089545B121E07D
:1008300030E0B90102C0660F771F8A95E2F7CB015D
:10084000842B85B9089548B121E030E0B90102C098
:10085000660F771F8A95E2F7CB01842B88B908953C
:10086000CF93C82F8A3041F09091C00095FFFCCF04
:10087000C093C600CF9108958DE00E943004F4CF5C
:100880008091C00087FFFCCF8091C6000895109230
:10089000C50087E68093C400E3E3F1E08EE091E0D9
:1008A0009383828380E091E091838083E0ECF0E0A9
:1008B00080818D7F808386E08093C20088E1809371
:1008C000C1000895A4E1B0E0E8E6F4E00C949704D8
:1008D0000E9447040E9486018CE191E00E94C404BA
:1008E00000E010E0CE0101966C0187E2E82E81E085
:1008F000F82E1F930F93FF92EF92DF92CF920E94F8
:10090000F404C6010E942F020F5F1F4F0F900F903B
:100910000F900F900F900F90ECCF2F923F924F922D
:100920005F926F927F928F929F92AF92BF92CF927F
:10093000DF92EF92FF920F931F93CF93DF93CDB788
:10094000DEB7CA1BDB0B0FB6F894DEBF0FBECDBF00
:1009500009942A88398848885F846E847D848C84D1
:100960009B84AA84B984C884DF80EE80FD800C81DA
:100970001B81AA81B981CE0FD11D0FB6F894DEBFBD
:100980000FBECDBFED0108950F931F93CF93DF935B
:10099000E0913501F0913601238121FF1BC08C01CC
:1009A000D0E0C0E0F80181918F0160913501709134
:1009B0003601DB011896ED91FC911997882331F0EF
:1009C0000995892B79F3DFEFCFEFECCF8AE009951A
:1009D000892B19F08FEF9FEF02C08D2F9C2FDF9195
:1009E000CF911F910F910895AEE0B0E0EAEFF4E0EF
:1009F0000C949B040D891E8986E08C831A830983DD
:100A00008FEF9FE79E838D83AE01475E5F4F6F89B7
:100A1000788DCE0101960E9417052F813885F80147
:100A2000E20FF31F10822E96E4E00C94B704ACE0C2
:100A3000B0E0EDE1F5E00C948D047C016B018A01DE
:100A4000FC0117821682838181FFBDC1CE01019610
:100A50004C01F7019381F60193FD859193FF8191FC
:100A60006F01882309F4ABC1853239F493FD859178
:100A700093FF81916F01853229F4B70190E00E94C4
:100A8000FF06E7CF512C312C20E02032A0F48B322E
:100A900069F030F4803259F0833269F420612CC05F
:100AA0008D3239F0803339F4216026C02260246011
:100AB00023C0286021C027FD27C030ED380F3A3011
:100AC00078F426FF06C0FAE05F9E300D1124532E05
:100AD00013C08AE0389E300D1124332E20620CC0E2
:100AE0008E3221F426FD6BC1206406C08C3611F4D1
:100AF000206802C0883641F4F60193FD859193FF8A
:100B000081916F018111C1CF982F9F7D95549330B2
:100B100028F40C5F1F4FFFE3F9830DC0833631F0DB
:100B2000833771F0833509F05BC022C0F801808102
:100B300089830E5F1F4F44244394512C540115C0E8
:100B40003801F2E06F0E711CF801A080B18026FF21
:100B500003C0652D70E002C06FEF7FEFC5012C87E9
:100B60000E94F4062C0183012C852F77222E17C0BA
:100B70003801F2E06F0E711CF801A080B18026FFF1
:100B800003C0652D70E002C06FEF7FEFC5012C87B9
:100B90000E94E9062C012C852068222E830123FC6B
:100BA0001BC0832D90E048165906B0F4B70180E2CF
:100BB00090E00E94FF063A94F4CFF50127FC85915E
:100BC00027FE81915F01B70190E00E94FF0631107E
:100BD0003A94F1E04F1A51084114510471F7E5C0FD
:100BE000843611F0893639F5F80127FF07C0608196
:100BF0007181828193810C5F1F4F08C06081718178
:100C0000072E000C880B990B0E5F1F4F2F76722E4C
:100C100097FF09C090958095709561957F4F8F4F94
:100C20009F4F2068722E2AE030E0A4010E9437070F
:100C3000A82EA81844C0853729F42F7EB22E2AE0AA
:100C400030E025C0F22FF97FBF2E8F36C1F018F4A7
:100C5000883579F0B4C0803719F0883721F0AFC0FB
:100C60002F2F2061B22EB4FE0DC08B2D8460B82EC4
:100C700009C024FF0AC09F2F9660B92E06C028E045
:100C800030E005C020E130E002C020E132E0F801B0
:100C9000B7FE07C060817181828193810C5F1F4F15
:100CA00006C06081718180E090E00E5F1F4FA4015B
:100CB0000E943707A82EA818FB2DFF777F2E76FEFF
:100CC0000BC0372D3E7FA51450F474FE0AC072FC91
:100CD00008C0372D3E7E05C0BA2C372D03C0BA2C74
:100CE00001C0B52C34FF0DC0FE01EA0DF11D80815D
:100CF000803311F4397E09C032FF06C0B394B39437
:100D000004C0832F867809F0B39433FD13C030FFFD
:100D100006C05A2CB31418F4530C5B18B32CB3143C
:100D200068F4B70180E290E03C870E94FF06B3942C
:100D30003C85F5CFB31410F43B1801C0312C34FFBF
:100D400012C0B70180E390E03C870E94FF063C851B
:100D500032FF17C031FD03C088E790E002C088E58C
:100D600090E0B7010CC0832F867859F031FF02C0A4
:100D70008BE201C080E237FD8DE2B70190E00E9476
:100D8000FF06A51438F4B70180E390E00E94FF0647
:100D90005A94F7CFAA94F401EA0DF11D8081B701AE
:100DA00090E00E94FF06A110F5CF332009F451CE48
:100DB000B70180E290E00E94FF063A94F6CFF70177
:100DC0008681978102C08FEF9FEF2C96E2E10C9411
:100DD000A904FC010590615070400110D8F780957E
:100DE00090958E0F9F1F0895FC01615070400190F7
:100DF0000110D8F7809590958E0F9F1F08950F933F
:100E00001F93CF93DF93FB01238121FD03C08FEF5D
:100E10009FEF28C022FF16C046815781248135816B
:100E20004217530744F4A081B1819D012F5F3F4FCA
:100E3000318320838C93268137812F5F3F4F378307
:100E4000268310C0EB01092F182F0084F185E02DB7
:100E50000995892BE1F68E819F8101969F838E8370
:100E6000812F902FDF91CF911F910F910895FA015B
:100E7000AA27283051F1203181F1E8946F936E7FD9
:100E80006E5F7F4F8F4F9F4FAF4FB1E03ED0B4E0CA
:100E90003CD0670F781F891F9A1FA11D680F791F0B
:100EA0008A1F911DA11D6A0F711D811D911DA11D1C
:100EB00020D009F468943F912AE0269F112430192C
:100EC000305D3193DEF6CF010895462F4770405DC7
:100ED0004193B3E00FD0C9F7F6CF462F4F70405D76
:100EE0004A3318F0495D31FD4052419302D0A9F7D1
:100EF000EACFB4E0A6959795879577956795BA95CB
:100F0000C9F700976105710508959B01AC010A2E90
:100F100006945795479537952795BA95C9F7620F67
:0E0F2000731F841F951FA01D0895F894FFCF26
:100F2E00000000010000000000004004000000006E
:100F3E00000200000000300400000000526F6461E7
:0E0F4E006E646F2E2E2E006F69202564000049
:00000001FF
