:100000000C9434000C9451000C9451000C94510049
:100010000C9451000C9451000C9451000C9451001C
:100020000C9451000C9451000C9451000C9451000C
:100030000C9451000C9451000C9451000C945100FC
:100040000C9451000C9451000C9451000C945100EC
:100050000C9451000C9451000C9451000C945100DC
:100060000C9451000C94510011241FBECFEFD8E026
:10007000DEBFCDBF11E0A0E0B1E0E4E3FFE002C0ED
:1000800005900D92AA33B107D9F721E0AAE3B1E0B8
:1000900001C01D92A534B207E1F70E945C040C94E4
:1000A00098070C94000061E080913A010E94CD0312
:1000B000089560E080913A010E94CD03089585E3A0
:1000C0008A95F1F700000E94E90285E38A95F1F72D
:1000D000000087E20E94F50285E38A95F1F70000AF
:1000E00080E70E94F50285E38A95F1F700000E94FF
:1000F000EF020895A3E0B0E0E0E8F0E00C949C0487
:10010000062F4A835B8389830E94E90289810E94CA
:10011000F5024A815B81002381F07A01015010E0F1
:100120000F5F1F4F0E0D1F1D80E00E94F502F701AB
:1001300081937F01E017F107B9F70E94EF02239640
:10014000E6E00C94B8040E94E90281EE0E94F502F8
:100150000E94EF020895A3E0B0E0E1EBF0E00C9420
:100160009C04062F4A835B8389830E94E90289816C
:1001700080620E94F5024A815B81002379F07A0156
:10018000015010E00F5F1F4F0E0D1F1DF7018191F1
:100190007F010E94F502E016F106C1F70E94EF020E
:1001A0002396E6E00C94B804A1E0B0E0EAEDF0E0BC
:1001B0000C94A004AE014F5F5F4F60E081E00E94AD
:1001C0007A0089818C7F82608983AE014F5F5F4FA7
:1001D00061E080E00E94AB0087E592E00197F1F7D3
:1001E00000C000002196E2E00C94BC04A1E0B0E065
:1001F000ECEFF0E00C94A004AE014F5F5F4F61E0C4
:1002000080E00E947A00898183608983AE014F5F1C
:100210005F4F61E080E00E94AB008AE68A95F1F7CB
:1002200000C02196E2E00C94BC04A1E0B0E0EBE158
:10023000F1E00C94A004AE014F5F5F4F61E080E0FD
:100240000E947A0085E38A95F1F700000E94D400AD
:100250000E94E90281EE0E94F5020E94EF020E94D4
:10026000F6000E94E90282EE0E94F5020E94EF026F
:10027000AE014F5F5F4F61E080E00E94AB002196CE
:10028000E2E00C94BC04A1E0B0E0E9E4F1E00C94FD
:10029000A00489830E94E90289810E94F50280E01E
:1002A0000E94F50289830E94EF0289812196E2E093
:1002B0000C94BC04A1E0B0E0E0E6F1E00C94A004F2
:1002C00080E00E9443018D7F8983AE014F5F5F4FC5
:1002D00061E080E00E94AB002196E2E00C94BC0457
:1002E000A1E0B0E0E6E7F1E00C94A00480E00E9419
:1002F000430182608983AE014F5F5F4F61E080E020
:100300000E94AB002196E2E00C94BC04A5E0B0E0B2
:10031000ECE8F1E00C949E042FEF81EE94E0215084
:1003200080409040E1F700C000002DE04BE06CE021
:100330008AE00E94BB0208E000933A0161E088E095
:100340000E94490360E080913A010E94CD030E941F
:100350005A012FEF85EA9EE0215080409040E1F75E
:1003600000C000000E9470012FEF8BE792E921503E
:1003700080409040E1F700C000000E94150111E0AC
:100380001983AE014F5F5F4F61E082E00E94AB00D6
:100390001982AE014F5F5F4F61E081E00E94AB00C8
:1003A0001983AE014F5F5F4F61E083E00E94AB00B5
:1003B0001983AE014F5F5F4F61E085E00E94AB00A3
:1003C0001982AE014F5F5F4F61E084E00E94AB0095
:1003D00087E28983AE014F5F5F4F61E086E00E9454
:1003E000AB0019831A831B83AE014F5F5F4F63E03D
:1003F0008AE00E94AB00AE014F5F5F4F63E080E197
:100400000E94AB000983AE014F5F5F4F61E081E165
:100410000E94AB008EE08983AE014F5F5F4F61E0C9
:1004200087E00E94AB0087E78983AE014F5F5F4F93
:1004300061E080E00E94AB0081E18983AE014F5F03
:100440005F4F61E087E10E94AB002596E4E00C94E9
:10045000BA04A2E0B0E0EFE2F2E00C949C04F82EC3
:100460009A830E94D4000E94E90281EE0E94F50264
:100470000E94EF020E94E90280EA0E94F5020F2D1D
:100480009A81192F780188E0E80EF11CF80181911A
:100490008F010E94F5020E151F05C1F70E94EF02A1
:1004A00061E080913A010E94CD03FAE6FA95F1F7F6
:1004B00000C060E080913A010E94CD038AE68A95EF
:1004C000F1F700C087E00E94430185FFFBCF87E082
:1004D0000E94430180628983AE014F5F5F4F61E0FC
:1004E00087E00E94AB00EFE3FCE93197F1F700C031
:1004F00000000E94F6002296E6E00C94B804A1E009
:10050000B0E0E5E8F2E00C949C047C0161E08091AD
:100510003A010E94CD0387E00E94430186FFFBCF92
:100520000E94E90281E60E94F502870188E0E80E58
:10053000F11C8FEF0E94F502F80181938F01EE15F7
:10054000FF05B9F70E94EF020E94E90282EE0E94C5
:10055000F5020E94EF0287E00E94430180648983D4
:10056000AE014F5F5F4F61E087E00E94AB002196D4
:10057000E6E00C94B80480933C0160933B01409307
:100580003E0120933D0161E00E94490360E08091BB
:100590003B010E94490361E080913E010E944903B2
:1005A00061E080913D010E94490360E080913D013E
:1005B0000E94CD0361E080913C010E94CD032FEFAA
:1005C00083ED90E3215080409040E1F700C00000AF
:1005D000089560E080913C010E94CD03089561E0A0
:1005E00080913C010E94CD030895EF92FF920F93FA
:1005F0001F93CF93E82EF12C07E010E0C0E0B70185
:10060000002E02C0759567950A94E2F7617080919B
:100610003E010E94CD0361E080913D010E94CD0327
:1006200087EC90E00197F1F700C0000080913B015A
:1006300090E00E94A603CC0FC82B60E080913D01A2
:100640000E94CD0387EC90E00197F1F700C0000015
:1006500001501109A0F68C2FCF911F910F91FF909F
:10066000EF90089588307CF080313CF092E0FB01FF
:1006700090838051FA0180830895FB011082885095
:10068000FA018083089591E0FB019083FA01808351
:100690000895883084F460FD20C04AB121E030E044
:1006A000B90102C0660F771F8A95E2F7CB018095EA
:1006B00084238AB908958031ECF0805160FF38C0FE
:1006C00047B121E030E0B90102C0660F771F8A957B
:1006D000E2F7CB01842B87B908954AB121E030E0DD
:1006E000B90102C0660F771F8A95E2F7CB01842B10
:1006F0008AB90895885060FD0EC044B121E030E011
:10070000B90102C0660F771F8A95E2F7CB01809589
:10071000842384B9089544B121E030E0B90102C0D6
:10072000660F771F8A95E2F7CB01842B84B9089571
:1007300047B121E030E0B90102C0660F771F8A950A
:10074000E2F7CB018095842387B9089588305CF463
:1007500029B130E0A90102C0559547958A95E2F785
:10076000CA0181700895803164F026B130E0805173
:10077000A90102C0559547958A95E2F7CA01817093
:10078000089523B130E08850A90102C055954795DE
:100790008A95E2F7CA0181700895883084F460FD7B
:1007A00032C04BB121E030E0B90102C0660F771FC3
:1007B0008A95E2F7CB01809584238BB90895803127
:1007C0008CF0805160FD39C048B121E030E0B901C2
:1007D00002C0660F771F8A95E2F7CB0180958423CC
:1007E00088B90895885060FD1BC045B121E030E014
:1007F000B90102C0660F771F8A95E2F7CB01809599
:10080000842385B908954BB121E030E0B90102C0DD
:10081000660F771F8A95E2F7CB01842B8BB9089579
:1008200045B121E030E0B90102C0660F771F8A951B
:10083000E2F7CB01842B85B9089548B121E030E07F
:10084000B90102C0660F771F8A95E2F7CB01842BAE
:1008500088B90895CF93C82F8A3041F09091C00095
:1008600095FFFCCFC093C600CF9108958DE00E9404
:100870002A04F4CF8091C00087FFFCCF8091C6008E
:1008800008951092C50087E68093C400EFE3F1E07D
:100890008EE091E09383828380E091E09183808376
:1008A000E0ECF0E080818D7F808386E08093C20061
:1008B00088E18093C1000895A4E1B0E0E2E6F4E0AD
:1008C0000C949A040E9441040E9486018CE191E0FC
:1008D0000E94C70400E010E0CE0101966C0183E3A2
:1008E000E82E81E0F82E1F930F93FF92EF92DF9294
:1008F000CF920E94F704C6010E9429020F5F1F4F8A
:100900009FEF23ED80E3915020408040E1F700C04D
:1009100000000F900F900F900F900F900F90E3CF6B
:100920002F923F924F925F926F927F928F929F92FF
:10093000AF92BF92CF92DF92EF92FF920F931F93ED
:10094000CF93DF93CDB7DEB7CA1BDB0B0FB6F8949E
:10095000DEBF0FBECDBF09942A88398848885F84DE
:100960006E847D848C849B84AA84B984C884DF804F
:10097000EE80FD800C811B81AA81B981CE0FD11D33
:100980000FB6F894DEBF0FBECDBFED0108950F93F3
:100990001F93CF93DF93E0914101F09142012381B6
:1009A00021FF1BC08C01D0E0C0E0F80181918F01D4
:1009B0006091410170914201DB011896ED91FC912B
:1009C0001997882331F00995892B79F3DFEFCFEF61
:1009D000ECCF8AE00995892B19F08FEF9FEF02C0C9
:1009E0008D2F9C2FDF91CF911F910F910895AEE035
:1009F000B0E0EDEFF4E00C949E040D891E8986E0D2
:100A00008C831A8309838FEF9FE79E838D83AE01CA
:100A1000475E5F4F6F89788DCE0101960E941A055F
:100A20002F813885F801E20FF31F10822E96E4E043
:100A30000C94BA04ACE0B0E0E0E2F5E00C94900471
:100A40007C016B018A01FC0117821682838181FF80
:100A5000BDC1CE0101964C01F7019381F60193FDD2
:100A6000859193FF81916F01882309F4ABC1853291
:100A700039F493FD859193FF81916F01853229F4BB
:100A8000B70190E00E940207E7CF512C312C20E003
:100A90002032A0F48B3269F030F4803259F0833286
:100AA00069F420612CC08D3239F0803339F4216033
:100AB00026C02260246023C0286021C027FD27C0F3
:100AC00030ED380F3A3078F426FF06C0FAE05F9E2A
:100AD000300D1124532E13C08AE0389E300D11249E
:100AE000332E20620CC08E3221F426FD6BC12064AF
:100AF00006C08C3611F4206802C0883641F4F60135
:100B000093FD859193FF81916F018111C1CF982F42
:100B10009F7D9554933028F40C5F1F4FFFE3F983BA
:100B20000DC0833631F0833771F0833509F05BC037
:100B300022C0F801808189830E5F1F4F44244394B3
:100B4000512C540115C03801F2E06F0E711CF801F0
:100B5000A080B18026FF03C0652D70E002C06FEF5A
:100B60007FEFC5012C870E94F7062C0183012C859D
:100B70002F77222E17C03801F2E06F0E711CF8019A
:100B8000A080B18026FF03C0652D70E002C06FEF2A
:100B90007FEFC5012C870E94EC062C012C85206874
:100BA000222E830123FC1BC0832D90E0481659069A
:100BB000B0F4B70180E290E00E9402073A94F4CFCB
:100BC000F50127FC859127FE81915F01B70190E037
:100BD0000E94020731103A94F1E04F1A5108411473
:100BE000510471F7E5C0843611F0893639F5F80102
:100BF00027FF07C060817181828193810C5F1F4F45
:100C000008C060817181072E000C880B990B0E5F64
:100C10001F4F2F76722E97FF09C090958095709583
:100C200061957F4F8F4F9F4F2068722E2AE030E0F2
:100C3000A4010E943A07A82EA81844C0853729F4B9
:100C40002F7EB22E2AE030E025C0F22FF97FBF2E92
:100C50008F36C1F018F4883579F0B4C0803719F0B8
:100C6000883721F0AFC02F2F2061B22EB4FE0DC007
:100C70008B2D8460B82E09C024FF0AC09F2F966078
:100C8000B92E06C028E030E005C020E130E002C007
:100C900020E132E0F801B7FE07C0608171818281F6
:100CA00093810C5F1F4F06C06081718180E090E0EE
:100CB0000E5F1F4FA4010E943A07A82EA818FB2D13
:100CC000FF777F2E76FE0BC0372D3E7FA51450F4A4
:100CD00074FE0AC072FC08C0372D3E7E05C0BA2CD7
:100CE000372D03C0BA2C01C0B52C34FF0DC0FE0156
:100CF000EA0DF11D8081803311F4397E09C032FF85
:100D000006C0B394B39404C0832F867809F0B394DB
:100D100033FD13C030FF06C05A2CB31418F4530C23
:100D20005B18B32CB31468F4B70180E290E03C8701
:100D30000E940207B3943C85F5CFB31410F43B181E
:100D400001C0312C34FF12C0B70180E390E03C8732
:100D50000E9402073C8532FF17C031FD03C088E7BF
:100D600090E002C088E590E0B7010CC0832F867840
:100D700059F031FF02C08BE201C080E237FD8DE205
:100D8000B70190E00E940207A51438F4B70180E390
:100D900090E00E9402075A94F7CFAA94F401EA0D5A
:100DA000F11D8081B70190E00E940207A110F5CFEC
:100DB000332009F451CEB70180E290E00E9402078F
:100DC0003A94F6CFF7018681978102C08FEF9FEFAB
:100DD0002C96E2E10C94AC04FC010590615070404B
:100DE0000110D8F7809590958E0F9F1F0895FC01F4
:100DF0006150704001900110D8F7809590958E0F4A
:100E00009F1F08950F931F93CF93DF93FB012381BF
:100E100021FD03C08FEF9FEF28C022FF16C046813F
:100E20005781248135814217530744F4A081B18151
:100E30009D012F5F3F4F318320838C932681378123
:100E40002F5F3F4F3783268310C0EB01092F182FE8
:100E50000084F185E02D0995892BE1F68E819F8133
:100E600001969F838E83812F902FDF91CF911F91C9
:100E70000F910895FA01AA27283051F1203181F10C
:100E8000E8946F936E7F6E5F7F4F8F4F9F4FAF4F92
:100E9000B1E03ED0B4E03CD0670F781F891F9A1FA5
:100EA000A11D680F791F8A1F911DA11D6A0F711D59
:100EB000811D911DA11D20D009F468943F912AE065
:100EC000269F11243019305D3193DEF6CF0108954D
:100ED000462F4770405D4193B3E00FD0C9F7F6CF7E
:100EE000462F4F70405D4A3318F0495D31FD405246
:100EF000419302D0A9F7EACFB4E0A69597958795DC
:100F000077956795BA95C9F70097610571050895BA
:100F10009B01AC010A2E0694579547953795279566
:100F2000BA95C9F7620F731F841F951FA01D0895FE
:040F3000F894FFCF63
:100F3400000000010000000000003A04000000006E
:100F44000002000000002A0400000000526F6461E7
:100F54006E646F207472616E736D6973736F722E39
:0A0F64002E2E006F692025640000A6
:00000001FF
