:020000040000FA
:10000000000200106D01000071010000730100008A
:100010007501000077010000790100000000000078
:100020000000000000000000000000007B01000054
:100030007D010000000000007F0100008101000040
:1000400083010000830100008301000083010000A0
:100050008301000083010000830100008301000090
:100060008301000083010000830100008301000080
:100070008301000083010000830100008301000070
:100080008301000083010000830100008301000060
:1000900083010000830100005D0500008301000072
:1000A0008301000083010000830100008301000040
:1000B0008301000083010000830100008301000030
:1000C00083010000830100008301000000F002F8BA
:1000D00000F03CF80AA090E8000C82448344AAF1A6
:1000E0000107DA4501D100F031F8AFF2090EBAE8A4
:1000F0000F0013F0010F18BFFB1A43F0010318475C
:100100006401000094010000103A24BF78C878C14F
:10011000FAD8520724BF30C830C144BF04680C600D
:10012000704700000023002400250026103A28BF55
:1001300078C1FBD8520728BF30C148BF0B60704759
:100140001FB500F088F81FBD10B510BD00F047F8CE
:100150001146FFF7F5FF00F023F800F065F803B44F
:10016000FFF7F2FF03BC00F06FF8000008480047FB
:10017000FEE7FEE7FEE7FEE7FEE7FEE7FEE7FEE757
:10018000FEE7FEE703480449024A044B70470000BB
:10019000CD00000088C00720000200100000001001
:1001A00000F0AEF80A4800F073FA0FE000240BE00C
:1001B000E0B200F0C2FA00BF064800680028FBD099
:1001C000002004490860641C082CF1D3EEE700000D
:1001D00040420F0004C007207047704770477546C3
:1001E00000F028F8AE4605006946534620F00700A7
:1001F000854618B020B5FFF7C5FFBDE820404FF099
:1002000000064FF000074FF000084FF0000B21F000
:100210000701AC46ACE8C009ACE8C009ACE8C009CD
:10022000ACE8C0098D4670470446AFF30080204615
:10023000FFF795FF0048704728C007200148704726
:10024000704700BF2CC0072001491820ABBEFEE755
:1002500026000200704710B5FFF7F0FF4FF00001D5
:10026000016010BDB807000000C0072008000000B2
:1002700008010000B80700000000001000020000A4
:1002800024010000C007000008C007208000000013
:100290002401000000000000000000000000000039
:1002A000000000000000000000000000000000004E
:1002B000000000000000000000000000000000003E
:1002C000000000000000000000000000000000002E
:1002D000000000000000000000000000000000001E
:1002E000000000000000000000000000000000000E
:1002F000000000000000000000000000FFFFFFFF02
:1003000020208449086000BF8248006810F0400F38
:10031000FAD00320804908604FF000007F49C1F8FF
:10032000A8017F4908604FF001007E4908604FF046
:100330000B007D4908604FF00100A1F10401086045
:100340004FF0AA00794908604FF055007349C1F891
:100350008C0000BF7648006810F0806FFAD0032050
:10036000744908604FF0AA006C49C1F88C004FF046
:1003700055006E4908604FF023006F4908604FF048
:100380000100A1F1040108604FF0AA006B49086068
:100390004FF05500086000BF6948006810F4806F96
:1003A000FAD00320674908604FF0AA005B49C1F802
:1003B000AC004FF05500614908606348634908602C
:1003C0004FF000005549C1F8C8010846D0F8880030
:1003D000C0F30160032868D15248006810F00300A0
:1003E00006D0012823D002283FD003285CD100E0AA
:1003F00000BF4F480068C0F30E0000F101004FEA53
:1004000040014648D0F88800C0F3074000F10100E1
:10041000B1FBF0F04E4900FB01F03F490968C9B259
:1004200001F10101B0FBF1F04A4908603CE04048AD
:100430000068C0F30E0000F101004FEA40013748A8
:10044000D0F88800C0F3074000F10100B1FBF0F0E4
:10045000414900FB01F030490968C9B201F10101CD
:10046000B0FBF1F03B4908601EE031480068C0F382
:100470000E0000F101004FEA40012848D0F8880042
:10048000C0F3074000F10100B1FBF0F04FF4FA4176
:1004900000FB01F020490968C9B201F10101B0FB7C
:1004A000F1F02C49086000BF2FE01E48006810F0F2
:1004B000030006D0012810D0022819D0032823D128
:1004C00000E000BF14480068C0B200F101002049FC
:1004D000B1FBF0F01F49086016E00F480068C0B299
:1004E00000F101001C49B1FBF0F01A4908600BE073
:1004F00009480068C0B200F101004FF4FA41B1FBB5
:10050000F0F01449086000BF00BF43F23A0003490D
:1005100008607047A0C10F4004C10F4000C00F40E9
:10052000ACC10F400CC10F4084C00F408CC00F40C5
:1005300088C00F4080C00F40A4C00F40ACC00F4027
:10054000A8C00F40A0C00F40DE872804C4C00F40E1
:1005500000093D0000C00720001BB7008E49086B52
:1005600010F47F4F38D0C0F3072010281CD008DCCF
:1005700001280DD002280ED004280FD008281FD142
:100580000FE0202813D0402814D0802818D114E080
:100590008149086915E08049486912E07E49886907
:1005A0000FE07D49C8690CE07B49086A09E07A4997
:1005B000486A06E07849886A03E07749C86A00E03B
:1005C00000BF00BF7449096821F0E061724A116000
:1005D0000121724A1160704710F4803F56D0C1B2B9
:1005E00010292CD008DC01290DD0022912D00429B1
:1005F00017D008293FD11BE0202927D040292CD033
:10060000802938D130E064490969C1F30B11644A8B
:10061000116031E060494969C1F30B11604A5160D2
:100620002AE05D498969C1F30B115D4A916023E0BD
:100630005949C969C1F30B11594AD1601CE05649A7
:10064000096AC1F30B11564A116115E05249496A12
:10065000C1F30B11524A51610EE04F49896AC1F34F
:100660000B114F4A916107E04B49C96AC1F30B1165
:100670004B4AD16100E000BF00BF4749096821F043
:10068000E061454A11600121444A116000BFA2E7C0
:1006900030B502464348006840F48050424CC4F8EC
:1006A000C4004248006840F07060404C2060204622
:1006B000406820F47F1060602046406840F4AA1033
:1006C00060602046C06840F07040E06038480068D4
:1006D000C0F3811333B1012B08D0022B09D0032BB7
:1006E0000BD000BF3348006881080AE03148016838
:1006F00007E030480068410803E02E480068C10860
:1007000000BF00BFB1FBF2F0401E012444EA00200C
:1007100040F40010204C206040F2FF10E06000BF69
:1007200016200124844040094FF0E02505EB8000AD
:10073000C0F8004100BF012030BD082800DB0020C8
:100740001549096821F0FF01134A11601146096833
:100750000122824042F0807211430F4A11607047BB
:100760000D48006810F0E06F05D00B48006820F0DD
:10077000E060094908600848006820F0FF00064969
:1007800008600846006840F0FF00086008460068FE
:1007900040F48030086070470040034004C00720E8
:1007A00008C00720C4C00F4000C00F4000C0024076
:1007B000A8C10F4000C0072000093D000000000054
:04000005000000CD2A
:00000001FF
