:100000000C9434000C9453000C9451000C94510047
:100010000C9451000C9451000C9451000C9451001C
:100020000C9451000C9451000C9451000C9451000C
:100030000C9451000C9451000C9451000C945100FC
:100040000C9451000C9451000C9451000C945100EC
:100050000C9451000C9451000C9451000C945100DC
:100060000C9451000C94510011241FBECFEFD8E026
:10007000DEBFCDBF11E0A0E0B1E0E8E7FFE002C0E5
:1000800005900D92A433B107D9F721E0A4E3B1E0C4
:1000900001C01D92A635B207E1F70E9499040C94A5
:1000A000BA070C9400001F920F920FB60F92112402
:1000B0002F933F934F935F936F937F938F939F9370
:1000C000AF93BF93EF93FF93E0913501F091360129
:1000D0000995FF91EF91BF91AF919F918F917F9182
:1000E0006F915F914F913F912F910F900FBE0F90A5
:1000F0001F90189522E02093690021E02DBB90937A
:10010000360180933501089561E0809137010E94A6
:100110001404089560E0809137010E94140408954A
:1001200060E0809137010E94140485E38A95F1F71D
:1001300000000E943E0385E38A95F1F7000087E204
:100140000E944A0385E38A95F1F7000080E70E9448
:100150004A0385E38A95F1F700000E94440361E0B9
:10016000809137010E9414040895F894209134017D
:10017000222389F0FC0180E090E0DC01A85CBE4F06
:100180002C912193019688309105B9F71092340192
:1001900081E07894089580E078940895A3E0B0E039
:1001A000E4EDF0E00C94CB04062F4A835B83898353
:1001B0000E943E0389810E944A034A815B81002399
:1001C00081F07A01015010E00F5F1F4F0E0D1F1DCF
:1001D00080E00E944A03F70181937F01E017F10755
:1001E000B9F70E9444032396E6E00C94E7040E94CA
:1001F0003E0381EE0E944A030E9444030895A3E057
:10020000B0E0E5E0F1E00C94CB04062F4A835B8379
:1002100089830E943E03898180620E944A034A8149
:100220005B81002379F07A01015010E00F5F1F4FCE
:100230000E0D1F1DF70181917F010E944A03E016F8
:10024000F106C1F70E9444032396E6E00C94E7040C
:10025000A1E0B0E0EEE2F1E00C94CF04AE014F5F1C
:100260005F4F60E081E00E94CE0089818C7F8260D8
:100270008983AE014F5F5F4F61E080E00E94FF0025
:1002800087E592E00197F1F700C000002196E2E0D7
:100290000C94EB04A1E0B0E0E0E5F1E00C94CF04B5
:1002A000AE014F5F5F4F61E080E00E94CE00898128
:1002B00083608983AE014F5F5F4F61E080E00E9401
:1002C000FF008AE68A95F1F700C02196E2E00C94DF
:1002D000EB04A1E0B0E0EFE6F1E00C94CF04AE0156
:1002E0004F5F5F4F61E080E00E94CE0085E38A951A
:1002F000F1F700000E9428010E943E0381EE0E9457
:100300004A030E9444030E944A010E943E0382EE77
:100310000E944A030E944403AE014F5F5F4F61E0B9
:1003200080E00E94FF002196E2E00C94EB04A1E043
:10033000B0E0EDE9F1E00C94CD040E943E0381E6CB
:100340000E944A0300E010E08FEF0E944A03F80188
:10035000E85CFE4F80830F5F1F4F08301105A1F747
:1003600081E0809334010E94440380E78983AE01D9
:100370004F5F5F4F61E087E00E94FF000E946901CC
:100380000E9490002196E4E00C94E904A1E0B0E022
:10039000ECECF1E00C94CF0489830E943E03898148
:1003A0000E944A0380E00E944A0389830E9444031A
:1003B00089812196E2E00C94EB04A1E0B0E0E3EE49
:1003C000F1E00C94CF0480E00E94C6018D7F898308
:1003D000AE014F5F5F4F61E080E00E94FF00219619
:1003E000E2E00C94EB04A1E0B0E0E9EFF1E00C9462
:1003F000CF0480E00E94C60182608983AE014F5F16
:100400005F4F61E080E00E94FF002196E2E00C94E3
:10041000EB04A5E0B0E0EFE0F2E00C94CD042FEFA8
:1004200081EE94E0215080409040E1F700C0000050
:100430002DE04BE06CE08AE00E94100308E000939E
:10044000370161E088E00E949C0360E08091370101
:100450000E9414040E94DD012FEF85EA9EE02150E6
:1004600080409040E1F700C000000E94F3012FEFB0
:100470008BE792E9215080409040E1F700C00000F6
:100480000E94690111E01983AE014F5F5F4F61E087
:1004900082E00E94FF001982AE014F5F5F4F61E072
:1004A00081E00E94FF001983AE014F5F5F4F61E062
:1004B00083E00E94FF001983AE014F5F5F4F61E050
:1004C00085E00E94FF001982AE014F5F5F4F61E03F
:1004D00084E00E94FF0086E08983AE014F5F5F4F9A
:1004E00061E00E94FF0019831A831B83AE014F5FF6
:1004F0005F4F63E08AE00E94FF0019831A831B8329
:10050000AE014F5F5F4F63E080E10E94FF0009830F
:10051000AE014F5F5F4F61E081E10E94FF0080E725
:100520008983AE014F5F5F4F61E087E00E94FF006B
:1005300081E18983AE014F5F5F4F61E087E10E94F7
:10054000FF0087E78983AE014F5F5F4F61E080E086
:100550000E94FF00789461E0809137010E941404AA
:100560008FE193E00197F1F700C000002596E4E0E9
:100570000C94E904A2E0B0E0E0ECF2E00C94CB04CF
:10058000F82E9A830E9428010E943E0381EE0E9469
:100590004A030E9444030E943E0380EA0E944A03E9
:1005A0000F2D9A81192F780188E0E80EF11CF801CF
:1005B00081918F010E944A030E151F05C1F70E9409
:1005C000440361E0809137010E941404FAE6FA9531
:1005D000F1F700C060E0809137010E9414048AE6C0
:1005E0008A95F1F700C087E00E94C60185FFFBCF26
:1005F00087E00E94C60180628983AE014F5F5F4F32
:1006000061E087E00E94FF00EFE3FCE93197F1F73A
:1006100000C000000E944A012296E6E00C94E70424
:1006200080934D0160934C0140934F0120934E0104
:1006300061E00E949C0360E080914C010E949C0359
:1006400061E080914F010E949C0361E080914E0126
:100650000E949C0360E080914E010E94140461E0BE
:1006600080914D010E9414042FEF83ED90E32150FF
:1006700080409040E1F700C00000089560E0809164
:100680004D010E941404089561E080914D010E9483
:1006900014040895FF920F931F93CF93DF93082FB5
:1006A00010E0C7E0D0E0F12CB8010C2E02C0759527
:1006B00067950A94E2F7617080914F010E941404DB
:1006C00061E080914E010E94140487EC90E0019754
:1006D000F1F700C0000080914C0190E00E94ED0312
:1006E000FF0CF82A60E080914E010E94140487EC10
:1006F00090E00197F1F700C000002197A8F68F2D38
:10070000CDB7DEB7E5E00C94E80488307CF08031AA
:100710003CF092E0FB0190838051FA0180830895C0
:10072000FB0110828850FA018083089591E0FB015B
:100730009083FA0180830895883074F460FD1CC0B2
:100740009AB121E030E0082E01C0220F0A94EAF7A6
:10075000209529232AB908958031CCF0805160FF7B
:1007600030C097B121E030E0082E01C0220F0A947A
:10077000EAF7922B97B908959AB121E030E0082E5C
:1007800001C0220F0A94EAF7922B9AB90895885073
:1007900060FD0CC094B121E030E0082E01C0220FB2
:1007A0000A94EAF72095292324B9089594B121E009
:1007B00030E0082E01C0220F0A94EAF7922B94B978
:1007C000089597B121E030E0082E01C0220F0A946D
:1007D000EAF72095292327B9089588305CF429B1D8
:1007E00030E002C0359527958A95E2F720FD0EC0CE
:1007F00080E00895803164F423B130E0885002C075
:10080000359527958A95E2F720FFF2CF81E008958C
:1008100026B130E0805102C0359527958A95E2F7E0
:1008200020FDF4CF80E00895883074F460FD2CC082
:100830009BB121E030E0082E01C0220F0A94EAF7B4
:10084000209529232BB9089580317CF0805160FDDB
:1008500031C098B121E030E0082E01C0220F0A9487
:10086000EAF72095292328B90895885060FD17C01C
:1008700095B121E030E0082E01C0220F0A94EAF77A
:100880002095292325B908959BB121E030E0082E59
:1008900001C0220F0A94EAF7922B9BB9089595B1F3
:1008A00021E030E0082E01C0220F0A94EAF7922BD3
:1008B00095B9089598B121E030E0082E01C0220FCB
:1008C0000A94EAF7922B98B90895CF93C82F8A30EB
:1008D00041F09091C00095FFFCCFC093C600CF912E
:1008E00008958DE00E946504F4CF8091C00087FFD9
:1008F000FCCF8091C60008951092C50087E68093D2
:10090000C4008EE091E0909353018093520180E007
:1009100091E09093510180935001E0ECF0E08081F0
:100920008D7F808386E08093C20088E18093C10040
:100930000895A4E1B0E0EFE9F4E00C94CB040E9448
:100940007C040E9409028CE191E00E940C058E015A
:100950000F5F1F4F87E2E82E81E0F82EC8010E944A
:10096000B5008823D9F319861F930F93FF92EF9256
:100970000E94F6040F900F900F900F90EFCF2F92E0
:100980003F924F925F926F927F928F929F92AF921F
:10099000BF92CF92DF92EF92FF920F931F93CF936C
:1009A000DF93CDB7DEB7CA1BDB0B0FB6F894DEBF03
:1009B0000FBECDBF09942A88398848885F846E8429
:1009C0007D848C849B84AA84B984C884DF80EE8073
:1009D000FD800C811B81AA81B981CE0FD11D0FB67C
:1009E000F894DEBF0FBECDBFED010895A0E0B0E0EA
:1009F000ECEFF4E00C94CF04AE014B5F5F4FFA01D3
:100A000061917191AF0180915201909153010E94C7
:100A10003C05E2E00C94EB040F931F93CF93DF931C
:100A2000E0915201F0915301238121FF1BC08C0101
:100A3000D0E0C0E0F80181918F0160915201709186
:100A40005301DB011896ED91FC911997882331F041
:100A50000995892B79F3DFEFCFEFECCF8AE0099589
:100A6000892B19F08FEF9FEF02C08D2F9C2FDF9104
:100A7000CF911F910F910895ACE0B0E0E2E4F5E072
:100A80000C94BF047C016B018A01FC011782168261
:100A9000838181FFBDC1CE0101964C01F701938195
:100AA000F60193FD859193FF81916F01882309F4ED
:100AB000ABC1853239F493FD859193FF81916F012C
:100AC000853229F4B70190E00E942407E7CF512C2A
:100AD000312C20E02032A0F48B3269F030F48032E7
:100AE00059F0833269F420612CC08D3239F08033A3
:100AF00039F4216026C02260246023C0286021C010
:100B000027FD27C030ED380F3A3078F426FF06C0B5
:100B1000FAE05F9E300D1124532E13C08AE0389EF8
:100B2000300D1124332E20620CC08E3221F426FDAC
:100B30006BC1206406C08C3611F4206802C0883670
:100B400041F4F60193FD859193FF81916F0181112D
:100B5000C1CF982F9F7D9554933028F40C5F1F4F81
:100B6000FFE3F9830DC0833631F0833771F08335AD
:100B700009F05BC022C0F801808189830E5F1F4F9E
:100B800044244394512C540115C03801F2E06F0EF7
:100B9000711CF801A080B18026FF03C0652D70E0B4
:100BA00002C06FEF7FEFC5012C870E9419072C014F
:100BB00083012C852F77222E17C03801F2E06F0EAB
:100BC000711CF801A080B18026FF03C0652D70E084
:100BD00002C06FEF7FEFC5012C870E940E072C012A
:100BE0002C852068222E830123FC1BC0832D90E0DE
:100BF00048165906B0F4B70180E290E00E9424073D
:100C00003A94F4CFF50127FC859127FE81915F018D
:100C1000B70190E00E94240731103A94F1E04F1A96
:100C200051084114510471F7E5C0843611F089363A
:100C300039F5F80127FF07C06081718182819381B6
:100C40000C5F1F4F08C060817181072E000C880B5C
:100C5000990B0E5F1F4F2F76722E97FF09C090954C
:100C60008095709561957F4F8F4F9F4F2068722EB2
:100C70002AE030E0A4010E945C07A82EA81844C016
:100C8000853729F42F7EB22E2AE030E025C0F22FDE
:100C9000F97FBF2E8F36C1F018F4883579F0B4C0D3
:100CA000803719F0883721F0AFC02F2F2061B22E86
:100CB000B4FE0DC08B2D8460B82E09C024FF0AC07D
:100CC0009F2F9660B92E06C028E030E005C020E1D5
:100CD00030E002C020E132E0F801B7FE07C06081D9
:100CE0007181828193810C5F1F4F06C06081718189
:100CF00080E090E00E5F1F4FA4010E945C07A82EC9
:100D0000A818FB2DFF777F2E76FE0BC0372D3E7F78
:100D1000A51450F474FE0AC072FC08C0372D3E7E44
:100D200005C0BA2C372D03C0BA2C01C0B52C34FF36
:100D30000DC0FE01EA0DF11D8081803311F4397E72
:100D400009C032FF06C0B394B39404C0832F8678E1
:100D500009F0B39433FD13C030FF06C05A2CB3140E
:100D600018F4530C5B18B32CB31468F4B70180E289
:100D700090E03C870E942407B3943C85F5CFB314E0
:100D800010F43B1801C0312C34FF12C0B70180E3CE
:100D900090E03C870E9424073C8532FF17C031FD5C
:100DA00003C088E790E002C088E590E0B7010CC07E
:100DB000832F867859F031FF02C08BE201C080E2B8
:100DC00037FD8DE2B70190E00E942407A51438F4A6
:100DD000B70180E390E00E9424075A94F7CFAA94C9
:100DE000F401EA0DF11D8081B70190E00E94240713
:100DF000A110F5CF332009F451CEB70180E290E085
:100E00000E9424073A94F6CFF7018681978102C0A9
:100E10008FEF9FEF2C96E2E10C94DB04FC01059030
:100E2000615070400110D8F7809590958E0F9F1FEC
:100E30000895FC016150704001900110D8F7809531
:100E400090958E0F9F1F08950F931F93CF93DF935D
:100E5000FB01238121FD03C08FEF9FEF28C022FFFC
:100E600016C046815781248135814217530744F4C7
:100E7000A081B1819D012F5F3F4F318320838C93EF
:100E8000268137812F5F3F4F3783268310C0EB01C8
:100E9000092F182F0084F185E02D0995892BE1F6A3
:100EA0008E819F8101969F838E83812F902FDF916A
:100EB000CF911F910F910895FA01AA27283051F17F
:100EC000203181F1E8946F936E7F6E5F7F4F8F4F7B
:100ED0009F4FAF4FB1E03ED0B4E03CD0670F781FDA
:100EE000891F9A1FA11D680F791F8A1F911DA11DBF
:100EF0006A0F711D811D911DA11D20D009F46894F8
:100F00003F912AE0269F11243019305D3193DEF69F
:100F1000CF010895462F4770405D4193B3E00FD055
:100F2000C9F7F6CF462F4F70405D4A3318F0495D40
:100F300031FD4052419302D0A9F7EACFB4E0A69523
:100F40009795879577956795BA95C9F70097610545
:100F5000710508959B01AC010A2E0694579547959B
:100F600037952795BA95C9F7620F731F841F951F90
:080F7000A01D0895F894FFCFC5
:100F780000000001000000000000750400000000EF
:100F8800000200000000650400000000526F646168
:100F98006E646F2E2E2E00726563656269646F3D04
:040FA80025730A00A3
:00000001FF
