:100000000C9434000C948D030C94B4030C945100A4
:100010000C9451000C9451000C9451000C9451001C
:100020000C9451000C9451000C9451000C9451000C
:100030000C9451000C9451000C9451000C945100FC
:100040000C9453020C9451000C9451000C945100E8
:100050000C9451000C9451000C9451000C945100DC
:100060000C9451000C94510011241FBECFEFD8E026
:10007000DEBFCDBF11E0A0E0B1E0EAE2FAE002C0ED
:1000800005900D92A036B107D9F711E0A0E6B1E0D6
:1000900001C01D92A437B107E1F70E940E040C9431
:1000A00013050C940000CF93C82F8A3019F48DE00B
:1000B0000E9453008091C00085FFFCCFC093C60012
:1000C000CF9108958091C00087FFFCCF8091C6003A
:1000D00008951092C50087E68093C4008EE091E0F9
:1000E000909371018093700180E091E090936F0193
:1000F00080936E01E0ECF0E080818D7F808386E06C
:100100008093C20088E18093C10008958091C0006F
:10011000881F8827881F0895883024F491E0FB0108
:10012000908303C0FB0110828850FA0180830895F8
:10013000A2E0B0E0EEE9F0E00C944E04162FAE0120
:100140004F5F5F4FBE016E5F7F4F0E948C008A81C0
:10015000882319F0813099F023C0398124B181E0DE
:1001600090E0032E01C0880F0A94EAF7111104C031
:100170008095822384B914C0282B24B911C03981F9
:100180002AB181E090E0032E01C0880F0A94EAF7BB
:10019000111104C0809582238AB902C0282B2AB984
:1001A0002296E3E00C946A04A2E0B0E0EAEDF0E00D
:1001B0000C944F04AE014F5F5F4FBE016E5F7F4FE7
:1001C0000E948C008A81882321F0813061F489B1FA
:1001D00001C083B190E0098002C0959587950A948B
:1001E000E2F780FD02C080E001C081E02296E2E0FB
:1001F0000C946B04A2E0B0E0E0E0F1E00C944E045B
:10020000162FAE014F5F5F4FBE016E5F7F4F0E94A2
:100210008C008A81882319F0813099F023C03981BC
:1002200025B181E090E0032E01C0880F0A94EAF71F
:10023000113019F4282B25B915C08095822385B972
:1002400011C039812BB181E090E0032E01C0880FED
:100250000A94EAF7113019F4282B2BB903C08095C2
:1002600082238BB92296E3E00C946A040F931F93C8
:10027000CF93DF93082F60E083E00E94FA0080E6CE
:100280008A95F1F7C0E0D0E0112707FD1095B8017D
:100290000C2E02C0759567950A94E2F7617083E0B1
:1002A0000E94FA0080E68A95F1F72196C830D105C0
:1002B00071F761E083E00E94FA0080EC8A95F1F723
:1002C000DF91CF911F910F9108951F93CF93DF93EB
:1002D000EC0110E0FE01E10FF11D8081882321F087
:1002E0000E9436011F5FF6CFDF91CF911F910895D5
:1002F0001F93CF93DF93EC0110E080916E019091FA
:100300006F010E947604833239F4C10FD11D188227
:10031000DF91CF911F9108958D3079F38A3069F381
:10032000FE01E10FF11D80831F5FE7CF61E083E0F5
:100330000E94980061E083E00E94FA0061E088E09A
:100340000E94980061E089E00E94980060E089E0E6
:100350000E94FA00089560E089E00E94FA002FEF01
:1003600083ED90E3215080409040E1F700C0000011
:1003700060E088E00E94FA002FEF81EE94E02150C7
:1003800080409040E1F700C0000061E089E00E94F9
:10039000FA002FEF83ED90E3215080409040E1F789
:1003A00000C0000061E088E00E94FA002FEF83EDBA
:1003B00090E3215080409040E1F700C00000089594
:1003C00042E063E080E895E20E94450360E089E056
:1003D0000E94FA002AEA36EE86E991E02150304088
:1003E00080409040D9F7000060E088E00E94FA0069
:1003F0002FEF31EE84E0215030408040E1F700C023
:10040000000061E089E00E94FA009FEF23ED30E3F5
:10041000915020403040E1F700C0000061E088E0EA
:100420000E94FA008FEF93ED20E38150904020402E
:10043000E1F700C00000089542E063E080E096E943
:100440000E94450360E089E00E94FA002FEF83ECF0
:1004500099E0215080409040E1F700C0000061E049
:1004600088E00E94FA0061E089E00E94FA002FEF24
:1004700083ED90E3215080409040E1F700C0000000
:10048000089580916801909169018115964921F440
:1004900085E58A95F1F705C087E791E00197F1F7C7
:1004A00000C0000008951F920F920FB60F92112402
:1004B0002F933F934F935F936F937F938F939F936C
:1004C000AF93BF93EF93FF93E0916601F0916701C3
:1004D000099580911C0186BDFF91EF91BF91AF916D
:1004E0009F918F917F916F915F914F913F912F914C
:1004F0000F900FBE0F901F90189521E025BB3091F3
:100500001C0136BD14BC33E035BD20936E009093C2
:10051000670180936601089580E00E9407048AEADB
:1005200092E00E947D028091640160E00E94980048
:10053000089581E085BB90911C0196BD14BC93E0A9
:1005400095BD80936E00089510926E0015BC81E0F9
:1005500085BB0895CF9380916301809163018830BA
:10056000B8F4C09160018091640190E00E94D400D1
:1005700020916301022E01C0880F0A94EAF78C2BA8
:1005800080936001809163018F5F8093630114C049
:100590000E94A402609164014CE852E080E00E9455
:1005A000DB0380916001809361011092600181E022
:1005B0008093620110926301CF9108950F931F936E
:1005C000CF93DF93082F8091650160E00E94FA00CD
:1005D00080911D010E944102C0E0D0E0112707FD7B
:1005E000109580916501B8010C2E02C07595679534
:1005F0000A94E2F761700E94FA0080911D010E9446
:1006000041022196C830D10561F78091650161E012
:100610000E94FA0080911D010E94410280911D01FB
:100620000E944102DF91CF911F910F9108951F9376
:10063000CF93DF93EC0110E0FE01E10FF11D17FDF8
:10064000FA958081882321F00E94DE021F5FF4CF9B
:10065000DF91CF911F910895809162010895A1E0EB
:10066000B0E0E5E3F3E00C944F048091620188234D
:10067000E1F3F8948091610189831092620178948A
:1006800089812196E2E00C946B041F93CF93DF9352
:10069000EC01142F909369018093680160936501C8
:1006A000409364018091650161E00E94980080910F
:1006B000640160E00E9498008091650161E00E9401
:1006C000FA008FE39CE90197F1F700C00000C03801
:1006D00095E2D90741F0C115D64959F482E18093DA
:1006E0001D018CEF04C08EE580931D0186EE809382
:1006F0001C014CE852E0612F80E00E94DB038FEF89
:1007000091EE24E0815090402040E1F700C00000CD
:100710007894DF91CF911F9108951F920F920FB699
:100720000F9211242F933F934F935F936F937F9377
:100730008F939F93AF93BF93EF93FF93E0916C01DF
:10074000F0916D010995FF91EF91BF91AF919F914C
:100750008F917F916F915F914F913F912F910F906A
:100760000FBE0F901F9018951F920F920FB60F9209
:1007700011242F933F934F935F936F937F938F93A6
:100780009F93AF93BF93EF93FF93E0916A01F09132
:100790006B010995FF91EF91BF91AF919F918F915F
:1007A0007F916F915F914F913F912F910F900FBE6D
:1007B0000F901F90189581110CC080916900826084
:1007C00080936900E89AE09A50936D0140936C0120
:1007D000089580916900886080936900E99AE19AA0
:1007E00050936B0140936A010895811108C0809174
:1007F0006900826080936900E89AE09A0895809188
:100800006900886080936900E99AE19A08951DBAA9
:10081000811102C0E8980895E99808950E9469003E
:100820008EE191E00E94E6042FEF83ED90E32150EA
:1008300080409040E1F700C000000E9496010E94B5
:10084000E0018AE391E00E94E6040E94860088238A
:1008500041F080916E0190916F010E9476040E9498
:10086000DE020E942C03882381F30E942F036091F3
:1008700070017091710190E00E94B404E6CF2F9254
:100880003F924F925F926F927F928F929F92AF9220
:10089000BF92CF92DF92EF92FF920F931F93CF936D
:1008A000DF93CDB7DEB7CA1BDB0B0FB6F894DEBF04
:1008B0000FBECDBF09942A88398848885F846E842A
:1008C0007D848C849B84AA84B984C884DF80EE8074
:1008D000FD800C811B81AA81B981CE0FD11D0FB67D
:1008E000F894DEBF0FBECDBFED010895CF93DF9327
:1008F000EC012B8120FF33C026FF0AC02F7B2B8306
:100900008E819F8101969F838E838A8190E029C08A
:1009100022FF0FC0E881F9818081992787FD90959A
:10092000009719F420622B831AC03196F983E8836B
:100930000EC0EA85FB85099597FF09C02B810196BA
:1009400011F480E101C080E2822B8B8308C02E81EC
:100950003F812F5F3F4F3F832E83992702C08FEF48
:100960009FEFDF91CF9108950F931F93CF93DF9364
:10097000182F092FEB018B8181FD03C08FEF9FEFB3
:1009800020C082FF10C04E815F812C813D814217C3
:1009900053077CF4E881F9819F012F5F3F4F398332
:1009A0002883108306C0E885F985812F0995892B56
:1009B00029F72E813F812F5F3F4F3F832E83812F69
:1009C000902FDF91CF911F910F9108950F931F9357
:1009D000CF93DF93E0917001F0917101238121FFAA
:1009E0001BC0EC0100E010E08991609170017091F2
:1009F0007101DB011896ED91FC911997882331F074
:100A00000995892B89F30FEF1FEFEECF8AE0099547
:100A1000892B11F4C80102C08FEF9FEFDF91CF91B6
:0A0A20001F910F910895F894FFCF85
:100A2A000000000100000000000062000000000059
:100A3A00000200000000530000000000FC12496E92
:100A4A007465726661636520636F6D206F20504321
:100A5A0020726F64616E646F0D0050726F6E746FF6
:100A6A00207061726120656E766961722F726563AA
:100A7A006562657220636F6D616E646F730D00004D
:00000001FF
